:020000040000fa
:080000000002040000000000f2
:020000040000fa
:040008003c040000b4
:020000040000fa
:04000c003c040000b0
:020000040000fa
:040010003c040000ac
:020000040000fa
:040014003c040000a8
:020000040000fa
:040018003c040000a4
:020000040000fa
:04001c003c040000a0
:020000040000fa
:040020003c0400009c
:020000040000fa
:040024003c04000098
:020000040000fa
:040028003c04000094
:020000040000fa
:04002c003c04000090
:020000040000fa
:040030003c0400008c
:020000040000fa
:04003400e0020000e6
:020000040000fa
:040038003c04000084
:020000040000fa
:04003c003c04000080
:020000040000fa
:040040003c0400007c
:020000040000fa
:04004400b003000005
:020000040000fa
:04004800c4030000ed
:020000040000fa
:04004c003c04000070
:020000040000fa
:040050003c0400006c
:020000040000fa
:040054000e04000096
:020000040000fa
:040058003c04000064
:020000040000fa
:04005c003c04000060
:020000040000fa
:040060003c0400005c
:020000040000fa
:040064003c04000058
:020000040000fa
:040068003c04000054
:020000040000fa
:04006c003c04000050
:020000040000fa
:040070003c0400004c
:020000040000fa
:04007400280400005c
:020000040000fa
:040078003c04000044
:020000040000fa
:04007c003c04000040
:020000040000fa
:040080003c0400003c
:020000040000fa
:040084003c04000038
:020000040000fa
:040088003c04000034
:020000040000fa
:04008c003c04000030
:020000040000fa
:040090003c0400002c
:020000040000fa
:040094003c04000028
:020000040000fa
:040098003c04000024
:020000040000fa
:04009c003c04000020
:020000040000fa
:0400a0003c0400001c
:020000040000fa
:0400a4003c04000018
:020000040000fa
:0400a8003c04000014
:020000040000fa
:0400ac003c04000010
:020000040000fa
:0400b0003c0400000c
:020000040000fa
:0400b4003c04000008
:020000040000fa
:0400b8003c04000004
:020000040000fa
:0400bc003c04000000
:020000040000fa
:0400c0003c040000fc
:020000040000fa
:0400c4003c040000f8
:020000040000fa
:0400c8003c040000f4
:020000040000fa
:0400cc003c040000f0
:020000040000fa
:0400d0003c040000ec
:020000040000fa
:0400d4003c040000e8
:020000040000fa
:0400d8003c040000e4
:020000040000fa
:0400dc003c040000e0
:020000040000fa
:0400e0003c040000dc
:020000040000fa
:0400e4003c040000d8
:020000040000fa
:0400e8003c040000d4
:020000040000fa
:0400ec003c040000d0
:020000040000fa
:0400f0003c040000cc
:020000040000fa
:0400f4003c040000c8
:020000040000fa
:0400f8003c040000c4
:020000040000fa
:0400fc003c040000c0
:020000040000fa
:040100003c040000bb
:020000040000fa
:040104003c040000b7
:020000040000fa
:040108003c040000b3
:020000040000fa
:04010c003c040000af
:020000040000fa
:040110003c040000ab
:020000040000fa
:040114003c040000a7
:020000040000fa
:040118003c040000a3
:020000040000fa
:04011c003c0400009f
:020000040000fa
:040120003c0400009b
:020000040000fa
:040124003c04000097
:020000040000fa
:040128003c04000093
:020000040000fa
:04012c003c0400008f
:020000040000fa
:040130003c0400008b
:020000040000fa
:040134003c04000087
:020000040000fa
:040138003c04000083
:020000040000fa
:04013c003c0400007f
:020000040000fa
:040140003c0400007b
:020000040000fa
:040144003c04000077
:020000040000fa
:040148003c04000073
:020000040000fa
:04014c003c0400006f
:020000040000fa
:040150003c0400006b
:020000040000fa
:040154003c04000067
:020000040000fa
:040158003c04000063
:020000040000fa
:04015c003c0400005f
:020000040000fa
:040160003c0400005b
:020000040000fa
:040164003c04000057
:020000040000fa
:040168003c04000053
:020000040000fa
:04016c003c0400004f
:020000040000fa
:040170003c0400004b
:020000040000fa
:040174003c04000047
:020000040000fa
:040178003c04000043
:020000040000fa
:04017c003c0400003f
:020000040000fa
:040180003c0400003b
:020000040000fa
:040184003c04000037
:020000040000fa
:040188003c04000033
:020000040000fa
:04018c003c0400002f
:020000040000fa
:040190003c0400002b
:020000040000fa
:040194003c04000027
:020000040000fa
:040198003c04000023
:020000040000fa
:04019c003c0400001f
:020000040000fa
:040208003c040000b2
:020000040000fa
:04020c003c040000ae
:020000040000fa
:040210003c040000aa
:020000040000fa
:040214003c040000a6
:020000040000fa
:040218003c040000a2
:020000040000fa
:04021c003c0400009e
:020000040000fa
:040220003c0400009a
:020000040000fa
:040224003c04000096
:020000040000fa
:040228003c04000092
:020000040000fa
:04022c003c0400008e
:020000040000fa
:040230003c0400008a
:020000040000fa
:04023400e0020000e4
:020000040000fa
:040238003c04000082
:020000040000fa
:04023c003c0400007e
:020000040000fa
:040240003c0400007a
:020000040000fa
:04024400b003000003
:020000040000fa
:04024800c4030000eb
:020000040000fa
:04024c003c0400006e
:020000040000fa
:040250003c0400006a
:020000040000fa
:040254000e04000094
:020000040000fa
:040258003c04000062
:020000040000fa
:04025c003c0400005e
:020000040000fa
:040260003c0400005a
:020000040000fa
:040264003c04000056
:020000040000fa
:040268003c04000052
:020000040000fa
:04026c003c0400004e
:020000040000fa
:040270003c0400004a
:020000040000fa
:04027400280400005a
:020000040000fa
:040278003c04000042
:020000040000fa
:04027c003c0400003e
:020000040000fa
:040280003c0400003a
:020000040000fa
:040284003c04000036
:020000040000fa
:040288003c04000032
:020000040000fa
:04028c003c0400002e
:020000040000fa
:040290003c0400002a
:020000040000fa
:040294003c04000026
:020000040000fa
:040298003c04000022
:020000040000fa
:04029c003c0400001e
:020000040000fa
:0402a0003c0400001a
:020000040000fa
:0402a4003c04000016
:020000040000fa
:0402a8003c04000012
:020000040000fa
:0402ac003c0400000e
:020000040000fa
:0402b0003c0400000a
:020000040000fa
:0402b4003c04000006
:020000040000fa
:0402b8003c04000002
:020000040000fa
:0402bc003c040000fe
:020000040000fa
:0402c0003c040000fa
:020000040000fa
:0402c4003c040000f6
:020000040000fa
:0402c8003c040000f2
:020000040000fa
:0402cc003c040000ee
:020000040000fa
:0402d0003c040000ea
:020000040000fa
:0402d4003c040000e6
:020000040000fa
:0402d8003c040000e2
:020000040000fa
:0402dc003c040000de
:020000040000fa
:0402e0003c040000da
:020000040000fa
:0402e4003c040000d6
:020000040000fa
:0402e8003c040000d2
:020000040000fa
:0402ec003c040000ce
:020000040000fa
:0402f0003c040000ca
:020000040000fa
:0402f4003c040000c6
:020000040000fa
:0402f8003c040000c2
:020000040000fa
:0402fc003c040000be
:020000040000fa
:040300003c040000b9
:020000040000fa
:040304003c040000b5
:020000040000fa
:040308003c040000b1
:020000040000fa
:04030c003c040000ad
:020000040000fa
:040310003c040000a9
:020000040000fa
:040314003c040000a5
:020000040000fa
:040318003c040000a1
:020000040000fa
:04031c003c0400009d
:020000040000fa
:040320003c04000099
:020000040000fa
:040324003c04000095
:020000040000fa
:040328003c04000091
:020000040000fa
:04032c003c0400008d
:020000040000fa
:040330003c04000089
:020000040000fa
:040334003c04000085
:020000040000fa
:040338003c04000081
:020000040000fa
:04033c003c0400007d
:020000040000fa
:040340003c04000079
:020000040000fa
:040344003c04000075
:020000040000fa
:040348003c04000071
:020000040000fa
:04034c003c0400006d
:020000040000fa
:040350003c04000069
:020000040000fa
:040354003c04000065
:020000040000fa
:040358003c04000061
:020000040000fa
:04035c003c0400005d
:020000040000fa
:040360003c04000059
:020000040000fa
:040364003c04000055
:020000040000fa
:040368003c04000051
:020000040000fa
:04036c003c0400004d
:020000040000fa
:040370003c04000049
:020000040000fa
:040374003c04000045
:020000040000fa
:040378003c04000041
:020000040000fa
:04037c003c0400003d
:020000040000fa
:040380003c04000039
:020000040000fa
:040384003c04000035
:020000040000fa
:040388003c04000031
:020000040000fa
:04038c003c0400002d
:020000040000fa
:040390003c04000029
:020000040000fa
:040394003c04000025
:020000040000fa
:040398003c04000021
:020000040000fa
:04039c003c0400001d
:020000040000fa
:100400004ff921000e7f24000e018800000000003b
:10041000000020000000e000020032000001200087
:100420002002880014000700750107000000e000aa
:1004300003003a00400125000100200002003700bf
:100440000000200001002000810f70000100320038
:1004500014000700000020000000e000020032004d
:1004600000000200000000005257020000000000df
:100470000040da000000fe004440a90000582700b8
:100480000000e0000300320010002000a0018800fe
:100490004440a800000006008a1f78008b1f7800e7
:1004a0000000060091018800800478000000eb0045
:1004b0001a003700e284440032a0b4009905ba0063
:1004c000e284440032a0b4009906ba00e2844400f9
:1004d00032a0b4000006eb00476fde00fd07b2005b
:1004e000636ce10003003a00ebff07000000eb0043
:1004f0000a003700606ce10004003a00005deb0088
:100500008b05e900fdff3e00040037006168e10053
:10051000010032000086eb000b00070019c7ba008b
:100520001905ba000e04e00003003a000a00e000da
:10053000e0ff3a0000000600fe07b2009e018800be
:100540008a047800f5ff3700395dba008b05e900b1
:100550000c003200295dba008b05e900080032006a
:100560000c00e00003003a00e284440032a0b40032
:10057000f5ff370019ddba008b05e900faff3a00f4
:100580008904e800e184440032a0b40000000600c1
:10059000ec540400000000000456040000000000b9
:1005a00092520400000000002c2004000000000013
:1005b000d01f0400000000006a1f040000000000bb
:1005c0003600f800809fbe00829fbe00849fbe0060
:1005d000869fbe003400f80010002000a0018800b3
:1005e0000600fa00c0c0b300004f780025003700b5
:1005f0002bc8bf000080fb001e01fb006d00b9008e
:10060000000078008200400000d5200000804000fb
:10061000104078000080fb00c400de000e00e800ff
:10062000014878001e4078000004e000110034000a
:100630002bc8bf000080fb009e00fb000101e90009
:100640006d00b900000078008200400000d5200055
:1006500000804000104078004400dd0080407800b9
:100660000e00e8001040780080c070000e00e80026
:10067000014878000e00e80010407800982a070032
:100680001e4fe9001e4078000004e000d8ff3d0046
:100690002bc8bf008080fb00d0cc2c000008b80025
:1006a000c308de000e80e800014878000e80e800f4
:1006b00090407800600f20000088b90000007800aa
:1006c000804078002bc8bf0080c040006300470016
:1006d000014878000e80e80010407800c400dd007a
:1006e000630047001040780080c04000640047006d
:1006f000014878006400470010407800782a07001d
:1007000010002000e22507000000eb00e0250700b4
:100710002bc8bf000040e8002be8b700b1822000e2
:100720009140780040c6b30080cf500003003600ef
:100730002b68ef0010c0b30026e8b7008460a90062
:100740000080fa003400f9004f03be004f02be00e3
:100750004f01be004f00be003600f9000040060009
:100760003400f800881f780018002000a8018800d5
:100770004f0478000000fa0084e0a9000080fa002d
:100780003400f900004006003600f800809fbe00eb
:10079000829fbe00849fbe00869fbe003400f8008a
:1007a00010002000a00188000000fa0040418000f5
:1007b0000000e0000e003200404180000000e9002f
:1007c00040418800404180006100600000407800a6
:1007d0000004e00003003200100020008225070022
:1007e000050037000000eb007f25070002003700fe
:1007f0000000eb007c2507008500a9000080fa00be
:100800003400f9004f03be004f02be004f01be008e
:100810004f00be003600f90000400600801f78003f
:100820003400f80010002000a00188000000fa0049
:1008300030118000004078002ae8b7008560a900e8
:100840000080fa003400f9004f00780000400600f4
:100850003400f800881f780018002000a8018800e4
:100860004f0478000000fa008660a9000080fa00ba
:100870003400f900004006000040da000000fe00ed
:10088000ec8747008e1f78006c87570044002000db
:10089000041f7800000f78006c87570002afbe007d
:1008a000e1bf9f006c805700991707001e00be0033
:1008b0004f077800cf00b10000000600ec8747002a
:1008c0008e1f780011002000a1bf9f006c87570089
:1008d000002f78006c8057008f1707001e007800eb
:1008e0004f077800cf00b10000000600ec874700fa
:1008f0008e1f7800e20f500034003e0090f480001c
:10090000e10f500003003200e20f500011003a00e6
:100910000c003700032220000300e00001003a0031
:100920000040da002002e200020035002822ef0039
:1009300021e2a8002342ab000d003a002342a800a8
:100940000b003700032320000300e00001003a0001
:100950000040da003002e200020035003822ef00e9
:1009600031e2a8003342ab0001003a003342a80054
:10097000820178000b0037003102fb00e10f5000cc
:1009800004003a002322ab00feff3a002411880045
:10099000030037003322ab00feff3a00a4118800a9
:1009a0008301e9000300e000f3ff3a00e10f50008b
:1009b00003003a002302ab00feff32000c003700b8
:1009c0003302ab00feff3200090037006c8757008e
:1009d00033002000031f7800000f7800c1bf9f0084
:1009e000d2bf9f006c8057004d1707005fb997007a
:1009f000020078004f077800cf00b1000000060029
:100a0000000005000001be00220007000470a700de
:100a100003f0a1006509b100160032000d00350099
:100a20006828e10006003500f0ff2f00f1ff2700e5
:100a30000300e00013003b00010028000000050057
:100a400000004000818048008502e900fcff3a0078
:100a500008003700f88f420002003c008000eb00e5
:100a6000000005008100d1000080d3008502e8006d
:100a7000fcff3a000300e00002003b0060001000b1
:100a8000e0801800000006004f89de008201780037
:100a900015023700c70ade00f107b200f50fb200f9
:100aa00008003200e1cf4200020032000170a000d5
:100ab00024000500810f70000100320004080500c9
:100ac00044000500810f700002003a001400050088
:100ad0008502e9000000400081c04800fcff3b00a7
:100ae0000170a000240005006022b800060220006a
:100af0000000d0008180d2000482d2008582d20022
:100b00000000a0000202520083825a00030031005c
:100b10000202420083824a000000a1000603e900ad
:100b2000f3ff3a000000060007f827000783610082
:100b30000638e10004003a00f707200087836100cf
:100b40008703710001003a0003f0a200889fbe00f5
:100b50008a9fbe008c9fbe00470ade000480a10071
:100b6000c71ade000580a100070028000785600085
:100b700087856100f70f20000720e1009e0032000a
:100b80000728e1009c003200010678000400e00024
:100b9000b4003200f7072000878060000170a000d9
:100ba0000500e000c0003200f707200087816100e7
:100bb0000370a000050652000f003a000b50e10040
:100bc0000b0032000308e10002003a000200e100dd
:100bd0007e0032000204500083845800040031007b
:100be0000001fd008101fd008402fd008a05fd0079
:100bf0006044b800210037000520e10005003d00f9
:100c00000001fd008101fd008402fd008a05fd0058
:100c1000050652007a60e100050035000170a10070
:100c20004722dd00848070008a80700063003700f6
:100c30006044b800ef02660007ff2f000706660059
:100c40000500e00006003400f08312008714dd0088
:100c50000511de00071bdd00060171008519de00ad
:100c60007060e10005003500090478008204780016
:100c7000030178008001eb00700656000b50e10084
:100c800003003a000200400083804800040037005f
:100c900060041400e0841c000200580083805800a7
:100ca0000188a300060032008100d1000080d3003b
:100cb0008984d3000884d3000402e80027003700a9
:100cc0000178a30025003a000100e0000300320093
:100cd0008186cf00698656000a0037008c0020000c
:100ce0000000e00004003a00090078008804780061
:100cf0000004eb00700252008086cf000d06460013
:100d00000c06e9007060e100060035008000780004
:100d100009007800880478000004eb007006560093
:100d2000700252000c00e0000c0034008c08dd0062
:100d3000f00316000703de00868070000c00dd0063
:100d4000074bde00060070008c4cdd000743de0020
:100d5000868474000c44dd000c0252006120e10026
:100d600020003500610160000700280087816400d1
:100d7000f7ff270087836400070374000300e00087
:100d80000600320082037300040032000000e80015
:100d9000e08048000188a3000e003a00f70f200011
:100da0000720e1004a003d000170a1004722dd005c
:100db000810072008a8070000000be004f06be00f5
:100dc0004f05be004f04be00000006006000b800e2
:100dd000faff37008100d1000080d3000402e80050
:100de000eeff37000401780089017400c20007009b
:100df0008a807000f1ff37001801070007027800b1
:100e00000001fd008101fd00140107008702780048
:100e1000850372000778a300040032000001fd0082
:100e20008101fd0027010700e4ff37008503620010
:100e30000768a300080032000b50e10003003200f5
:100e4000f0ff2f00f1ff2700dcff37000001fd005d
:100e50008101fd00d9ff37000468a300d7ff3200ed
:100e6000faff3700f8ff2700888360000b003a0084
:100e70000000e00009003a008303640082837300ed
:100e8000020032000200be00ccff37000b50e10030
:100e9000ceff3a000200be00c8ff37001400200059
:100ea000810064003eff3700f8ff2700888361005f
:100eb00004003a000200e00002003a008c007800d2
:100ec000beff3700150020008301640039ff3700a2
:100ed00001f827000000200081007500b7ff3700ef
:100ee000038368000700280007036300470ade0049
:100ef0000480a100c71ade000580a100f70f2000c2
:100f00000720e100420032000728e10040003200e3
:100f1000889fbe008a9fbe008c1f7800f107b20038
:100f2000f307b2000400e000640032000170a0008a
:100f30000500e000680032000370a0008505420053
:100f4000eb07b1000204b8000302b8008484440037
:100f500060854a00020ab800848444000a854a0079
:100f6000030ab80004054500040033000804d0005b
:100f70008984d2000a85d2008b05e9006158e1001e
:100f80003d00350002102000090161000308200027
:100f900089816100f7072000878364000886730059
:100fa000c84cde00c853dd00878474004855de005d
:100fb0000300e000060032008203760004003200e5
:100fc0008904e80060054d000a88a3000c003a007f
:100fd000f70f20000758e10044003d000a70a1000f
:100fe000c75ddd000a8575008a007300090078007e
:100ff0004f0678004f05be004f04be0000000600fb
:101000000a05d1008984d3008b05e800f0ff370082
:10101000881f780006047800900007000702780017
:101020000001fd008101fd008c00070087027800af
:10103000850372000778a300050032000001fd005f
:101040008101fd009f0007004f04780000000600aa
:10105000850372000748a30003003200f0ff2f0051
:10106000f1ff2700f8ff37000000200001f82700fb
:1010700088807000f4ff3700880178004848dd0060
:10108000808171004848de00c850dd00010070001a
:10109000c850de00060478000b0178001600070037
:1010a00088807000d2ff37000500e00005003200a4
:1010b000170020003a0007009dff370081037000f1
:1010c000f9ff3a00860078004f0678004f05be0011
:1010d0004f04be000000050083037100f9ff3200d9
:1010e000270020002e00070094ff370001f827009a
:1010f00086807000f4ff37000100e0002600320017
:10110000610111007810e10023003c006022b8006a
:101110007010e100040035008002780001007800c2
:101120008000eb00700151000200e0000900340073
:1011300070031100062add00822ade008603dd002e
:10114000878272000200de00860bdd00070070005f
:101150008208de0084817100f4ff270004826200af
:1011600084817100040028008482620061026000b2
:1011700005f0a6000000060004827100070032009e
:101180000000e800e0804800000006000002be0009
:101190006000b800efff37006000b80000000600f4
:1011a000889fbe000004eb006138e10016003a00a1
:1011b0000100e00008003a00c800de004800dd0041
:1011c000880020000100e00003003a00c800de00b3
:1011d0004800dd00680444008184cf00e9845400a5
:1011e000060034008908dd00f08314008703de0068
:1011f000878070000900dd000904440061021400ca
:101200004f04be00000006000300e00008003a00a2
:10121000c811de004811dd00880020000300e00056
:1012200003003a00c811de004811dd0068044400e4
:101230008384cf00e9845400060034008919dd005e
:10124000f08314008713de00878171000911dd002f
:1012500009044400e1021400e9ff370027002000e0
:1012600001f0a70017002000470bde00f60fb200c8
:10127000040032000643e8000a0032004702b300cf
:101280000000060001037800f607b20006037000b4
:1012900002003a000703b300000006008702b30013
:1012a0000000060001037800f607b2000603700094
:1012b000020032000770a000000006000760a000d6
:1012c000000006000478a300040032000578a300a3
:1012d000030032000168a30001003a000200be00d2
:1012e0000160a00000000600881f78000304780059
:1012f0000300e00007003d0060001000e0801800df
:1013000060011900e081190002003b0001f02d008e
:10131000030037000400070008f0a70001f0a00058
:101320004f04780000000600889fbe008a9fbe0020
:1013300000827000040271000482710026003200f5
:101340000004be000200be006011b8006b0920005e
:10135000950220000182cf000a0039000541b1004a
:101360000082cf00070039000541b1000982cf009b
:10137000040039000541b1000882cf0001003900a6
:101380000541b10005425200120032000a003b0044
:1013900082817100610164008100d1000080d3006e
:1013a0008984d3000884d3008b05e8000442e80058
:1013b000f7ff3a00070037000804440089844c0016
:1013c00000004800818048008b05e9000442e900e4
:1013d000f9ff3a00030007004f05be004f04be00ae
:1013e0000000060081002000618055000b003d00d8
:1013f0000b00200061fe2f000100e1001d00340001
:1014000082817100610164008904d1000884d300e5
:101410000000e800faff3a0071002000610064005b
:101420000300700002006000090032006104440003
:10143000e0844c000988a500050032008b05e80017
:101440006808e10002003a008904d1000884d30052
:10145000f20f20000258e10005003d00c75ddd00ed
:10146000f907b200898075000800780000000600c6
:101470000bf827008b007800000005000800fa0038
:101480000002be008501780003f0a1000001780091
:10149000a6fd200097f42300860f5100878f590086
:1014a00008003e00f4ff2f00f5972300840f510041
:1014b000858f590055003e000000200001f82300f0
:1014c000600037004f0ade0005002000163d2500b1
:1014d000b7072400860f5100878f590019003e007e
:1014e00036be2c0067012400860f5100878f5900fb
:1014f0000a0036000400e00004003200b2fd2000c3
:101500009304240091fd070048003700b2fd20003d
:101510009304240084fd0700440037000400e00029
:1015200004003200b2fd200093fc230087fd070079
:10153000430037000001be00b0fd200091fc2300f5
:1015400019003700561d2300270e2400860f510076
:10155000878f590016003e00f6dd2e00f70a2400a2
:10156000860f5100878f59000a0036000400e00002
:1015700004003200b2fd2000930c240073fd07002c
:1015800022003700b2fd2000930c240066fd070006
:101590001e0037000400e0000100320001f0a2004c
:1015a00042be2c00630924005ffd070024003700c1
:1015b000f4ff2f00f5f72700840f5100858f5900a5
:1015c000030036000001be0057fd07001d00370074
:1015d00068815700110107006011b80063016000c5
:1015e000e10f5100e08f59000a003200e20f510074
:1015f000e08f59000b003200e00f5100e08f5900de
:101600000d003a004fb89700dfb89700d5000700eb
:101610000c0037004fb89700dfb8970001f0a20028
:10162000070037004fb89700dfb89700cd000700dc
:1016300001f0a200030037004fb89700dfb8970011
:10164000510107000080fa00000006000400fa00c3
:10165000889fbe008a9fbe008c9fbe000004be0013
:101660004708de00f00fb20051092000810f500042
:1016700041003c000806be00e00f5400e08f5c0013
:1016800003003d000805be000bf0a200010037007a
:101690000805be00d1072000810f50000a003c0061
:1016a0000200200003b024000a00be0027fd07004e
:1016b00080bf9f0091bf9f006011b8000800be006e
:1016c00007fe07002b0037000200200003b02400b3
:1016d0000a00be001dfd07000200200003b0240028
:1016e00011fd07000a01be000ffd07000004be0047
:1016f0000200200003f02300041107000000e000b6
:10170000070034000a01be000800be000ffd0700fc
:101710000200200003f8230003fd07000f0037003c
:101720000200200003f02b000800be00f5100700a7
:101730000000e00006003c000a01be000800be00f8
:1017400002fd07000200200003f82300020037001a
:101750000a01be000800be00fcfc0700e00f5600b6
:10176000e08f5e0003003d000004be0009f0a2000f
:10177000010037000004be000800be004f06be0096
:101780004f05be004f04be000080fa0000000600b6
:101790000800fa000002be008501780003f0a100f5
:1017a00000017800a6fd200097f42300860f510069
:1017b000878f590006003e00f4ff2f00f5972300a5
:1017c000840f5100858f5900640036005d0037009a
:1017d0004f0ade0005002000163d2500b707240053
:1017e000860f5100878f590019003e0036be2c002d
:1017f00067012400860f5100878f59000a003e00c0
:101800000400e00004003200b2fd200093fc23003d
:10181000cefc07004f003700b2fd200093fc2300f0
:10182000c1fc0700420037000400e0000400320061
:10183000b2fd200093042400c4fc070040003700e0
:10184000b2fd200093042400b7fc07003c003700e1
:10185000561d2300270e2400860f5100878f590044
:1018600019003e00f6dd2e00f70a2400860f510015
:10187000878f59000a003e000400e0000400320097
:1018800042be2c0063092400b0fc0700280037008a
:1018900042be2c0063092400a3fc07002d00370082
:1018a0000400e00004003200b2fd2000930c24008c
:1018b000a6fc070023003700b2fd2000930c240093
:1018c00099fc07001f003700f4ff2f00f5f72700f1
:1018d000840f5100858f5900030036000001be00bf
:1018e00091fc07001d003700688157004b0007007e
:1018f0006011b80063016000e10f5100e08f5900f2
:1019000009003200e20f5100e08f59000a00320056
:10191000e00f5100e08f59000c003a004fb89700db
:10192000dfb89700070037004fb89700dfb897007f
:101930000c000700090037004fb89700dfb8970088
:1019400001f0a20090000700040037004fb8970094
:10195000dfb897000300070001f0a2000080fa0042
:1019600000000600889fbe008a9fbe008c9fbe00bc
:101970000001be005afd07000004be000001be00c9
:1019800057fd07000005be000200200003f02b00f9
:101990000800be0052fd07000200200003f82300eb
:1019a0006afc07000006be00f2a92a00a3d22300a9
:1019b0000a00be004afd07000001be000c00be0088
:1019c00062fc07000006be000801be000a00be005f
:1019d00043fd07000005be0072a12900c37c23005f
:1019e0000800be003efd0700f243200063ab230069
:1019f0004dfc07000001be000a00be0038fd0700d4
:101a00000001be000c00be0050fc07004f06be00e7
:101a10004f05be004f04be0000000600ea874700e5
:101a2000889fbe008a9fbe008c9fbe008e1f7800dc
:101a30000006be00020478000005be008b0178009d
:101a400003f0a10000017800a0fd200091dc24003b
:101a5000800f5100818f59001e003e0032982f00e8
:101a600023f223000c00be001dfd07000200200031
:101a700003b4240035fc07000200200003b4240056
:101a800029fc07000005be00defb0700800478008b
:101a9000a2fd200093fc23000a00be0010fd0700f9
:101aa0000001be000c00be001ffc07000006be00c7
:101ab000325a2800832823000a00be0008fd0700d0
:101ac0000001be000c00be0017fc0700008cbe0029
:101ad00026003700f0ff2f00f1f72700800f51009c
:101ae000818f5900060036000c01be000c00be00bc
:101af0000dfc0700008cbe008004eb001b003700cb
:101b00004718de00010020006009b1000180b1002b
:101b1000c702dd0004002000040151008581590046
:101b200076875700029fbe000002eb0013002000e2
:101b3000000178008e007800768057004200070090
:101b400080047800e00f5600e08f5e0005003d0045
:101b50001e00be0001f0a200008cbe008904ea0055
:101b6000020037003e1c78002e147800090078002f
:101b70004f0778004f06be004f05be004f04be0061
:101b8000af00b10000000600889fbe008a9fbe0023
:101b90008c9fbe000005be000001be00d0fc070007
:101ba0000004be000a01be00cdfc07000006be0016
:101bb0004288280083c023000800be00c8fc07003c
:101bc000b2aa2a00a3e22300d7fb07000001be004f
:101bd0000c00be00c2fc07000001be000a00be00ef
:101be000dafb07000005be000801be000800be00c9
:101bf000bbfc07000001be000c00be00b8fc0700e3
:101c00000006be00c2c32600636323000800be00b6
:101c1000b3fc0700f27c200003952300c2fb070001
:101c20000001be000c00be00adfc07000001be00bc
:101c30000a00be00c5fb07004f06be004f05be00f0
:101c40004f04be0000000600af17b000889fbe0022
:101c50008a9fbe008c9fbe008e1f7800b0a79f0099
:101c600081af9f000204780003057800f4a79f006d
:101c700004004200c1c82100610078006101b90080
:101c8000b2af9f00c3af9f000a00e9006102b90034
:101c900094af9f00a5af9f00630054008201200015
:101ca000110009000200d8006103b900d6a79f0007
:101cb000e7a79f00e00f5300e08f5b0003003d00ab
:101cc0006000b800d0a79f00e1a79f005fa1970028
:101cd000efa197000280ea008380ea0082012000e1
:101ce00003002000b70f0700cfc1de00000444004e
:101cf000818449005fa29700efa297001fab970075
:101d0000afab97000606520087865a003fa897009f
:101d1000cfa897000002430081824b006eec2f0099
:101d20000f074700c265dd0040c9210080854500de
:101d30006011b8000803be000a04be000205be0020
:101d4000140037006000b800e00f5600e08f5e001e
:101d50000a0035001900be00d4b79f00e5b79f0008
:101d6000f6b79f0087bf9f0047fb07008fbb970018
:101d70007fb39700efb297005fb2970000afbe004d
:101d800061054500e0854d0061064600e0864e0095
:101d9000e4844400840f5500858f5d00e9ff340022
:101da0000805780064f62f000f0242006011b800a9
:101db000b2b79f00c3b79f00840678001e003700ab
:101dc0003c00be004b01be00d4b79f00e5b79f00aa
:101dd000f6b79f0087bf9f0041fc07000001be00cf
:101de0000800be0059fb07000004be005fb2970068
:101df000efb2970061024200e0824a008fbb970079
:101e00007fb397001fa89700afa89700800f5200dc
:101e1000818f5a00eaff340088aebe003fb19700c0
:101e2000cfb1970061014100e0814900b2b79f0046
:101e3000c3b79f000a05e8003fb29700cfb29700f2
:101e40003fa89700cfa89700800f5200818f5a00bb
:101e500008003c003fa69700c255dd00a1ec2f0012
:101e60008f8040008b8540006044b8006022b8003d
:101e7000e4ff37003fa99700cfa99700b2b79f00b2
:101e8000c3b79f0096b79f00a7b79f00bfb2970048
:101e90004228dd00a6f62f000f0343000000430098
:101ea0001004be006de72f008f8646003fb09700fc
:101eb000cfb0970061005000e0805800f0af9f0065
:101ec00081b79f00c205dd008b0543000d0578003a
:101ed0003fb39700cfb397000d0778001900370084
:101ee00002002000033823000800be00f6b79f0060
:101ef00087bf9f00fafb0700c2fa0700e2fa07005b
:101f00000006be000200200003b82400f4fb070016
:101f10000001be000800be0003fb0700b9fa07007d
:101f200000adbe002b00be000c01be0007fb070089
:101f30000004be007fb397008fbb9700610353007e
:101f4000e0835b00e00f5300e08f5b00e4ff3c00a8
:101f50008e0678001fb697000c0178000800be00be
:101f6000340307000004be000200200003e0230049
:101f7000dbfb0700d0020700020020000310240052
:101f8000d7fb07000001be000800be00e6fa07000c
:101f90000005be009bfa07000004be00bafa070065
:101fa0000001be000a00be00dffa07000005be0007
:101fb0001fb19700afb19700e00f5100e08f5900bb
:101fc00022003400ffa997004218dd00a4e72f008b
:101fd0000f024200000042001002be00f80016008e
:101fe0000401be00010378000603e900030033008a
:101ff0008381d1000281d300fbff37000804410038
:10200000898449008100e900030033000201410096
:1020100083814900fbff37000201520083815a008f
:102020000288be00770016000202be000000e90030
:10203000030033008582d1000482d300fbff370008
:10204000d4af9f00e5af9f001d0037001fb397007e
:10205000afb39700e00f5300e08f5b000b003a0036
:10206000ffab97004238dd00a1e72f008f804000d2
:10207000008040001000be004789de00d2af9f0004
:10208000cf89de00e3af9f000d0037000200200083
:1020900003f023009d0e070024002000050020000f
:1020a000d4af9f00e5af9f000000e00009003d00b5
:1020b0006033b800d6af9f00e7af9f0062003700e3
:1020c0005fa89700efa89700e00f5000e08f58003e
:1020d0005d00340061044400e0844c006000b800fe
:1020e0006022b800120037005d01be00e00f520010
:1020f000e08f5a0006003a00e00f5100e08f5900cf
:102100000900320004002000051020000200370002
:10211000f4ff2f00f50f2000821e520083965a0014
:10212000140020000500200061004000e08048000d
:102130003fb19700cfb19700820f5000838f5800b6
:10214000e9ff35001fb39700afb39700e00f5300ce
:10215000e08f5b0023003400e10f5300e08f5b0051
:1021600004003200e20f5300e08f5b001d003a00d4
:102170000e003700ffab97004238dd00a1e72f00cb
:102180008f804000008040001001be0003037800f3
:10219000f607b200a6a79f008203780097a79f00ca
:1021a0001fa19700afa197000d003700ffa997006e
:1021b0004218dd00a6e72f000f0343000000430094
:1021c0001001be0083037800f703b20087a79f00c9
:1021d00082007800f19f9f007f9997008fa1970060
:1021e0000288be005fab9700efab9700e20f530091
:1021f000e08f5b0014003a000a01be0000002000de
:1022000001f82300d4b79f00e5b79f0046fa070006
:102210000005be005fb29700efb29700e00f5200da
:10222000e08f5a00080032000c0178000000200006
:1022300001f823007f0207000001be000a00be0073
:1022400039fa07000005be006011b8000a00be00a0
:102250002c0e07000000e00082003a003fb097001b
:10226000cfb09700ffab9700423add00a2e72f0006
:102270000f014100040241006011b8000300370063
:102280002403be00060171008781710061005000c7
:10229000e08058003fab9700cfab9700860f50000f
:1022a000878f5800f6ff3d00e00f5100e08f590086
:1022b0007a003a0061005300e0805b004200dd00dc
:1022c000a7e72f008f834300008043001200200007
:1022d00003002000f2af9f0083b79f001200200090
:1022e000030020000200370061014100e081490045
:1022f0002002be00e00f5200e08f5a00faff3200c9
:10230000f2af9f0083b79f003fb39700cfb3970012
:1023100061024300e0824b004226dd00a7f62f0059
:102320008f8343000c8643005fa19700efa19700c5
:1023300061004100e08049003fb39700cfb39700b0
:102340000000430081804b00c204dd0040c9210031
:10235000808444001fa99700afa997006100410045
:10236000e08049000000430081804b004201dd0015
:10237000a3ec2f008f81410082814100c3a79f0001
:102380000004e80009077800880678000404be000d
:10239000280037003e00be00bbf907004fa297009f
:1023a000009abe00c4a79f003fa29700c26add004a
:1023b000a6ec2f000f034300850243006033b800f2
:1023c0006055b800d89f9f00e99f9f000404be009d
:1023d0000d0037003800be004901be00f6b79f006f
:1023e00087bf9f00befa07000001be000a00be00c2
:1023f000d6f907000005be007fb397008fbb97009a
:1024000061034300e0834b001fa99700afa9970029
:10241000820f5300838f5b00eeff34005f9c9700b8
:10242000ef9c97000a9ebe0061044400e0844c00cb
:102430008d06e8007faa97008fb297003fb3970000
:10244000cfb397000400430085804b00800f5400f9
:10245000818f5c00cfff3400b0b79f00c1b79f00f1
:102460008afe370098af9f00a9af9f001fb4970066
:10247000afb497000c01ea000a00be00ed010700ae
:102480000005be000200200003b824009f0d0700d5
:102490000000e00020003d004300370098af9f009f
:1024a000a9af9f001fb49700afb497003fb097004b
:1024b000cfb0970061005000e0805800b0b79f0097
:1024c000c1b79f0078045400e0845c00bfb097005f
:1024d0004208dd00a2e72f000f014100000041008b
:1024e0003fb19700cfb19700040037006101510060
:1024f000e081590078045400e0845c002002be00b2
:10250000e00f5200e08f5a00f8ff3200b2b79f0090
:10251000c3b79f002c0037000200200003382300bf
:102520000a00be006efa070036f9070056f90700e8
:102530000006be00bfb29700422fdd00a6e72f00c5
:102540000f0343000e0743000200200003b82400dd
:1025500063fa07000001be000a00be0072f907001e
:1025600028f90700008fbe003fb09700cfb097005a
:1025700061004000e0804800b0b79f00c1b79f00f5
:1025800078044400e0844c004205dd00a1e72f0000
:102590008f8040000a8540000c00be0019f907003a
:1025a000008dbe00080037003fb197004216dd00e5
:1025b000a3e72f008f8141000c8641000a00be0076
:1025c00010f90700008ebe0008017800000020000e
:1025d00001f82300970107000004be003fb29700f6
:1025e000f4af9f008402e80095b79f00c22ddd0084
:1025f000a6e72f000f0343000b054300a7f62f00ab
:102600008f8343008b8543003fb69700cfb697007a
:102610000d0037004a00be001bf907000001be0094
:102620000800be002efa070080a5be0002002000b0
:10263000033823000800be0029fa07000004be008a
:1026400061065600e0865e00e00f5600e08f5e00f7
:10265000f0ff3d006df12f008f8646003fb59700db
:10266000cfb597001c0037005c01be005e00be00c5
:10267000d4b79f00e5b79f0019fa07000001be001c
:102680000800be0031f907000004be0061054500e6
:10269000e0854d00efb297005fb297003fa897002a
:1026a000cfa89700800f5500818f5d0007003c0088
:1026b0003fb19700cfb197000400510085805900c9
:1026c000800f5500818f5d00e7ff340088aebe00ab
:1026d00061055200e0855a00e00f5500e08f5d0073
:1026e0000b0035008ed921000a06e9004266dd00a4
:1026f000a3f62f008f8141000c8641006044b80092
:102700006000b8000a02be000005be00e3ff37000b
:102710007fa29700e20f520005003c00e10f52003b
:1027200010003d000400e00017003200da0037001e
:10273000ffa29700e38f5200d7003a003fb3970003
:102740004232dd00a7f12f008f8343000482430053
:10275000040778003fb39700cfb39700b4af9f0052
:10276000700037001fb097004205dd00a1f12f0077
:102770008f8040000a8540003fb49700cfb4970097
:102780006000b8001d0037001fb197004214dd0043
:10279000a3f12f008f814100088441003fb59700cd
:1027a000cfb597006000b800040037004801be00b4
:1027b000e6f8070061055500e0855d00e00f550073
:1027c000e08f5d00f9ff3d005faa9700efaa970038
:1027d000e00f5200e08f5a000100320001f0a20029
:1027e0008faa9700808abe00ab0037004a01be0066
:1027f000d6f8070061045400e0845c00e00f540048
:10280000e08f5c00f9ff3d000001be005fab970068
:10281000efab9700e00f5300e08f5b000100320048
:1028200001f0a2008fab9700808bbe005f0897007d
:10283000ef089700bcf80700aaf12f000f0545002c
:102840001800200009002000040037005a01be00d3
:10285000bef8070061044400e0844c003fb19700db
:10286000cfb19700820f5400838f5c00f7ff3400d4
:102870008fa99700648141005faa9700efaa970093
:10288000e00f5200e08f5a000100320001f0a20078
:102890000089be0080003700c0ff2f00ffaa97000c
:1028a00000a8b900000047003fb29700cfb29700e0
:1028b00061015200e0815a004211dd0082024000b5
:1028c0005506be000e0278005405be000a01be0087
:1028d0000c00be00d4b79f00e5b79f00f6b79f007d
:1028e00087bf9f0099f807000004be000001be00ea
:1028f0000c00be008cf807000001be000a00be00fc
:1029000092f807005fb29700008abe00efb297000e
:10291000888abe007fb397008fbb97006103530086
:10292000e0835b0064075700e00f5300e08f5b001b
:10293000d9ff3c003faa97003fb39700cfb3970061
:102940000404780023003700c0ff2f00ffaa97007f
:1029500000a8b900800444003fb19700cfb19700b0
:1029600061005100e08059004200dd008084440095
:102970005902be00080778005e06be000c01be00ca
:102980000400be00d4b79f00e5b79f00f6b79f00d4
:1029900087bf9f006df807000005be000001be0064
:1029a0005fb29700efb297000400be005ef8070028
:1029b0000001be000c00be0064f80700008fbe00de
:1029c0008a8cbe007fb397008fbb970061035300d2
:1029d000e0835b0064045400e10f5300e08f5b0070
:1029e000d9ff3c009fb19700421cdd00a4f12f00ed
:1029f0000f024200080442003fb59700cfb5970090
:102a00006000b800040037004801be004ff807001e
:102a100061055500e0855d00e10f5500e08f5d0028
:102a2000f9ff3c005fab9700efab9700e00f53005e
:102a3000e08f5b000b003a000fa997005f0a970038
:102a4000ef0a97000499be007f0b97008f13970041
:102a50000689be008fab9700c0039800d103980091
:102a60000d0037005f0a9700ef0a970005f0a200fb
:102a70000fa997000499be007f0a97008f12970054
:102a800005f0a2000489be0001f0a2000fa9970082
:102a900040019800510198009fa99700678061004c
:102aa0004f0778004f06be004f05be004f04be0022
:102ab000af17b100000006000c00fa00889fbe00ae
:102ac0008a9fbe008c1f78000004be006000b80022
:102ad0006011b800f0b79f0081bf9f0092bf9f00b8
:102ae000a3bf9f00f8b79f0089bf9f007fb29700e8
:102af0008fba97001fbb9700afbb9700443ade0028
:102b0000f07f20000006620020432000800f560066
:102b100042003c006011b8000800be00f90b07003d
:102b20000000e0003d0032007fb097008fb89700b2
:102b30001fb99700afb99700e00f5000e08f580021
:102b4000e00f5900e08f590008003d00020020000e
:102b500003b024000800be00f3f7070002002000c5
:102b600003b02400f9f70700070037000200200037
:102b700003b024000800be00f4f7070002002000a4
:102b800003b02400e8f707000801be00e6f70700dd
:102b90000005be00e03f2000800f56000f003c0003
:102ba000dab79f00ebb79f006044b8007fb0970092
:102bb0008fb897001fb99700afb99700e00f50008a
:102bc000e08f5800e00f5900e08f590013003d00de
:102bd0000800200009f82b00100037006011b80031
:102be0000a00be00c90b07000000e0000700340027
:102bf0000a01be000800be00d4f707000200200052
:102c000003f82300c8f70700030037000a01be00dd
:102c10000800be00cdf707000004be000800be009b
:102c20004f0678004f05be004f04be000080fa003a
:102c300000000600889fbe008a9fbe000204780044
:102c4000f93f2000890f54000d00340002002000dd
:102c500003f82700a2f80700f83fb100890f5400dd
:102c6000150034000200200003f827009cf807003c
:102c7000f83fb100890f54000e003c000e003700f1
:102c800029c02f00890f54000b003d006011b800cf
:102c900093f80700983cb000890f540006003d00ef
:102ca0006011b8008ef80700983cb000890f5400fe
:102cb00001003d0009047800f83fb000cfc4de00f9
:102cc000614db9006044b8000801be0084f80700f7
:102cd0004f05be004f04be000000060080017800d2
:102ce00002003700b15978000201e9000200e0005b
:102cf000fcff3a0000000600889fbe008a9fbe00cd
:102d0000800478000200e0005a00320001407800a0
:102d1000814c780082814400f1f99f00e20f51005c
:102d20005400360091449800a1449800e1f99f00b6
:102d3000d1f99f00e60f51004e003600b1449800d3
:102d4000c1f99f00e80f51004a0036000905ea006a
:102d5000630565000a8444000a055100c1ff2f0085
:102d6000010565000080fb008000eb0012102000d0
:102d700013102000930b0700008cbe000a014400d2
:102d800060b99f0071b99f00e80f55003900360007
:102d900020049800310498004004980051049800e1
:102da00020b99f0031b99f0040b99f0051b99f00e1
:102db000f80f55002f003600600498007104980049
:102dc000000c9800110c9800200c9800310c980011
:102dd000400c9800510c980020b19f0031b19f0029
:102de00040b19f0051b19f0060b19f0071b19f0041
:102df00000b99f0011b99f0064016400780141008f
:102e000002044400020555006011b8000203be0030
:102e10000002be000403be006022b8000000720081
:102e20008180720002017300838173000f003700fc
:102e300008027800009abe00029abe00009abe0006
:102e40000292be00000c9800110c9800220c980011
:102e5000330c9800400c9800510c9800620c9800bc
:102e6000730c98000a02b1000802b000ff0f550071
:102e7000efff3e00090078004f05be004f04be0082
:102e8000000006008201780001017800f1ff2700b0
:102e9000000037000f04b0008e1f78000202780097
:102ea000030178000000e000020032000007780013
:102eb000020037000efc2f000f0747008002eb00d6
:102ec0000100e000010032008102e9000f007800fb
:102ed000e003b1001d0009000018eb0000fc2f000a
:102ee0000f00400000a8eb0023102000a3a79f00c4
:102ef000bea79f00c1a79f00d5a79f000100e000cb
:102f000004003d00b004200080f488000080eb0045
:102f100005003700004feb00fea79f00eea79f00c3
:102f200084007800030007004f0778000f04b10009
:102f3000000006000200fa00881f780000047800f4
:102f4000e2bf9f006481570008007800ce010700af
:102f5000980090000148a300010032000080eb00bf
:102f60004f0478000080fa0000000600889fbe0031
:102f70008a1f7800800478004900900002047800dd
:102f8000800f54000100360000047800080178002a
:102f90006a8544001a00780050ff07001a004400b8
:102fa000000d7800e8844400990c14000048eb0000
:102fb0004f0578004f04be0000000600f28747006e
:102fc000889fbe008a9fbe008c9fbe008e1f780027
:102fd00080047800010578000204780083057800f9
:102fe0006107620002003a008b0f540008003900ac
:102ff000080178008a00780009007800ea030700d9
:103000008b0f540002003900880578001e0037003d
:10301000088655000c017800f00f560001003600bc
:1030200002012000010220007e80570032ff0700cd
:103030008c0678000500370002012000fe80570052
:1030400009007800d8030700f0865600ef8f56007d
:10305000f9ff3e004461de0000ff2f000091b9003f
:1030600002014600fe80570009007800ce030700e9
:103070000e00e00004003a00080178008a007800a1
:1030800009007800c80307000b0078004f0778009c
:103090004f06be004f05be004f04be002f01b10019
:1030a000000006000000050000000500000005000b
:1030b000000178000040eb008080fb008180400030
:1030c000e3e2210063c278000404e00003003a0058
:1030d000f0e2210060c07800000006009201780054
:1030e000934f520004003a00f0e2210060c07800e3
:1030f0000309e800010037000040e800ea4f5000f3
:10310000edff360000000600f6874700889fbe00ee
:103110008a9fbe008c9fbe008e1f780080047800be
:103120000104780083057800040678000000eb00b5
:10313000c0b79f008080eb00d1b79f00e0b79f0031
:10314000f2b79f000008200080bf9f009800780021
:10315000010078000005eb00010037000a05e800d7
:10316000304178000204e0000300320053c2b30093
:10317000834f5100f9ff3a000a00e00004003200da
:103180000a0178000900780087030700180c450041
:103190001807780050c2b3009e4f100033013a0068
:1031a0000e07e8000e0c780010003700cfb0970033
:1031b0000100a0000b003700cfb097000110a00065
:1031c00008003700cfb097000120a00005003700ad
:1031d000cfb097000130a00002003700cfb09700b9
:1031e0000140a000c1b79f00000ce8001800780063
:1031f00090407800b2c2b30082cf5000f1ff32009d
:1032000007003c0002c2b30082cf5000f0ff320042
:1032100032c2b30082cf500007003a00efff370000
:10322000d2c2b30082cf5000e0ff320002c3b3002d
:1032300082cf5000e0ff3200a2c2b30082cf500024
:103240000d003a00000ce8001c80e900000e780038
:1032500010007800e0b79f000000e0000f003d0084
:10326000cfb097000100a200c1b79f000000ea00a4
:10327000e0b79f0009003700ed080700e0b79f00a6
:1032800001003700000ce800180078009000fb00f7
:103290000103b100e98f5000faff36004fb09700ec
:1032a0000008a300020032000010a100c0b79f0078
:1032b00018007800e1c2b30090cf100016003a0069
:1032c0008000eb00d1b79f000000e800000c780000
:1032d000a1c2b30090cf100006003a00000ce80035
:1032e0001c80e900000e780010007800d0b79f0025
:1032f00009003700ce080700d0b79f000100370053
:10330000000ce800180078009000fb000103b100f9
:10331000e98f5000faff36000800780064ff0700cc
:1033200080467800180078001000fb00e6080700cf
:1033300091062000810f50003800320012003c003e
:1033400041062000810f5000340032000a003c008a
:1033500011062000810f50002000320031062000ad
:10336000810f50009a00320051022000810f50005e
:10337000ae003a00a700370071062000810f500010
:10338000aa003c008200370001072000810f500096
:103390005c00320007003c00e1062000810f500075
:1033a00074003200f1062000810f50009f003a00a7
:1033b0003900370051072000810f500027003200ec
:1033c00081072000810f50004200320031072000a9
:1033d000810f500095003a00850037008d80fb007a
:1033e0000c01780000fe2f000f004000bd08070010
:1033f0000000e0009c00320018007800000ce8009b
:103400009041780002fe2f000f014100f880570024
:1034100009007800480307000e0037008d80fb008c
:103420008c0178001200200000fe2f000f004000e9
:10343000cb0807000000e0008b003200180ce80009
:1034400002fe2f000f014100f880570009007800ac
:10345000ba00070000054500840037008d80fb009e
:103460008c0178000001eb0000fe2f000f004000ef
:10347000bb0807000000e0007b003200180ce800e9
:1034800002fe2f000f014100f8805700090078006c
:10349000b4010700efff37008d80fb008c0178003e
:1034a0000001eb0000fe2f000f004000ac080700f9
:1034b0000000e0006c003200180ce80002fe2f0053
:1034c0000f014100f880570009007800f400070060
:1034d000e0ff37008d80fb008c0178000001eb00dd
:1034e00000fe2f000f0040009d0807000000e000d4
:1034f0005d00320018007800000ce8009041780070
:10350000160037008c0178000001eb00010f20004d
:1035100000fe2f000f004000910807000000e000af
:1035200051003200180ce8000fb097009fb09700d0
:103530002fb19700bfb19700e00f5000e08f580007
:10354000e00f5900e08f590003003a008001eb00c2
:1035500082e221004000370083c7b30002fe2f0043
:103560000f014100f880570009007800a60107000c
:10357000b8ff37000b0145008d80fb008c017800ff
:1035800000fe2f000f004000ce0807003600370075
:103590008d80fb000c01780000fe2f000f00400022
:1035a000500807000000e0002f00320018007800eb
:1035b000000ce8009041780002fe2f000f0141004e
:1035c000f8805700090078006d050700a1ff37005b
:1035d00000c8b30080cf560023003a00180ce80062
:1035e0001c80e900000e7800104078000d003700c4
:1035f00000c8b30080cf56001b003a00180ce8004a
:103600001c80e900000e78008001eb0010017800ba
:103610001100370001c8b30081cf560012003a00f4
:10362000180ce800e0df9f000800370050c2b3002c
:10363000e0df9f000e0c78000000eb00c0b79f0099
:10364000e0b79f008080eb00d1b79f0013002000ff
:10365000e2fd2f000f014100f880570009007800bb
:10366000c40007007bff3700180ce8000a00780050
:103670004f0778004f06be004f05be004f04be0046
:103680006f01b100000006008200fa00889fbe00b2
:103690008a1f78000005780082047800c13f9f00ef
:1036a0000004eb0010003700090278008801780060
:1036b000a2f72f000f01410081f72f008f804000fb
:1036c0000a00780090fe070008004000880f5000b4
:1036d00004003d00b004200080f488000084eb006a
:1036e00004003700000478004f3897001004e00011
:1036f000edff3a00080078004f0578004f04be0047
:103700000080fa00000006000000fa00cfb8970021
:1037100068815700e0ed800010007800df010700ad
:103720000080fa0000000600040007005c000700ab
:103730000c010700340107008e003700ec874700ba
:10374000889fbe008a9fbe008c9fbe008e1f78009f
:103750000006780001047800180790002805900002
:1037600098067800cdb79f00b80590003202be00e1
:103770002203be000400be000601be004f18de009a
:103780006011b8008000eb00d0b79f00e1b79f0048
:10379000f2b79f0083bf9f00800478000900e0001b
:1037a000060032006000b8006011b800040250004a
:1037b0008582580006035900878359000e00e000f7
:1037c000020035000d10a100cdb79f000900e000f8
:1037d00005003a004fb097000028a30002003a000d
:1037e0000038a300020032008a00e900010037001f
:1037f0008a007800f8815700a200200008007800b5
:10380000860007000900e00003003a00cfb09700ef
:103810000128a300080032000000e90000814500f3
:10382000b1c2b3000900e00001003200d1c2b30010
:1038300001497800050037000138a3000300320079
:103840000000e90001c2b3008175780048019000d2
:103850000201e90000015100808045004fb297004d
:103860008a0178000c007800d4fd07009c009000cd
:103870000188a3000400320098009000810f5000de
:1038800001003d00010078004f0778004f06be00a0
:103890004f05be004f04be00cf00b100000006007f
:1038a0000200fa00889fbe008a9fbe0000057800d3
:1038b000010478000200780018019000a80590002b
:1038c00098007800b1bf9f00b80490000200e000ab
:1038d000020035000110a100b1bf9f00ea8157002e
:1038e000820020008b0078003002be002003be0062
:1038f00008007800490007003fb99700f000610018
:10390000030032000000e90001c3b30081747800b5
:103910003fb99700e8006100030032000000e900b1
:1039200001c2b30081747800480190000201e900ef
:1039300000015100808044003fba97008b0178005d
:103940000a0078009dfd07009a0090000188a300fe
:103950000400320098009000810f500001003d00eb
:10396000010078004f05be004f04be000080fa0041
:1039700000000600ea874700889fbe008a9fbe00bd
:103980008e1f7800000478000300780072875700cb
:1039900084e2260055c72600049fbe00c39622007d
:1039a000030f78006c875700004feb001105900063
:1039b000a1049000910578000200e00002003200ae
:1039c0000207780001003700728757000000e0000e
:1039d00002003a000e007800450107000a00e000ee
:1039e000030035008a0f5000010036000a007800fd
:1039f0000b02780089017800000178008e007800c1
:103a0000080078006dfd07004f0778004f05be00e5
:103a10004f04be00af00b10000000600f48747006d
:103a2000889fbe008a9fbe008c9fbe008e1f7800bc
:103a30000605be000404be0081bf9f0082b79f0040
:103a4000f3b79f00b0009000e1b79f00130178002a
:103a500092b79f0090069000400690000c06e90087
:103a60000d00e00001003d001d002000efb19700b7
:103a70000c8041000048eb001e0020001f003700b2
:103a80000c06e9000fb09700cf80de006109b90095
:103a9000a0b79f00b1b79f00c2b79f00d3b79f00e8
:103aa0000203be000002be000800be000a01be0004
:103ab000c60b070000077800efb097000c804000ad
:103ac00003c3b300034847008d06e9000fb8970011
:103ad0000000e90080bf9f002fb29700bfb297009f
:103ae0004fb39700dfb397000800be000a01be0085
:103af000af0b07000205be000004be000c00e00092
:103b00000d003200e00f5400e08f5c00e00f5d001c
:103b1000e08f5d00daff3a000d00e000d8ff3c00c6
:103b20008fb897000100e000030034001fb1970038
:103b30000218a300d2ff3a000e00e00002003a0093
:103b4000ffb197001340a1000c0078004f077800e8
:103b50004f06be004f05be004f04be004f01b1002e
:103b6000000006000200fa00889fbe008a9fbe0087
:103b700080047800010478000200780018019000a9
:103b80002805900098007800b1bf9f00b80590000c
:103b90000200e000020035000110a100b1bf9f004b
:103ba000ea815700a20020008a0078003002be009f
:103bb0002003be000800780098ff0700480190002d
:103bc0000201e90000015100808045003fba9700e2
:103bd0008a01780009007800f8fc0700990090003d
:103be0000188a3000400320098009000810f50006b
:103bf00001003d00010078004f05be004f04be00eb
:103c00000080fa0000000600fa874700889fbe0087
:103c10008a9fbe008c9fbe008e1f780080047800b3
:103c200001047800820578001801900028059000b2
:103c300018077800b80090000200e000020035008c
:103c40000e10a10001003700120020007000670074
:103c5000e0b79f00090032003b02be002b03be000c
:103c6000e00f5200e08f5a00e00f5b00e08f5b0036
:103c7000020032008a86e900010037008a067800d7
:103c8000e8026700f5b79f00010032008d06e900e9
:103c90003b02be002b03be00e4af9f00f5af9f00c8
:103ca00086b79f0097b79f00480690000c06e90072
:103cb0000c8040000048eb00efb297007fb2970005
:103cc0008903780081047800d8af9f00020478004f
:103cd0008bbf9f008a057800034578002a003700d3
:103ce0000c06e9006fab97006f006300e90f50000e
:103cf00002003c000003b000010037007005b00076
:103d00000a03fb001604b100f90f53000c003e003b
:103d1000000378000650a0001606b100f90f53000a
:103d200007003e00b4b79f00a5b79f00c7b79f002c
:103d30001e070700cfb39700afb297003fb29700be
:103d400080747e000804e9008d06e9006fa89700e2
:103d5000ffa897000fb197009fb197004600200081
:103d60008301d1000281d3008180d3000080d30081
:103d70000603e900faff3a00e0af9f00f1af9f00b1
:103d800082b79f0093b79f00e10f56000f003600e7
:103d90006fa89700ffa897000fb197009fb19700f9
:103da000e00f5000e08f5800e00f5900e08f5900fd
:103db000cbff3a000800e000c9ff3c000d00e00026
:103dc000020034000e18a300c5ff3a0089007800f5
:103dd000f4b79f00870478005fac97008a417800b1
:103de0000b0578008fbd97000500e0001000320041
:103df0003b02be002b03be00e4af9f00f5af9f0067
:103e000086b79f0097b79f00e00f5200e08f5a00df
:103e1000e00f5b00e08f5b00050032000c06e9005c
:103e200083707e000c06e90000c3b30080707e0042
:103e3000ffb297000500e000030032000c06e90025
:103e400000c2b30080707e00480190000201e900ca
:103e50000c0151008c8040000e0278008a0178002d
:103e60000900780055fc0700990090000188a30024
:103e70000400320098009000810f500001003d00c6
:103e8000010078004f0778004f06be004f05be00c6
:103e90004f04be00af01b100000006000200fa00ae
:103ea000881f780000047800e2bf9f0064815700fb
:103eb00008007800f4fd0700980090000148a30076
:103ec000010032000080eb004f0478000080fa000f
:103ed000000006000000060020dc210000000600b3
:103ee000fdff070000ee8800f0ed880000000600ee
:103ef00080007800040037003104e00002003a003e
:103f00000000510000000600010178000108a30034
:103f1000f9ff3a008101780031017800f4ef2f00b9
:103f2000020242000281ea00020162000408280045
:103f300004016100f7ff320083007800010178007e
:103f40003104e000fdff3a000000510000000600cf
:103f5000889fbe008a1f7800800478004900900086
:103f600002047800800f540001003600000478003d
:103f7000080178006a8544001a00780057fb0700a2
:103f80001a004400000d7800e8844400990c1400e5
:103f90000048eb004f0578004f04be00000006000b
:103fa0001000780051f23700900190000388a300c0
:103fb00001003200e6ff37000348a30001003a0089
:103fc000f7ff070000000600889fbe008a1f7800e8
:103fd00000047800010578000000eb000800e00014
:103fe0001a003200180090000058a3000c003200a4
:103ff000ea04440068009000990f100008003600a1
:10400000b80990000001eb008200780008007800f9
:10401000030001000080eb001900e0000b003200fb
:10402000740044000008eb006c0044000008eb0042
:104030006a0044000008eb000000eb000a00e0000a
:1040400002003200180078001cf207004f057800cb
:104050004f04be0000000600889fbe008a1f780043
:104060000004be000000eb000800e0002900320060
:10407000180090000058a300120032006a054400a6
:10408000680090009a0f100008003600b8099000f0
:104090000001eb00820078000800780003000100b6
:1040a0000080eb001a00e0001a00320074004400a7
:1040b0000008eb006c0044000008eb006a004400bc
:1040c0000008eb00780a900008109000800f520062
:1040d000060031000002520011002000cfa2de00d5
:1040e000612bb90018007800e5f1070000022000fc
:1040f000080040000008eb007e0044000008eb00d0
:104100000000eb000900e000020032001800780017
:10411000eaf107004f0578004f04be0000000600da
:104120000101780080007800e0ed80001000780048
:1041300080fb370000000600ef03b000889fbe0040
:104140008a9fbe008c9fbe008e1f7800c09f9f007c
:104150008346780001007800b0017800f3a79f0043
:1041600010007800f09f9f0021029000d4a79f00cc
:10417000c1029000b59f9f00310790003204be003d
:104180002205be00d8b79f00e9b79f00fab79f008d
:104190008bbf9f006022b8006033b8000800be00eb
:1041a0000a01be00330607000000e0000b003d00de
:1041b0005fb09700efb097007fb197008fb997007d
:1041c00003f0a200d0b79f00e1b79f00f2b79f00b5
:1041d00083bf9f00d0c2b30004003700ffa0970048
:1041e0000128a30008003200b0c2b300004f7800dd
:1041f0005fa197000201e900e2a79f0013002000e1
:1042000083af9f000f0037007fa297000438a30000
:104210000800320000c2b300004f7800dfa2970010
:104220008502e900e5a79f001600200086af9f00e9
:1042300004003700dfa39700e7a79f000004eb000e
:1042400088af9f005fb09700efb097007fb19700f5
:104250008fb99700b7ff0700f4ff2f00f5ff2f007d
:10426000f6ff2f00f7ff2700040260008582600040
:1042700006036100878361006000b800020020002f
:1042800003ff27000020e10001a8e10002b0e100e7
:1042900003b8e1000b003a008d06fb001d04b100dd
:1042a0008fac97000900470001e72100f98f560005
:1042b0000100360041e72100c305070040e7210067
:1042c0001d0237000020e10001a8e10002b0e1007a
:1042d00003b8e1000b0036008d06fb001d04b100a1
:1042e0000fad97000a00470081e72100f98f5600c3
:1042f00001003600c1e72100b3050700c0e7210037
:104300000d02370000c3b3008fad970000f77d00aa
:104310000b00e800000147008d00fb00f3fb2f00bd
:1043200083814000d39f9f0081c7b300f98f510064
:1043300001003e0081c5b300014978000000e8009b
:1043400080af9f006022b8006033b8005fb0970074
:10435000efb097007fb197008fb99700c5050700b0
:104360000000e0005e0032000002eb006044b80094
:104370000a0020000bff230098a79f00a9a79f0019
:10438000baa79f00cba79f0004067800050037005e
:104390000c06e8001fac9700afac97003fad97004c
:1043a000cfad97000802be000a03be000800be00a1
:1043b0000a01be000f0607000002be000203be0095
:1043c00094af9f00a5af9f00b6af9f00c7af9f00ff
:1043d0005fb09700efb097007fb197008fb997005b
:1043e000a40507000000e000e9ff3d009caf9f002e
:1043f0002a0037006022b8000600200007fe2300d4
:104400000800be000a01be00f40607006022b800e2
:104410006033b800970507000000e00016003a007e
:104420006022b80006002000073524000800be0006
:104430000a01be00e90607000004be000205be0036
:104440006022b80006002000073524005fb0970006
:10445000efb097007fb197008fb99700df06070094
:104460000002be000203be00d4b79f00e5b79f0064
:10447000f6b79f0087bf9f006022b80006002000ab
:1044800007fe23000800be000a01be00d306070095
:104490000004be000205be000c06e9000802be00d2
:1044a0000a03be005fb09700efb097007fb197009e
:1044b0008fb997006f0507000000e000cdff3500c1
:1044c0000800be000a01be0090a79f00a1a79f00a0
:1044d000b2a79f00c3a79f009caf9f0009003700b1
:1044e0008000eb0091af9f006022b8000600200022
:1044f00007ff230094a79f00a5a79f00b6a79f00d2
:10450000c7a79f00ff9a9700800120000500e000e8
:10451000010035007f9897000000e800e09f9f00b1
:104520001fa49700afa497003fa59700cfa59700c1
:1045300098b79f00a9b79f00bab79f00cbb79f005d
:104540005fb49700efb497007fb597008fbd9700d9
:104550000006eb003a0037001fb29700afb2970099
:104560003fb39700cfb397000800be000a01be001a
:10457000eb050700770907000002be000203be003a
:10458000d4af9f00e5af9f00f6af9f0087b79f00b5
:10459000600507008002780085a79f001fb2970082
:1045a000afb297003fb39700cfb397005fa89700d3
:1045b000efa897007fa997008fb1970087060700a3
:1045c0000002be000203be000800be000a01be00d9
:1045d000820507000004be000205be006022b8008c
:1045e0000600200007fb23001fb09700afb0970024
:1045f0003fb19700cfb19700780607000002be00d8
:104600000203be0094b79f00a5b79f00b6b79f00f6
:10461000c7b79f000c06e800ff9a97000500e0006e
:1046200007003d006022b8006033b8000800be00fb
:104630000a01be000f0507000000e0000400320080
:104640006f9b9700860f5600c3ff350001003700af
:10465000ec9f9f006022b8000600200007022400a3
:104660001fb09700afb097003fb19700cfb1970050
:104670005a0607000002be000203be0094b79f0066
:10468000a5b79f00b6b79f00c7b79f000800be0040
:104690000a01be00f70407000000e0000d0035002d
:1046a0001fb29700afb297003fb39700cfb3970008
:1046b0000800be000a01be00ee0407000000e00092
:1046c00011003a008fa297000508a30008003200ed
:1046d0000d0037006044b8006055b80098b79f00df
:1046e000a9b79f00bab79f00cbb79f00060037005d
:1046f0006000b8006011b80090b79f00a1b79f009c
:10470000b2b79f00c3b79f001fb29700afb2970028
:104710003fb39700cfb397005fb09700efb097001b
:104720007fb197008fb99700320507000002be00e5
:104730000203be0094b79f00a5b79f00b6b79f00c5
:10474000c7b79f007bfe07000203be000002be0049
:10475000f0ff2f00f1ff2f00f2ff2f00f3ff2700e3
:1047600000046200818462000205630083856300a7
:10477000d8b79f00e9b79f00fab79f008bbf9f0093
:104780006000b8000200200003ff27000040e100a5
:1047900001c8e10002d0e10003d8e100befe320012
:1047a000efa497008986e9000fae97000005eb00a3
:1047b000dab79f008aa79f00daaf9f006c0037002e
:1047c0001fa29700afa297003fa39700cfa3970027
:1047d0001fb09700afb097003fb19700cfb19700df
:1047e0004f050700db0807000004be000205be00fd
:1047f000c8040700800078000100e00007003a00cc
:104800005fa897000000e00004003200dfb09700ce
:104810008100e800e1a79f002e0037000fa197005c
:104820000200e00009003a00dfa997000300e00061
:1048300006003200e0c2b30000777e000c06e800fc
:104840008d06e9001400200084a79f000c0147009a
:10485000dfb29700e5a79f0005007800030037004e
:1048600003c3b300035978000000e9000000e00032
:10487000fbff3a00e0a79f005fb3970006064600e3
:10488000e98f500003003c000003200001004000bd
:10489000020037007005200001004000df9b9700f8
:1048a000f98f530006003e00800078000150a00000
:1048b0001106b100f98f500001003e003b040700d3
:1048c00000777e000c06e800dfb097000180ea0068
:1048d000808646001fa29700afa297003fa39700d3
:1048e000cfa397000800be000a01be00bb05070069
:1048f0000002be000203be001fb09700afb09700d9
:104900003fb19700cfb19700b40407000002be008a
:104910000203be0094b79f00a5b79f00b6b79f00e3
:10492000c7b79f006022b8000600200007fb2300e5
:104930001fa09700afa097003fa19700cfa19700bd
:10494000a60507000004be000205be0098a79f0050
:10495000a9a79f00baa79f00cba79f00dfac970035
:104960008904e900d9af9f006fa59700dab79f00cf
:10497000dfad97000b00ea00ef989700810f500021
:1049800004003d003f99970065005100800f5600dc
:104990008bff39008fa197000300e0001a003a0056
:1049a0005fb297000400e00070003400ff9a9700a7
:1049b0000500e0006d0034007fa397000608a30007
:1049c0006a003a008c004700e0c2b30080487800db
:1049d0000c06e8000400780002c3b3008268780087
:1049e0000000e900fcff3a00dfb39700070646002d
:1049f0008d06e9008786560003003700e0c2b30049
:104a000000777e000c06e8000c0047000048eb0031
:104a10003f9c97008800e900010147000049eb0036
:104a20008001eb009fac97000900e00003003d000f
:104a30008904ea0099af9f001300200012002000b3
:104a40001faa970081037800000478000a0037004d
:104a500081037800a5002000110009000502d8009c
:104a60000002be000703470009c3b30009cb4200a0
:104a70000201e9008d06e9008700e9000400e0007a
:104a8000f3ff3a00e10f5100f1ff32000800780017
:104a900001024700b2c2b3000300e000010032008f
:104aa000d2c2b300024a78000101e9008200470047
:104ab00003c7b3005f9d9700f90f550001003e004a
:104ac00003c5b30083487800820f5600010031000f
:104ad000bd030700ffa5970063806500e20f50004b
:104ae00014003a000d84e9004240a900110034008e
:104af0000e007800fefc07008d06e9008086460067
:104b00008d06470002003700ee6678000000e900dd
:104b10008fa89700810f5000fbff31000100470074
:104b2000080178000103200073f807000001eb0082
:104b3000d2a79f000e007800edfc07007fa297002f
:104b4000dfa19700000178008e0078004f98970051
:104b50001af907004f0778004f06be004f05be0048
:104b60004f04be00ef03b10000000600ffa1970054
:104b70000348a300a1ff3a00a3ff3700000006008e
:104b80008f04b000889fbe008a9fbe008c9fbe002d
:104b90008e1f7800809f9f00f19f9f00c3779f002a
:104ba00001007800b0007800e1a79f0010007800b5
:104bb000d0b79f00ff999700a3019000d3a79f0053
:104bc0007f9a970044029000f4979f00ff9a970005
:104bd000b50690003204be002205be006022b80077
:104be0006033b8000800be000a01be00a103070040
:104bf0000000e00003003d000bf0a200d0c2b300b3
:104c0000040037006fa397000628a30008003200b5
:104c1000b0c2b300804e7800dfa397008703e9009d
:104c2000c7af9f0010002000f0a79f000f003700c3
:104c3000efa097000138a3000800320000c2b300c3
:104c4000804e78005fa197000201e900c2af9f008b
:104c500013002000f3a79f00040037005fa2970015
:104c6000c4af9f008002eb00f5a79f000800be00c4
:104c70000a01be00c1ff0700f4ff2f00f5ff2f005f
:104c8000f6ff2f00f7ff2700040260008582600016
:104c900006036100878361006000b8000200200005
:104ca00003ff27000020e10001a8e10002b0e100bd
:104cb00003b8e10010003a004f7397008600fb0034
:104cc0001104b100ffa3970007804600f98f500040
:104cd00002003e0001e821000100370041e8210008
:104ce0003903070040e8210081fc0700ffa097007e
:104cf00001014000140037000020e10001a8e1009c
:104d000002b0e10003b8e100120036004f719700d5
:104d10008200fb001104b100ffa197000380460050
:104d2000f98f500002003e0081e8210001003700a9
:104d3000c1e8210024030700c0e821006cfc070043
:104d40007fa29700040140006fa29700dfa19700a7
:104d5000190237006022b8006033b8000800be00b6
:104d60000a01be00430307000000e00068003200b3
:104d70006000b8000200200003ff230080af9f0006
:104d800091af9f00a2af9f00b3af9f000007eb0061
:104d90000802be000a03be00d4af9f00e5af9f002b
:104da000f6af9f0087b79f00070037000e07e800a7
:104db0000800be000a01be0080af9f0091af9f00b7
:104dc000a2af9f00b3af9f006022b8000600200092
:104dd000470224000fa897009fa897002fa99700cb
:104de000bfa997007d0407000004be000205be00b5
:104df0000002be000203be005fa89700efa8970064
:104e00007fa997008fb197001a0307000000e00008
:104e1000e6ff3d000006eb000fac97009fac97004b
:104e20002fad9700bfad97002500370040ed2f0054
:104e3000800f570019003d000c00e00016003a00fa
:104e40006022b80006002000073524005fa8970004
:104e5000efa897007fa997008fb197005f04070024
:104e60000002be000203be00d4af9f00e5af9f006a
:104e7000f6af9f0087b79f006022b80006002000b1
:104e8000073524000800be000a01be0053040700d5
:104e90000004be000205be001c0020006022b80015
:104ea00006002000470224000800be000a01be00e0
:104eb0009b0307000004be000205be000e07e900c8
:104ec0000802be000a03be005fa89700efa8970083
:104ed0007fa997008fb19700e60207000000e0006d
:104ee000d2ff35000800be000a01be0080af9f005f
:104ef00091af9f00a2af9f00b3af9f005fac970040
:104f0000efac97007fad97008fb597000800370092
:104f10006022b8000600200007ff230084af9f0036
:104f200095af9f00a6af9f00b7af9f000007eb00b3
:104f3000cf7297000500fb00e3010700d0779f00c8
:104f40005fb39700600020000600e000010035001c
:104f50005fb0970071c6b300df73970081cf530035
:104f60000a003a00dfb097000100e0009b01320028
:104f70009b0137008e0f50009f013c00d0af9f0077
:104f800052c6b30082cf9f001e003700df7197002a
:104f900083cf9f000200370064c6b30084cf9f0018
:104fa0000000e800d0af9f0060c6b3008fca970032
:104fb00080cf520013003a000e00e00008003d00d0
:104fc0006000b8000200200003ff230080af9f00b4
:104fd00091af9f00a2af9f00b3af9f000007eb000f
:104fe00061c6b30081cf9f0070c6b3005f719700a8
:104ff000804f510003003200dfa997008e814100ed
:10500000d3af9f000faa97009faa97002fab9700de
:10501000bfab970094b79f00a5b79f00b6b79f009e
:10502000c7b79f000800be000a01be00d0b79f00ae
:10503000e1b79f00f2b79f0083bf9f000006eb001f
:105040000802be000a03be00b49f9f00c59f9f00d8
:10505000d69f9f00e79f9f00310037001fb2970047
:10506000afb297003fb39700cfb397005fb0970000
:10507000efb097007fb197008fb997002803070022
:10508000b40607000004be000205be00a10207002e
:105090008002780085a79f001fb29700afb29700eb
:1050a0003fb39700cfb397000800be000a01be00cf
:1050b000ca0307005fb29700efb297007fb3970073
:1050c0008fbb9700c50207000002be000203be00ae
:1050d00007f0a200d4b79f00e5b79f00f6b79f0086
:1050e00087bf9f006022b80006002000470224000e
:1050f0001fb09700afb097003fb19700cfb19700b6
:10510000070307000002be000203be0094b79f0021
:10511000a5b79f00b6b79f00c7b79f000c06e80071
:10512000dfaa9700850f5600ccff35003f9c970003
:10513000cf9c97005f9d9700ef9d97006022b8007d
:1051400006002000470124001fb09700afb0970071
:105150003fb19700cfb19700a00307000002be0047
:105160000203be0094b79f00a5b79f00b6b79f008b
:10517000c7b79f005fb09700efb097007fb197006f
:105180008fb997003b0207000000e0000f003500d8
:105190001fb29700afb297003fb39700cfb397000d
:1051a0005fb09700efb097007fb197008fb997007d
:1051b000300207000000e00011003a008fa29700c3
:1051c0000508a300080032000d0037006000b80099
:1051d0006011b80090b79f00a1b79f00b2b79f00c1
:1051e000c3b79f00060037006022b8006033b800e4
:1051f00094b79f00a5b79f00b6b79f00c7b79f00a1
:105200001fb29700afb297003fb39700cfb397009c
:105210000800be000a01be00760207000002be00c0
:105220000203be0084a79f0095a79f00a6a79f002a
:10523000b7a79f0050c6b3008fca970080cf520017
:1052400003003a000003eb00d6b79f0001003700cf
:10525000deb79f007fa697000000eb0090b79f008d
:10526000909f9f00b09f9f008e007800e1979f0065
:10527000660037000faa97009faa97002fab9700f0
:10528000bfab97000fa097009fa097002fa197009a
:10529000bfa19700a20207002e0607000004be006f
:1052a0000205be001b02070000017800efa1970075
:1052b0000348a3000c003a000200e0000a003a0094
:1052c00070c6b3005f729700804f520006003a002c
:1052d000dfb297000500e00003003d001fb3970018
:1052e0000607e800200037009f9b97000700e000ba
:1052f0000b003a005fb097000000e00008003d009e
:10530000e0c2b30080767e000c06e800cfa89700cc
:105310008100e900c1af9f0013002000939f9f0010
:105320008c8046001fb797000300370000c3b3000e
:10533000805878000e07e9000e00e000fbff3a00fd
:105340001fb29700040646000c80460005c3b30058
:10535000054841000c06e8000480ea004fab9700c6
:1053600000034300c6af9f000faa97009faa9700b3
:105370002fab9700bfab97000800be000a01be002c
:10538000160307000fa297009fa297002fa3970074
:10539000bfa39700110207000002be000203be0077
:1053a00007f0a20084a79f0095a79f00a6a79f00d3
:1053b000b7a79f006022b800060020004702240023
:1053c0000fa897009fa897002fa99700bfa9970043
:1053d000530207000002be000203be0084af9f001c
:1053e00095af9f00a6af9f00b7af9f00dfb29700b9
:1053f0008502e900d5b79f003f9b97000603e800b0
:10540000b69f9f008e03780097b79f003f98970044
:10541000dfa89700810f500005003d007f9997009d
:105420004200900065005000800f560091ff390047
:105430006f9797009f9997000300e00006003a00dd
:105440006fa297000448a30003003200e0c2b3003b
:1054500080767e000c06e8000c8046000048eb00d9
:1054600051c6b3008fca970081cf520036003a0070
:105470007f9397008600e900018146000049eb0018
:105480008001eb000e00e00002003d000e07ea0084
:10549000130020002200200081037800cfaa97008b
:1054a000000478000b00370081037800a40020007e
:1054b000110009000407d8000102780000077800f5
:1054c0000783460000c3b300004b42000201e9001d
:1054d0008502e9008700e9000e00e000f2ff3a00d3
:1054e0000200e000f0ff3c00c5af9f00080078001c
:1054f00001824600b2c2b3000300e00001003200a6
:10550000d2c2b300024a78000101e900828046005d
:10551000cf7197000302fb001404b10053c6b3001f
:10552000f90f520001003e0053c4b30083487800d5
:105530004faa97000482e900c4af9f00820f560073
:105540000100310020010700efa297006380620094
:10555000e20f500013003a004fab97000600e00046
:10556000100034000d00780061fa070004003700d5
:10557000cfab970087804600ed7078000000e9000f
:10558000ffa19700830f5000f9ff31000380460010
:105590004fa9970001032000d7f507000002eb0098
:1055a000d4a79f000d00780051fa07006fa2970062
:1055b000dfa19700000178008d0078000f98970018
:1055c0007ef607004f0778004f06be004f05be006d
:1055d0004f04be008f04b100000006001000200040
:1055e000e40f470063fe3d00d0af9f0055c6b300f7
:1055f00085cf9f0083fe37000e00e00066fe350079
:10560000d0af9f0076fe37008000780010002000a9
:1056100002022000828f500004003200e980500016
:10562000e48f5000010036000000eb00000006008f
:10563000889fbe008a1f78008004780009047800e3
:1056400088047800394578000a00fb00eeff070067
:105650000000e000f9ff3a00b0c2b300804f5500ef
:1056600005003200d0c2b3008000eb00804f55002f
:1056700005003a00020037008000eb00010037000f
:10568000110020000804e8000000eb0003003700d0
:105690006a02b900020052000003b0003801fb00aa
:1056a00003fd2f0082814100e98f5100f8ff360091
:1056b0000100e00001003a000000ea004f05780018
:1056c0004f04be0000000600f1fb2f008080400068
:1056d000f98f500001003e000050a00000000600bd
:1056e000f9ff3700881f78000004780000082000c8
:1056f000808f50001700350010082000808f500068
:105700000b00340030082000808f500011003a0058
:105710009200780068805000000978003002be00d6
:105720002003be00049cbe000694be0007003700a4
:105730009202780064805200000978001000be00d8
:10574000d1000700009cbe000294be0010002000a3
:10575000010037000000eb004f0478000000060055
:1057600084082000848f50001d0032000d003c0092
:1057700014082000848f50002700320002003c00f3
:10578000040820000400370024082000848f500003
:105790002a00320044082000848f500048003a005c
:1057a0003b003700040a2000848f50002c00320098
:1057b00004003c0004092000848f500040003a009f
:1057c0002d003700020c2000828f50001e00320096
:1057d000020f2000828f500039003a00300037005d
:1057e0009380e9000200e0000500320081097800a2
:1057f0001102fb00cfa2de00612bb9002d003700a3
:1058000081097800114278000482fb008002eb00dd
:105810006033b8002700370013027800e40052001c
:105820000200e0000a003200810978001102be0087
:105830004fabde00860378001e003700930278002d
:10584000e88052000e00370093027800e480520096
:10585000810978001102be006033b80015003700de
:105860009380e9008109780011027800cfa2de0060
:10587000612bb9000f00370013037800e8005300d4
:10588000810978003102be002103be000900370003
:105890009380e9000200e00002003200f1ff3700cf
:1058a0009380e90081097800110278008002eb0002
:1058b0006033b8000498be000690be0010000500da
:1058c0000000050044082000848f500027003200ab
:1058d0000a003c0014082000848f50001c00320095
:1058e00024082000848f5000260032000408200085
:1058f000848f50002c003a001c003700040920005f
:10590000848f50001f00320004003c0084082000f7
:10591000848f500024003a0007003700040a20005a
:10592000848f500011003200040c2000848f50003e
:105930001d003a00060037009380e90081097800d5
:10594000910078000108780082487800150037003f
:105950009380e900810978009100780001087800bf
:10596000cf91de008288be000e0037009380e900f0
:105970008109780091007800010878008208780099
:10598000080037009380e9008109780091007800d1
:10599000010878006112b900612bb9008498be003b
:1059a0008690be001000050000000500f1f92f00f0
:1059b00080804000f98f500001003e00f005b200e9
:1059c00000000600f9ff3700881f78000004780007
:1059d0000800780007000700080078004f047800ee
:1059e00000000600000006003df90700fdff07006b
:1059f000fcff370001017800800178000082680018
:105a00000408a3000500320013003700324078007c
:105a1000805978000004e00014003200030278008e
:105a20000208a300f9ff3a000300780001003700e4
:105a30000318780082007800b2017800f5ef2f009b
:105a4000838242000382ea00048262000508280083
:105a500005026200f6ff3200000278003141780052
:105a6000025878000204e000fbff3a0004007800ce
:105a7000000006008f1fd100790207008f87e90020
:105a80000000e000000006008103780001ec070040
:105a90000001be006000b8000478a30013003a00c3
:105aa0006220e10015003e000d0039008301d100a5
:105ab0000281d3008180d3008301d1000281d30011
:105ac0008180d3008301d1000281d3008180d30083
:105ad0000538b000c42add00f300b20083817200f3
:105ae00007f0a70003f0a0000000060083ff2700d6
:105af000020020006110b900f9ff370003ff270002
:105b0000f7ff370014002000d0023700f4ff2f0009
:105b1000ce0237001400fa00889fbe008a9fbe00a4
:105b20008c9fbe000004be000205be006800470056
:105b30000a90be000890be00840207000070a70013
:105b40000bf0a100304320009e02900080825200a2
:105b5000b0fe2f000028e10011003d00b0fc2f0036
:105b60000028e100150034001e0990008e08900006
:105b70007e0090000501b0000201d1008180d300b9
:105b80000080d3008502e800fbff3a000b00e00034
:105b9000a9023b0060001000e0801800a602370058
:105ba000f0ff2f00f1ff27000b00e000a2023b00f6
:105bb00001002800000020009f0237006000b800ac
:105bc0009d023700020ab900001bb9000200b800ac
:105bd0008100420081004300000006008c9fbe004f
:105be0008a9fbe00889fbe00ca0107000bf0a2007a
:105bf000040037008c9fbe008a9fbe00889fbe00b5
:105c0000c40107000c48e1000b003a000c40e10021
:105c1000020032008b010700400037008b066d0048
:105c20003e0032000af0a100f3012000f2ff2f0035
:105c30006110b900390037000c40e1003700320034
:105c40000940e100010036007e0107008a856d00f1
:105c5000cf5dde000b0575000006eb008804fd003b
:105c600089045400010032007d0107000a04e000ad
:105c700011003a000800e000280032000400400053
:105c80008580480006014900878149000358a30028
:105c9000180032008301d1000281d3008180d3003b
:105ca0000080d3000c86d300010039006106760025
:105cb0000804e800180037000400500085805800f0
:105cc0000601590087815900060031000af0a20040
:105cd0000c06ea0060001800e0801800600119005e
:105ce000e081190003003a000004eb000005eb001e
:105cf0000a0037000348a30007003a000c064600dc
:105d00000000480081804800020149008381490069
:105d10000804e900f7ff3700af013700c901370079
:105d20008c9fbe008a9fbe00889fbe00790107003d
:105d30000b056d000940e1000a003a000800e00090
:105d4000020032000c40e10006003a000af0a10017
:105d50000c047800f3012000f2ff2f006110b9005d
:105d60009d0037000c40e1009b0032000800e0007d
:105d7000990032000c48e10002003a000004eb00f8
:105d8000030037000900e00004003a000c0478002a
:105d90006000b8006011b8008f0037000348a3000e
:105da00006003a00000040008180480002014900de
:105db000838149000804e900f8ff37000748a30081
:105dc00006003a000402420085824a0006034b00a6
:105dd00087834b008904e900f8ff3700fd3f20006e
:105de0008d845400090454008a1f7800881f7800ad
:105df00000047800810478000205780083057800ab
:105e00006000b8006011b8000d04200005003700e4
:105e10000804440089844c000a054d008b854d0020
:105e2000080031000404540085845c0006055d0010
:105e300087855d008381d2008d06d300f4ff3b008f
:105e4000070037000404440085844c0006054d001b
:105e500087854d008381d2008d06d300ecff3b0087
:105e60000804440089844c000a054d008b854d00d0
:105e7000080031000404540085845c0006055d00c0
:105e800087855d000281d2008d06d300f4ff3b00c0
:105e9000070037000404440085844c0006054d00cb
:105ea00087854d000281d2008d06d300ecff3b00b8
:105eb0000804440089844c000a054d008b854d0080
:105ec000080031000404540085845c0006055d0070
:105ed00087855d008180d2008d06d300f4ff3b00f2
:105ee000070037000404440085844c0006054d007b
:105ef00087854d008180d2008d06d300ecff3b00ea
:105f00000804440089844c000a054d008b854d002f
:105f1000080031000404540085845c0006055d001f
:105f200087855d000080d2008d06d300f4ff3b0022
:105f3000070037000404440085844c0006054d002a
:105f400087854d000080d2008d06d300ecff3b001a
:105f50000b00e00004003d000404440085844c0074
:105f600006054d0087854d000006eb008301d1003a
:105f70000281d3008180d3000080d3000c86d3003f
:105f80008301d1000281d3008180d3000080d3003f
:105f90000c86d300890474008b0575008b84740013
:105fa00001003200610676004f0478004f0578004a
:105fb0000348a30007003a000c0646000000480012
:105fc0008180480002014900838149000804e900fa
:105fd000f7ff3700000137001a0137008c9fbe0021
:105fe0008a9fbe00889fbe00ca0007000b056d0097
:105ff0008a0578000c40e10008003a000900e00042
:1060000082003a000af0a1000c047800f30120009d
:10601000f2ff2f006110b9007c0037000c48e1004e
:1060200004003a00870007000900e00077003a000a
:10603000f4ff37000800e000740032000900e000bf
:1060400002003a007f00070070003700ed3f20009b
:106050008d845400090444008a1f7800881f78004a
:10606000871f7800861f7800851f7800841f7800be
:10607000cb19dd00c515de008b8571004b11dd00ed
:10608000450dde000a057100cb08dd00c504de0009
:10609000898470004b04dd000440b8000546b80058
:1060a0008c80400060814e00044eb8008c8040001f
:1060b0000d0149008001eb000318ad000456b80043
:1060c0000c0141008d8149000002eb000420ad006d
:1060d0000646b8000c0141008d81490060024a006b
:1060e000054eb8000c0141008d81490060024a0054
:1060f0000556b8008c8141000d024a008002eb0079
:106100000528ad000746b8008c8141000d024a0009
:10611000e0824a00064eb8008c8141000d024a0020
:10612000e0824a004f0678000c5eb8008c81410086
:106130000d024a00e0824a000656b8000c024200f6
:106140008d824a000003eb000630ad00074eb80018
:106150000c0242008d824a0060034b004f0678001b
:106160000c5eb8000c0242008d824a0060034b00b6
:106170000756b8008c8242000d034b008003eb00f1
:106180000738ad004f0678000c5eb8008c824200e4
:106190000d034b00e0834b004f0678000c5eb80007
:1061a0000c0343008d834b004f0478004f057800ab
:1061b0000748a3000a003a00000040008180480020
:1061c000020149008381490004024a0085824a0095
:1061d00006034b0087834b000804e900f4ff3700f7
:1061e0000306780080807000828070000100320019
:1061f0006106760087017800060178008500780046
:106200000400780088047800780037008d0037009b
:106210008c06460002003a000000a60000000600be
:1062200060004800e080480060014900e0814900ca
:106230000350a600000006008301d1000804e80016
:10624000000006000002fd008102fd000203fd00c7
:106250008303fd008804fd008a05fd0000000600a0
:106260007048e1001a0039007d0320000d48e1006c
:106270000a00390081057000830671008c85750065
:106280008d8575000006eb000cd8e70061067600ee
:106290006000b8006011b800000006007048e1001e
:1062a0000b0039008c0578000006780001007800aa
:1062b00082007800030178008001eb0003d8e7003a
:1062c00061067600f0845400f4ff3a0000000600f6
:1062d0006160e1000c48ad00f08514008b06dd0024
:1062e0000966de000d0676008b0edd000900de007b
:1062f0000d0070008b16dd008908de008d807000b7
:106300008b1edd000911de000d0171008919de0010
:10631000000006000d002800fc7f20000d856100b4
:10632000441cde00ef8161000c04640001003200b7
:106330000340a0008d856300c43cde00ef83630052
:106340008c846400010032000740a0000c40e10092
:1063500006003a00ef86610082867600818676002c
:106360008086760001003200180037000c48e100fa
:1063700007003a00ef866300868676008586760001
:106380008486760002003200aeff07000f0037005f
:106390000348a30005003a0081067000828676005b
:1063a00083867600010032000804e8000748a30055
:1063b00005003a008506720086867600878676009c
:1063c000010032008904e80000000600cf047800d4
:1063d000cf0578001b0037000002780081027800aa
:1063e0000203780083037800880478000cf0a7008b
:1063f00087ff0700fd7f20000d40e100040035000d
:106400000d0478006000b8006011b8000d0037007e
:106410000800e0000b003c000400780085007800d4
:106420000601780087017800e18414008cff0700e2
:106430000cf0a70076ff07000004eb000340a70064
:106440000804e8004444dd006fc561008801750060
:106450004f04be004f05be004f06be000000060000
:10646000889fbe008a9fbe008c9fbe000404be00b1
:106470000605be00809fbe00829fbe00210007006f
:10648000040678000800be000a01be001d000700d7
:10649000840678004f03be004f02be008d4f760089
:1064a0007fb0970013003300f0ff2f008b8f6b003d
:1064b00006003b000d0666000c00a7000a0037002e
:1064c00007f0a600100020000a003700880f5200d5
:1064d000898f5a008a0f5b008b8f5b0003003900a5
:1064e0001000200001003e000000200007f0a7007f
:1064f0000000ea004f06be004f05be004f04be007c
:106500000000060005ff2700058261000700320039
:106510000428e10001003200240005000600070005
:1065200001003a00440005000408050002000700cd
:10653000f9ff3a00140005006f82610081027000cb
:10654000850271008502720000000600800078005c
:106550005002be005003be004439de00f700b20016
:10656000f37f200003016100090032000218e100fe
:1065700016003a0085017200830173008381730065
:106580000008200015003a004000200013003700ea
:1065900085017200830173008381730005003a0056
:1065a00004a8be0006a8be00100020000b003700a3
:1065b0000201e9000402420085824a0006034b0002
:1065c00087834b000748a300f9ff32000740a00073
:1065d00004a8be0006a8be0020002000800098008d
:1065e0009200980000000600680447000294be0074
:1065f0000094be00fc0447008694be008494be0054
:1066000009007800d1ff070008007800cfff0700dd
:1066100099007800814f70000b003b000800be001d
:106620002d0007004f00b10003003700f3ff2700e3
:10663000f2ff2f006110b9004f06be004f05be00eb
:106640004f04be000080fa0000000600889fbe00d4
:106650008a9fbe00841f7800170007004f00780053
:1066600011003300f0ff2f00838f6c0006003b0009
:10667000040565000a00a7000800370009f0a6001d
:106680001000200008003700820f5400838f5c0048
:10669000030039001000200001003e00000020002f
:1066a00009f0a7000000ea004f05be004f04be003d
:1066b0000000e000000006000004be00f5e807004e
:1066c0000003be000405be000200be00f1e80700a2
:1066d000844f750000000600e48240001078a3009b
:1066e00007003200640240001178a3003400be00ad
:1066f0001401be00040032000330a70000000600b1
:106700003500be001501be000330a00000000600e9
:1067100000c0da000000060000c0da000000060039
:1067200000c0da0000000600889fbe008a9fbe00fd
:1067300030044200b0844a0030054b0090854b0085
:106740006000b1000898be000a90be000440e1005d
:1067500005c8e10006d0e10007d8e10002003100e1
:10676000680040001008e8004f05be004f04be005e
:1067700000000600889fbe008a9fbe003004be0055
:106780002005be000418540005985c0006185d0042
:1067900007985d00110020000440e10005c8e100f9
:1067a00006d0e10007d8e100010039008000eb00cd
:1067b000108810004f05be004f04be000000060008
:1067c000f4874700889fbe008a9fbe008c9fbe0052
:1067d0008e1f7800d0b79f00e1b79f00f2b79f00ef
:1067e00083bf9f000605be000404be00cfae970025
:1067f0000000eb00c0b79f00b0b79f00a0b79f009c
:1068000090b79f0080b79f00000678004fb09700b8
:10681000000140000000e00006003d003c000700d1
:106820000f074700450007000f004000beff0700ac
:1068300005003700360007000f0747003f0007003c
:106840000f004000cbff07004fb797000e00e0009d
:106850000c0035005fb29700efb297007fb397004e
:106860008fbb970010002000010020006011b800cd
:10687000000272008182720002037300838373003e
:106880001c0007000c06e80001042000810f5600e0
:10689000deff3a000e00e00005003d000802be00e9
:1068a0000a03be0000fe2f000f0040009eff0700fd
:1068b0000d00e00005003a000fb297009fb297006c
:1068c0002fb39700bfb397000a0007005fb097008f
:1068d000efb097007fb197008fb997004f0778000e
:1068e0004f06be004f05be004f04be004f01b10071
:1068f00000000600010007000000060094b79f009a
:10690000a5b79f00b6b79f00c7b79f00000006005d
:106910009fb097004f08de0002017000a2b79f00f1
:106920000fb097004f01de008180400081007100b0
:1069300091b79f000efe2f0000000600de007800d9
:106940004f09de00000040000000710080b79f008a
:106950006fa897004f01de0081804000010f710099
:106960000e0007004f3ade000000400004007000f7
:10697000e0af9f00090007000402420085824a0040
:1069800006034b0087834b00dcff07000802be00b4
:106990000a03be0000fe2f00000006001fb2970091
:1069a000afb297003fb39700cfb397000000060047
:1069b000881f780018002000881f780080ff0700db
:1069c0008f87e9004f04780000000600801feb006d
:1069d0007bff07008f87e90000000600889fbe004c
:1069e0008a9fbe00e00f5000e08f5800e00f590072
:1069f000e08f59000c003d006044b8006055b800bd
:106a00000000540081805c0002015d0083815d0014
:106a1000180020001500070008003d0018000700be
:106a20000004eb00050037000004eb000f00070036
:106a300002003d001200070018002000dcff0700e4
:106a40000800e000060032006022b8006033b800a1
:106a50000000520081805a0002015b0083815b00cc
:106a60004f05be004f04be0000000600e00f5200bc
:106a7000e08f5a00e00f5b00e08f5b000000060033
:106a80006044b8006055b8000402540085825c0080
:106a900006035d0087835d0000000600889fbe003e
:106aa0008a9fbe008c1f7800e00f5000e08f5800d6
:106ab000e00f5900e08f59000d003d006044b80020
:106ac0006055b8000000540081805c0002015d0048
:106ad00083815d001c0020000820e10009a8e1007e
:106ae0000ab0e1000bb8e1000d003d0008003700de
:106af0000006eb00e00f5200e08f5a00e00f5b0051
:106b0000e08f5b0006003d006044b8006055b800af
:106b10000402540085825c0006035d0087835d00eb
:106b2000aaff07000c00e000060032006022b80057
:106b30006033b8000000520081805a0002015b00ff
:106b400083815b004f0678004f05be004f04be00f6
:106b5000000006001800fa00889fbe008a9fbe0051
:106b60008c1f78000004be000205be000802be00b3
:106b70000a03be00443ade00f07f200000066200f7
:106b800020432000800f560067003c006022b800c0
:106b90006033b8000800be00b6fb07000000e0004c
:106ba000610032000802be000a03be00b4b79f00b5
:106bb000c5b79f00d6b79f00e7b79f00e00f520010
:106bc000e08f5a00e00f5b00e08f5b000b003d00a0
:106bd0006022b80006002000073324000800be0031
:106be0000a01be00fdfb07006022b800060020007d
:106bf00007332400fffb07000a0037006022b800bb
:106c000006002000073324000800be000a01be0071
:106c1000f8fb07006022b8000600200007332400bc
:106c2000eefb07000802be000a03be00ebfb0700f4
:106c30000002be000203be00f4b79f0085bf9f00a4
:106c400096bf9f00a7bf9f00e03f2000800f560027
:106c500017003c007fb097008fb897001fb99700ce
:106c6000afb99700f0af9f0081b79f0092b79f0028
:106c7000a3b79f006044b8006055b8003fb29700ca
:106c8000cfb297005fb39700efb39700e00f5200c9
:106c9000e08f5a00e00f5b00e08f5b0022003d00b8
:106ca0006044b8000a0020000bff2b001e003700d4
:106cb0006022b8006033b8007fb097008fb89700ab
:106cc0001fb99700afb997001e0007000000e00051
:106cd0000c0034007fb297008fba97001fbb97005b
:106ce000afbb97000800be000a01be00c1fb070051
:106cf0006022b8000600200007ff2300b7fb070052
:106d0000070037007fb297008fba97001fbb97002c
:106d1000afbb97000800be000a01be00b5fb07002c
:106d20000004be000205be000800be000a01be004d
:106d30004f0678004f05be004f04be000080fa00e9
:106d400000000600809feb00c5fd07008f87e9006b
:086d50000000e0000000060055
:020000040000fa
:106d58001200fa00f000470080087800e3004700be
:106d680002572f000b000900b258780050c3b30037
:106d78000000fb004400dd008040780010c3b30031
:106d88006f40600000c070008040780070004700cd
:106d980010007800670040000148780020c3b30065
:106da8000000fb004400dd008040780040c3b300d1
:106db8006f40600000c0700080407800700047009d
:106dc80010007800660040000148780020c3b30036
:106dd8000000fb004400dd008040780030c3b300b1
:106de8006f40600000c0700080407800700047006d
:106df80010007800650040000148780020c3b30007
:106e08000000fb004400dd008040780080c3b30030
:106e18006f40600000c0700080407800700047003c
:106e280010007800630040000148780020c3b300d8
:106e38000000fb004400dd008040780020c3b30060
:106e48006f40600000c0700080407800700047000c
:106e5800100078000000e80001487800f0c4b30092
:106e68000000fb00a1042000810f50001e0032002a
:106e7800a1042000810f50000a003c0041042000ba
:106e8800810f50006c00320061042000810f500017
:106e98003500320011042000810f500048003200f4
:106ea80069003700e1042000810f50005e003200c5
:106eb800e1042000810f500004003c00d1042000b0
:106ec800810f50002c0032005f003700f1042000d1
:106ed800810f50005000320031052000810f500012
:106ee800490032005800370030c6b3000000fb00ec
:106ef80011062000810f50000400320051072000c5
:106f0800810f5000050032004f00370011c0b30058
:106f18000e00e800014878001200370040c7b300af
:106f28000000fb00c1062000810f5000080032005d
:106f3800e1062000810f50000100320008003700f0
:106f480061c0b3000e00e800014878000400370073
:106f580071c0b3000e00e80001487800000000008e
:106f6800000000003800370021c0b3000e00e80020
:106f7800014878003400370040c7b3000000fb0028
:106f880021072000810f50000400320091072000e3
:106f9800810f5000050032002b00370031c0b300cc
:106fa8000e00e800014878000400370051c0b30023
:106fb8000e00e800014878000000000022003700b9
:106fc80030c6b3000000fb0001072000810f50000d
:106fd8000400320051072000810f500005003200e4
:106fe8001900370041c0b3000e00e80001487800de
:106ff8000400370081c0b3000e00e80001487800a3
:10700800000000001000370091c0b3000e00e80037
:10701800014878000c00370001c1b3000e00e800f9
:10702800014878000800370011c1b3000e00e800dd
:10703800014878000400370021c1b3000e00e800c1
:107048000148780000000000700047001000780038
:107058000080e8008e00e8001148780060c0b300a6
:10706800004f780070004700100078000000e8002a
:10707800104078000080fb004400de0000407800eb
:107088006a00b9000000780080407800700047006e
:10709800100078000000e800104078006f406000a1
:1070a80080c040000e80e800014878000e80e800ab
:1070b800104078000080fb004200de00804078002d
:1070c8000e80e8001040780000c040001e4f4000cd
:1070d8000e80e80010407800634060000004e00083
:1070e80005003a000e00e80010407800e24f50001a
:1070f80001003e001e4fe9000e00e8001040780035
:107108000080fb000000e900000047006300400029
:10711800104078001e4f40007000470010007800b3
:1071280063004000104078000080fb004400de004f
:10713800004078006a00b9000000780080407800bc
:10714800700047001000780063004000104078008d
:107158006f40600000c040001e4f40009e80fb0052
:107168007000200000017800110009008280d8001a
:107178008000fd00004f7800700047001000780084
:10718800640040001e487800700047001000780036
:10719800104078000004a2000004e0003f00320024
:1071a80070004700100078000000e80010407800e8
:1071b80004020700f0004700910078008100e80011
:1071c8008048780070004700100078000080e800d0
:1071d80010407800fb010700f0004700910078009c
:1071e8008180e8008048780070004700100078002f
:1071f8006300400010407800f2010700f0004700eb
:1072080091007800e38040008048780070004700d3
:10721800100078006400400010407800e901070081
:10722800f000470091007800e48040008048780032
:10723800700047001000780065004000104078009a
:10724800e0010700f000470091007800e580400069
:107258008048780070004700100078006600400001
:1072680010407800d7010700f0004700910078002f
:10727800e6804000804878007000470010007800e1
:107288006700400010407800ce010700f00047007a
:1072980091007800e7804000804878000080fa007c
:1072a800000006000000fa0023002000610420000e
:1072b8007205200024742000014a7800024a7800f0
:1072c800034a780050052000303b8800a00a2000bf
:1072d800303b880027a6a8002706a8002726a80074
:1072e80000002800303188000080fa000000060005
:1072f8000200fa00881f7800000f780023002000a1
:10730800600420007205200024742000004a7800e0
:10731800024a7800034a780051052000313b880072
:10732800a10a2000313b880027a6a8002706a8004c
:107338002726a8001e007800104078000004e0000e
:10734800270032001e0078000000e8001040780096
:107358000080fb00203188001e0078000080e800d3
:10736800104078000080fb00c800dd001e00780097
:1073780063004000104078000080fb0001007000ae
:10738800203188001e00780064004000104078001a
:107398000080fb00c800dd001e007800650040008a
:1073a800104078000080fb00010070002031880048
:1073b8001e00780066004000104078000080fb0046
:1073c800c800dd001e00780067004000104078000b
:1073d8000080fb0001007000203188002d0037007c
:1073e8001e0078000000e8001040780060010700e7
:1073f8000080fb00203188001e0078000080e80033
:10740800104078005a0107000080fb004804dd00a6
:107418001e00780063004000104078005401070007
:107428000080fb0008007000203188001e007800f2
:1074380064004000104078004d0107000080fb0008
:107448004804dd001e007800650040001040780008
:10745800470107000080fb00080070002031880009
:107468001e007800660040001040780040010700c8
:107478000080fb004804dd001e0078006700400023
:10748800104078003a0107000080fb0008007000f7
:107498002031880000002800303188004f0478002f
:1074a8000080fa00000006000e00fa00ec00470019
:1074b800800878002706a8002726a8003031800019
:1074c8004c00de00614060000080fb0000f0a70077
:1074d8000000ea000000ea004f00de00004f7800dc
:1074e8000e80e80021318000010878000e80e80055
:1074f80010007800804078006c0047001000780089
:107508000000e800014878000e80e8002131800082
:10751800010878000e80e800100078004800de00be
:10752800804078006c004700100078000080e80078
:10753800014878000e80e80010007800804078004c
:107548006c00470010007800630040000148780094
:107558000e80e80021318000010878000e80e800e4
:10756800100078004800de00804078006c0047007a
:107578001000780064004000014878000e80e800a0
:1075880010007800804078006c00470010007800f8
:1075980065004000014878000e80e8002131800035
:1075a800010878000e80e800100078004800de002e
:1075b800804078006c0047001000780066004000aa
:1075c800014878000e80e8001000780080407800bc
:1075d8006c00470010007800670040000148780000
:1075e8001e4078000004e0009a0032006c0047005a
:1075f8001000780067004000904078006b0047005a
:10760800014878006c0047001000780066004000d0
:10761800904078006a004700014878006c004700f5
:10762800100078006500400090407800690047002d
:10763800014878006c0047001000780063004000a3
:107648009040780067004700014878006c004700c8
:10765800100078000080e80090407800660047003d
:10766800014878006c004700100078000000e8002e
:107678009040780065004700014878006c0047009a
:1076880010007800640040009040780068004700cf
:10769800014878002706a8002726a8002031800086
:1076a800804078006c004700100078000000e80077
:1076b800014878000e80e800213180000108780038
:1076c8000e80e800100078004800de008040780056
:1076d8006c004700100078000080e800014878003e
:1076e8000e80e80010007800804078006c004700a9
:1076f8001000780063004000014878000e80e80020
:1077080021318000010878000e80e8001000780020
:107718004800de00804078006c00470010007800c8
:1077280064004000014878000e80e80010007800ee
:10773800804078006c004700100078006500400029
:10774800014878000e80e8002131800001087800a7
:107758000e80e800100078004800de0080407800c5
:107768006c0047001000780066004000014878006f
:107778000e80e80010007800804078006c00470018
:107788001000780067004000014878006c0047004e
:107798001000780067004000904078006b004700b8
:1077a8001040780080cf500021003a006c0047005c
:1077b8001000780066004000904078006a0047009a
:1077c8001040780080cf50001b003a006c00470042
:1077d800100078006500400090407800690047007c
:1077e8001040780080cf500015003a006c00470028
:1077f8001000780063004000904078006700470060
:107808001040780080cf50000f003a006c0047000d
:10781800100078000080e80090407800660047007b
:107828001040780080cf500009003a000900370066
:1078380000000000070037000000000005003700c6
:1078480000000000030037000000000001003700be
:10785800000000006c00470010007800104078001d
:107868000004a2000004e0003f0032006c00470062
:10787800100078000000e800104078005100070070
:10788800ec004700910078008100e800804878000b
:107898006c004700100078000080e8001040780075
:1078a80048000700ec004700910078008180e8005c
:1078b800804878006c0047001000780063004000a2
:1078c800104078003f000700ec0047009100780066
:1078d800e3804000804878006c0047001000780082
:1078e800640040001040780036000700ec004700b4
:1078f80091007800e4804000804878006c004700e0
:107908001000780065004000104078002d00070046
:10791800ec00470091007800e5804000804878003e
:107928006c004700100078006600400010407800a6
:1079380024000700ec00470091007800e680400032
:10794800804878006c00470010007800670040000d
:10795800104078001b000700ec00470091007800f9
:10796800e7804000804878000080fa0000000600a8
:107978000200fa00004f78009e80fb00d0cc2c005b
:107988000008b8004308de00004078000080fb00d3
:107998004400dd00804178001e81fb00d0cc2c0023
:1079a8000010b8004308de006a00b9000000780043
:1079b800000051000040780000c071000080fa000b
:1079c800000006000200fa00004f78001e80fb004d
:1079d8004400de00004078006a00b900000078002a
:1079e800804078001e4178006f40610000c0400070
:1079f8000080fa00000006000400fa008e80e8000b
:107a0800804878000e80e800104078000080fb0075
:107a1800c300de000e00e800014878000e00e80010
:107a2800104078000004e0000a003a000e00e80068
:107a380090407800800f20000088b900000078008e
:107a4800804078000e80e8001040780000c04000b8
:107a58004c003700d0c0b300004f78003d0037001d
:107a68009e80fb000e00e800104078000080fb00bc
:107a78006d001000808f500029003c001e80fb0024
:107a88008000e9000e00e800104078000080fb004c
:107a9800008040009e80fb008100e90042e4210054
:107aa800810041009140780042e42100000041003b
:107ab800014878001e80fb000000e90042e4210034
:107ac80080c0eb0000004100014878001e80fb00e8
:107ad8008000e9000e00e800104078000080fb00fc
:107ae800008040009e80fb008100e90012e5210033
:107af800810041009140780012e52100000041001a
:107b0800014878001e80fb000000e90012e5210012
:107b18008040eb0000004100014878000c0037006d
:107b28001e80fb000000e90042e4210080c0eb0059
:107b380000004100014878001e80fb000000e900b9
:107b480012e521008040eb00000041000148780068
:107b58001e4fe9001e4078000004e000c0ff3a0014
:107b68000e00e80090407800800f20000088b900df
:107b780000007800804078000e80e800104078000f
:107b880000c040000080fa00000006000400fa006f
:107b98008e80e800804878000040eb00004f7800b5
:107ba80084003700d1c0b3000e00e8000148780017
:107bb8007b0037000e00e800104078000080fb00d2
:107bc8000000e9008e00e800914078008180fb0009
:107bd8008100e90042e421008100410091407800e1
:107be8008180fb008100d1008140780042e42100bf
:107bf80000004100014878000e00e80010407800bd
:107c08000080fb000000e9008e00e8009140780049
:107c18008180fb008100e90012e52100810041001c
:107c2800914078008180fb008100d100814078007c
:107c380012e5210000004100014878000e00e8002c
:107c480010407800e14f500010003a000e00e800a4
:107c5800104078000080fb000000e9008e00e8007a
:107c6800914078008180fb008100e90042e4210016
:107c780081004100914078000174a00042e4210095
:107c88000000410001487800400037000e00e8007d
:107c9800104078000080fb000001e9000e00e800b9
:107ca800104078000080fb000000e90041e421005a
:107cb8000080400010407800804078000e00e80006
:107cc800104078000080fb000080e90043e42100b8
:107cd80000804100104078000080fb0061006000d7
:107ce800004078000004e0000200320000c8b30041
:107cf800010037000040eb0000c0700080407800b1
:107d080040e4210002004000014878000e00e8002d
:107d1800104078000080fb000001e9000e00e80038
:107d2800104078000080fb000000e90011e5210008
:107d38000080400010407800804078000e00e80085
:107d4800104078000080fb000080e90013e5210066
:107d580000804100104078000080fb006100600056
:107d6800004078000004e0000200320000c8b300c0
:107d7800010037000040eb0000c070008040780030
:107d880010e5210002004000014878000e00e800dc
:107d9800104078008040e9000e00e80001487800b3
:107da8000e00e800104078000004e00081ff3a006f
:107db8001e4fe8000e80e800104078009e407800d2
:107dc80080cf500077ff39000080fa0000000600dd
:107dd8000200fa00004f78001e40780006ff0700f6
:107de800004f78001e40780068ff07000080fa0006
:107df800000006000600fa000e81e800000978007d
:107e080064004700014878000040eb00004f78000c
:107e18003700370064004700104078000082fb00fc
:107e28009e81fb0064004700104078000080fb0042
:107e38001e81fb008e80e800910278006d00b90079
:107e48000000780002004000008042009040780066
:107e58001e80fb0012e52100000041001040780060
:107e680000c170000e80e800900278006d20b90013
:107e780000007800030040000080420002487800bb
:107e880064004700104078000082fb009e81fb00e0
:107e980064004700104078000080fb001e81fb0052
:107ea8008e80e800910278006d00b900000078002b
:107eb8000200400000804200904078001e80fb00d5
:107ec80042e42100000041001040780000c1600039
:107ed8000e80e800900278006d20b900000078005c
:107ee8000300400000804200024878001e4fe8006e
:107ef8001e407800ec4f5000c6ff36000080fa00a4
:107f0800000006000c00fa0066024700000a78002c
:107f18006800470001487800690047000248780077
:107f28006a004700034878006800470090407800de
:107f380040c6b30080cf500005003e0068004700ef
:107f48009040780040c6b30080cf50000200360051
:107f58000040eb00610037006a00470010407800dd
:107f6800ce090700800078000e80e800010878003c
:107f7800680047001041780021832000824878007b
:107f8800690047001041780031832000824878005a
:107f98000040eb00004f78008040eb000e00e80046
:107fa800014878008040eb000e00e80001487800a6
:107fb80041003700d2002000f10f200040e42100ea
:107fc8004beb0700d20020008000eb0010e52100f9
:107fd80047eb07000040eb00004f78001f00370018
:107fe8000e80e80010007800900178001e81fb00e8
:107ff8000e00e800104078008080fb000e80e8004a
:10800800100078000080e800104078000080fb0035
:108018000088b9000000780000004100808041001d
:1080280064004700114878001e80fb00e400470008
:108038009140780081c0ea0042e42100000041003c
:10804800014878001e80fb0012e5210080c0eb008b
:1080580000004100014878001e4fe8000e80e8004b
:10806800100078000080e800104078009e4f500013
:10807800dbff3e00680047001040780054ff07000f
:1080880069004700904078000e00e8001040780032
:1080980000c040008040780066004700100078006b
:1080a80054ff07000e00e800104078008040e80008
:1080b8000e00e800014878000e80e8001000780003
:1080c80064004000904078000e00e80010407800fe
:1080d80080cf5000b7ff3e0010c0b3000080fa0008
:1080e800000006000800fa00640147000009780053
:1080f8006600470001487800b1090700000f7800c2
:108108001e007800630040009040780032c8bf002d
:1081180080c040000e80e8000148780063004700f6
:1081280031832000914078000148780066004700bc
:108138009041780063004700104178000e80e80005
:108148009040780064004700100078006dff070039
:108158000080fa00000006008a00fa006308200088
:108168008e81410080097800800820000e004000c0
:1081780001487800900820000e004000024878006e
:10818800f13d2f006300470011487800e4004700e4
:108198007e0009008058eb00e800570040082000e6
:1081a8000e00400001087800400820000e00400042
:1081b800900078006300470001017800e80057004c
:1081c800910078002deb070063004700904078008d
:1081d8000e00e800014878000e00e8001040780022
:1081e8000004e00002003a000040eb002e003700d7
:1081f8000e00e800104078008041780090082000c8
:108208000e00400010417800800820000e00400059
:1082180090407800600820000e00400010007800b0
:1082280038ff070010c0b300004f7800180037006f
:108238001e80fb00e300470000804000904078006b
:108248000e80e800014878000e80e80010407800b1
:108258000004e000120032001e80fb00e30047002b
:1082680000804000904078000e80e80001487800c7
:108278000e80e800104078008040780060082000f8
:108288000e0040001000780096ff07001e4fe8001f
:108298001e4078000004e000e5ff3d0001003700c3
:1082a8000000000010c0b3000080fa0000000600c3
:1082b8000600fa00000f78000e80e80001487800f8
:1082c80063004700024878006400470003487800cc
:1082d8000e80e8009040780040c6b30080cf500080
:1082e80005003e000e80e8009040780040c6b300cc
:1082f80080cf5000020036000040eb001a00370023
:10830800d2002000f10f200040e4210078ea0700a5
:10831800d20020008000eb0010e5210074ea07007d
:1083280064004700104078000004e00003003200b9
:1083380040e42100f1c7b3000148780010e52100ae
:1083480001c8b300014878000e80e80010407800aa
:108358009ffe070063004700904078001e007800e9
:10836800a4fe070010c0b3000080fa000000060059
:108378000600fa00000f78000e80e8000108780077
:108388006400470002087800640047009000780005
:1083980040512000808f50000300360041512000da
:1083a80064004700010878001e007800e4004700d8
:1083b800110178008e80e8009100780045ea0700f6
:1083c80010c0b3000080fa00000006002a00fa007e
:1083d8007e034700004b7800000220000e0040009a
:1083e80001087800200220000e00400002087800f2
:1083f800400220000e0040000308780060022000c0
:108408000e00400004087800800220000e004000a2
:1084180005087800600220000e00400090007800f7
:10842800200220000e00400010007800008050005c
:108438008000780001f0a7008100ea00740047007e
:1084480001087800800220000e00400090007800ab
:10845800400220000e00400010007800008050000c
:108468008000780001f0a7008100ea00760047004c
:108478000108780074004700100078000000e00050
:1084880004003a0076004700100078000000e00081
:10849800d900320074004700900078007600470049
:1084a80010007800808f5000130034000000eb00ab
:1084b800000f78000e80e800210220008e80400026
:1084c8001108780064004700410220008e804000b7
:1084d8001108780066004700610220008e80400085
:1084e8001108780068004700810220008e80400053
:1084f800110878001200370010002000000f7800e3
:108508000e80e800410220008e80400011087800ab
:1085180064004700210220008e8040001108780086
:1085280066004700810220008e8040001108780014
:1085380068004700610220008e8040001108780022
:1085480066004700900078000e80e8001000780070
:10855800008050008000780001f0a7008100ea0048
:10856800780047000108780068004700900078000c
:1085780064004700100078000080500080007800f8
:1085880001f0a7008100ea007a004700010878009e
:108598008000eb006a004700010878007a00470075
:1085a800100078008000e8007c004700010878008f
:1085b8006c0047008e80e8001108780066004700cc
:1085c800900078000e80e80010007800808050004d
:1085d8006e004700010878006e0047001000780020
:1085e8000000e00003003400110020006e00470086
:1085f800010878006e004700100078000000e000d5
:1086080003003d008080eb006e0047000108780001
:1086180070004700e4004700110878006800470030
:1086280090007800640047001000780080805000b7
:1086380072004700010878007200470010007800b7
:108648000000e00003003400110020007200470021
:108658000108780072004700100078000000e00070
:1086680003003d008080eb0072004700010878009d
:108678006c0047008e80e80011087800460037003b
:108688001e0078000000e00010003a007e0047005d
:108698001041780070004700100078008040780092
:1086a8006c00470010007800004078008241780094
:1086b8000141780080407800000220000e00400050
:1086c80010007800fafe07000f0037007e00470010
:1086d800104178006c004700100078008040780056
:1086e8007000470010007800004078008241780050
:1086f8000141780080407800000220000e00400010
:1087080010007800eafe07006a0047009000780031
:108718007c00470010007800808040006a00470015
:108728000108780078004700100078000000e80091
:10873800ea00470091007800810f50000f003c00cc
:108748007000470090007800720047001000780021
:1087580080804000700047000108780078004700da
:10876800100078000080ea00ea00470091007800d5
:10877800808040006a004700010878006c004700cc
:10878800900078006e00470010007800808040005c
:108798006c004700010878006e0047001000780060
:1087a8000000e0000900340010c0b300ec004700ee
:1087b80011017800e600470091007800810f510010
:1087c8000a0034000040eb000800370010c0b30076
:1087d800ec00470011017800e6004700910078009e
:1087e800810f510001003d000040eb000004e00053
:1087f800a3ff3a0001003700000000000080fa00e3
:10880800000006000400fa00000f78000e80e8005f
:10881800010878000e80e80010007800660040002b
:10882800100278000e80e800100078006400400014
:10883800900178000e80e800100078000080e800c1
:10884800100178000e80e800100078009000780091
:108858000e80e800100078006800400010007800e2
:1088680000407800840278000302780082017800d2
:10887800010178009e007800d4fe07000080fa000d
:10888800000006000600fa00000f78000e80e800dd
:108898000108780064004700020878001e0078008c
:1088a800900078000e80e80010007800808040007a
:1088b8001e007800010878001e007800640040005f
:1088c800900078000e80e80010007800808040005a
:1088d8001e00780064004000010878001e0078003f
:1088e8000080e800900078006400470010007800dd
:1088f800808040001e0078000080e80001087800b1
:108908001e00780066004000900078006400470070
:1089180010007800808040001e007800660040004b
:10892800010878000080fa00000006001200fa0032
:10893800889fbe008a9fbe006e014700000978002c
:1089480070004700010878007000470010007800a8
:10895800cf80de004ae0070052a32f00e3c82300bf
:108968005de10700008fbe006e0047001000780030
:1089780010007800cf80de0041e007000004be0050
:108988001e00be00bbe207000001be000800be00da
:1089980051e107000004be006e0047001000780097
:1089a8000080e80010007800cf80de0034e0070087
:1089b8000005be001e00be0073e307000001be00f4
:1089c8000a00be0044e107000001be000800be0026
:1089d80053e007001be3070008e007008000780069
:1089e80064004700010878006e0047001000780016
:1089f80010007800cf80de0021e007000004be00f0
:108a08001e00be0060e307000001be000800be00b3
:108a180031e107000004be006e0047001000780036
:108a28000080e80010007800cf80de0014e0070026
:108a38000005be001e00be008ee207000001be0059
:108a48000a00be0024e107000001be000800be00c5
:108a58003ce00700fbe20700e8df07008000780041
:108a680066004700010878006e0047001000780093
:108a78006400400010007800cf80de0000e00700ae
:108a88000004be001e00be007ae207000001be001e
:108a98000800be0010e107000004be006e00470099
:108aa800100078006600400010007800cf80de00db
:108ab800f3df07000005be001e00be0032e307001a
:108ac8000001be000a00be0003e107000001be006d
:108ad8000800be0012e00700dae20700c7df07005f
:108ae8008000780068004700010878006e004700a1
:108af800100078006400400010007800cf80de008d
:108b0800dfdf07000004be001e00be001ee30700f2
:108b18000001be000800be00efe007000004be0030
:108b28006e004700100078006600400010007800d2
:108b3800cf80de00d2df07000005be001e00be00a9
:108b48004ce207000001be000a00be00e2e0070098
:108b58000001be000800be00fadf0700b9e2070006
:108b6800a6df0700800078006a0047000108780047
:108b780064004700900078006e00470010007800fd
:108b88000108780068004700900078006e004700f0
:108b98001000780064004000010878006600470073
:108ba800900078006e004700100078000080e80010
:108bb800010878006a004700900078006e004700be
:108bc8001000780066004000010878004f05be00dc
:108bd8004f04be000080fa00000006001800fa00ea
:108be8006c034700000b78006e0047000288be0047
:108bf80072004700010878007400470004087800f4
:108c080076004700050878000000eb00000f7800a8
:108c18003d0037006e004700900078001e00780085
:108c28000000400000804000900078000e80e800be
:108c3800010878006e004700900078001e00780058
:108c48000000e8000000400000804000900078002c
:108c580064004700010878006e0047009000780023
:108c68001e007800630040000000400000804000c3
:108c78009000780066004700010878006e00470001
:108c8800900078001e00780064004000000040005a
:108c980000804000900078006800470001087800d4
:108ca8006e004700900078001e00780065004000c4
:108cb8000000400000804000900078006a004700f3
:108cc800010878000e80e800f6004700910078005f
:108cd80016ff07000e80e800f40047001101780035
:108ce800f200470091007800e6fe07000e80e800d9
:108cf800800078006c00470010007800c1fe070073
:108d08009e007800638f40007000470010007800d4
:108d1800630050009e0f5000beff3c000080fa0028
:108d2800000006000600fa00000f78000e80e80038
:108d38000108780064004700020878000e80e80007
:108d480010007800e40f500070003200e40f50006b
:108d580007003e00e20f500038003200e20f5000da
:108d680063003e00e10f500008003200fa003700af
:108d7800e60f5000bd003200e60f50008f003900aa
:108d8800e70f5000e5003200f300370064004700a9
:108d980010007800e10f500014003a001e0078001f
:108da8006500400010407800f64f50000a003e0071
:108db8001e00780065004000104078008040e80000
:108dc8001e00780065004000014878001e00780009
:108dd80047f90700e00037001e0078008040eb00ec
:108de8006500400001487800db0037001e0078006d
:108df80065004000104078000004e0000a003200de
:108e08001e00780065004000104078008040e900ae
:108e18001e00780065004000014878001e007800b8
:108e280033f90700cc0037001e00780071c1b30089
:108e38006500400001487800c7003700640047001b
:108e480010007800e10f500015003a001e0078006d
:108e58006600400090407800a0c3b30080cf500067
:108e68000a003e001e0078006600400010407800ae
:108e78008040e8001e007800660040000148780045
:108e88001e0078001af90700b30037001e007800aa
:108e98008040eb006600400001487800ae003700d3
:108ea8001e00780066004000104078000004e000d2
:108eb8000a0032001e00780066004000104078006a
:108ec8008040e9001e0078006600400001487800f4
:108ed8001e00780006f907009f0037001e00780082
:108ee800b1c3b30066004000014878009a0037001b
:108ef8001e0078008040eb006700400001487800c1
:108f08001e007800faf80700930037006400470055
:108f180010007800e10f500014003a001e0078009d
:108f28006400400010407800e64f50000a003e0000
:108f38001e00780064004000104078008040e8007f
:108f48001e00780064004000014878001e00780088
:108f5800e7f80700800037001e00780011c0b30052
:108f680064004000014878007b0037001e0078004c
:108f78006400400010407800e14f50000a003600bd
:108f88001e00780064004000104078008040e9002e
:108f98001e00780064004000014878001e00780038
:108fa800d3f807006c0037001e00780071c0b300ca
:108fb80064004000014878006700370064004700fb
:108fc80010007800e10f500014003a001e007800ed
:108fd8006300400010407800fe4f50000a003e0039
:108fe8001e00780063004000104078008040e800d0
:108ff8001e00780063004000014878001e007800d9
:10900800bbf80700540037001e00780011c0b300f9
:1090180063004000014878004f0037001e007800c8
:109028006300400010407800e14f50000a0036000d
:109038001e00780063004000104078008040e9007e
:109048001e00780063004000014878001e00780088
:10905800a7f80700400037001e007800f1c1b300f0
:1090680063004000014878003b0037006400470077
:1090780010007800e10f500014003a001e0078003c
:109088000080e80010407800eb4f50000a003e00d6
:109098001e0078000080e800104078008040e8005a
:1090a8001e0078000080e800014878001e00780063
:1090b8008ff80700280037001e00780011c0b300a1
:1090c8000080e80001487800230037001e0078007f
:1090d8000080e80010407800e14f50000a00360098
:1090e8001e0078000080e800104078008040e90009
:1090f8001e0078000080e800014878001e00780013
:109108007bf80700140037001e007800c1c0b300c8
:109118000080e800014878000f003700640047002d
:1091280010007800e10f50000a003a001e00780095
:109138000000e800104078008040e8001e00780039
:109148000000e800014878001e00780068f8070071
:1091580001003700000000000080fa00000006004f
:109168000600fa00000f78000e80e8000108780079
:1091780064004700020878000000eb00250507009e
:109188006400470010007800e40f50002800320007
:10919800e40f500007003e00e20f500014003200b8
:1091a800e20f50001a003e00e10f500008003200a4
:1091b8003f003700e60f50002d003200e60f500048
:1091c80023003900e70f5000310032003800370023
:1091d80000462f00801f780052c0b300f1c0b300d2
:1091e8001e007800dcfb07008f87e9003800370095
:1091f800e0462f00801f780052c0b300f1c0b300d2
:109208001e007800d4fb07008f87e9003000370084
:10921800e0472f00801f780052c0b300f1c0b300b0
:109228001e007800ccfb07008f87e9002800370074
:10923800e0482f00801f780052c0b300f1c0b3008f
:109248001e007800c4fb07008f87e9002000370064
:10925800c0492f00801f780052c0b300f1c0b3008e
:109268001e007800bcfb07008f87e9001800370054
:10927800904a2f00801f780052c0b300f1c0b3009d
:109288001e007800b4fb07008f87e9001000370044
:10929800804b2f00801f780052c0b300f1c0b3008c
:1092a8001e007800acfb07008f87e9000800370034
:1092b800604c2f00801f780052c0b300f1c0b3008b
:1092c8001e007800a4fb07008f87e900000000005b
:1092d8000080fa00000006000200fa00000f780083
:1092e8009e007800814188000080fa000000060096
:1092f8000200fa00000f78001e007800e10f50000d
:1093080009003200e10f500005003900e20f50005b
:1093180007003200e30f5000070032000800370052
:1093280021e2a9000600370031e2a9000400370055
:1093380051e2a90002003700b1e2a90000000000d4
:109348000080fa00000006000c00fa0068014700df
:10935800000978006a0047000108780068004700a3
:1093680010007800e20f500018003200e20f5000a1
:1093780005003e000000e00008003200e10f500048
:109388000c00320023003700e40f500015003200b3
:10939800e60f5000190032001e00370070ff2f0042
:1093a800000f7800f10c20000e80e800010878001a
:1093b8001800370070ff2f00000f7800710620009a
:1093c8000e80e80001087800120037000080eb00ea
:1093d800000f7800f10c20000e80e80001087800ea
:1093e8000c0037000080eb00000f780031032000ec
:1093f8000e80e80001087800060037000080eb00c6
:10940800000f7800010120000e80e80001087800b4
:10941800000000006a00470010007800e10f5000cb
:1094280019003200e10f500005003900e20f50002a
:1094380027003200e30f50003700320048003700a1
:10944800e0ab87001e006000001188000e80e80075
:109458009000780041118800f0ab87001011880057
:10946800030037003111800064004700014878008c
:1094780010118000610060000000e000f9ff3a0070
:109488008560a90036003700e0ab87001e00600049
:10949800801188000e80e80090007800c1118800d3
:1094a800f0ab87009011880003003700b1118000ed
:1094b8006500470001487800901180006100600055
:1094c8000000e000f9ff3a0087c0a9002400370037
:1094d800e0ab87001e006000801288000e80e80064
:1094e80090007800c1128800f0ab870090128800c5
:1094f80003003700b1128000660047000148780079
:1095080090128000610060000000e000f9ff3a005e
:109518008e40a90012003700e0ab87001e006000f3
:10952800801588000e80e80090007800c11588003a
:10953800f0ab87009015880003003700b115800054
:1095480067004700014878009015800061006000be
:109558000000e000f9ff3a008f00a90000000000b9
:109568000080fa00000006000400fa008e80e8007f
:10957800800878000040eb00004f78000e80e8007b
:1095880010007800e10f50002c003200e10f50006d
:1095980005003900e20f50004d003200e30f500083
:1095a80070003200940037001011800064006000e1
:1095b8000000e0000c003200311180000e00e800cd
:1095c800014878002342a9002342a8002242a900aa
:1095d800311180000e00e8000148780010c0b30087
:1095e800004f78002242a90010118000620060003c
:1095f8000000e00002003a001e4078007f003700bb
:109608002342a9002342a800311180000e00e8007f
:1096180001487800311180000e00e8000148780008
:10962800311180000e00e800014878002222a900cc
:1096380010c0b300004f78006f0037009011800011
:10964800640060000000e0000c003200b1118000ee
:109658000e00e800014878003342a9003342a80010
:109668003242a900b11180000e00e80001487800dc
:1096780010c0b300004f78003242a900901180005a
:10968800620060000000e00002003a001e4078001e
:109698005a0037003342a9003342a800b1118000b4
:1096a8000e00e80001487800b11180000e00e800c3
:1096b80001487800b11180000e00e80001487800e8
:1096c8003222a90010c0b300004f78004a003700ca
:1096d80090128000640060000000e0000c0032007e
:1096e800b11280000e00e800014878005342a9003a
:1096f8005342a8005242a900b11280000e00e800af
:109708000148780010c0b300004f78005242a90009
:1097180090128000620060000000e00002003a0041
:109728001e407800350037005342a9005342a80074
:10973800b11280000e00e80001487800b1128000e4
:109748000e00e80001487800b11280000e00e80021
:10975800014878005222a90010c0b300004f7800d9
:109768002500370090158000640060000000e000cc
:109778000c003200b11580000e00e80001487800a6
:10978800b342a900b342a800b242a900b1158000b3
:109798000e00e8000148780010c0b300004f7800c0
:1097a800b242a90090158000620060000000e0004d
:1097b80002003a001e40780010003700b342a900aa
:1097c800b342a800b11580000e00e80001487800f7
:1097d800b11580000e00e80001487800b11580003e
:1097e8000e00e80001487800b222a90010c0b300ba
:1097f800004f7800000000001e4078000080fa004a
:10980800000006000200fa00004f78000000000087
:109818001111800000202000008060000000e0009e
:10982800fbff3a001e00fb00201188000080fa00b0
:10983800000006000000fa008041800000000100de
:109848000080fa00000006000000fa0095f6070004
:109858004083200014f707009b0007000004a200c3
:109868000004e000040032004083200038f50700bf
:10987800408320009ef607001a28ef001c28ef00fe
:109888001828ef000000eb0037050700d0408000e3
:109898000001780041832000c083200047050700ad
:1098a8000080fa00000006000000fa004083200053
:1098b800fdf60700b0832000904078001ec8bf0066
:1098c80080cf50000c003200b08320001040780098
:1098d8001ee8b700c0832000030307001e0007002e
:1098e8003b000700d0408000000178004183200041
:1098f800c0832000310507000080fa000000060040
:109908000000fa00c04080000000e800c040880065
:10991800c0408000e10f5000010036001828ef0019
:10992800c04080000000e00003003200e10f50005a
:1099380004003200060037000000eb000a050700ab
:109948000300370010002000070507000000000092
:109958000080fa00000006000000fa00e0408000e5
:109968000000e00004003200e04080000000e90050
:10997800e0408800010037001a28ef000080fa0054
:10998800000006000200fa00000f78001e007800b0
:109998004b0107000004a2000004e00009003200a7
:1099a80040062000940507001e00780044010700c7
:1099b8000004a2000004e000020032000040eb00b6
:1099c8000100370010c0b3000080fa000000060054
:1099d8000000fa000000eb00eaff07000004a20004
:1099e8000004e00004003200810c2000004b20003d
:1099f800e9050700c2ff070010002000e1ff07008b
:109a08000004a2000004e0000c0032002103200042
:109a1800803e2000e0050700a0002000e04088000c
:109a2800d0408000fb040700d0408800d040800070
:109a3800e70f5000010036001a28ef00d0408000e0
:109a48000000e0001e00320020002000cdff0700cb
:109a58000004a2000004e0000a00320021032000f4
:109a6800803e2000cc050700a0002000e0408800d0
:109a7800d040800012002000800078004083200041
:109a8800a8fc070030002000beff07000004a20069
:109a98000004e0000a00320021032000803e20007c
:109aa800bd050700a0002000e0408800d0408000ed
:109ab8000081eb00800078004083200099fc0700bb
:109ac8000080fa00000006000800fa000e00780086
:109ad8009ff4070050832000904078000e00e800b3
:109ae8001040780080cf50000500390050832000d6
:109af8009040780030c6b30080cf50000200360096
:109b08000040eb005d003700508320009040780053
:109b18000e00e8001040780080cf500008003a009e
:109b280060832000904078000e80e80010407800a4
:109b380080cf5000020031000040eb004f0037009a
:109b480050832000904078000e00e8001040780014
:109b580080cf50000e003a006083200090407800cb
:109b68000e80e8001040780080cf500008003a00ce
:109b78007083200090407800630047001040780010
:109b880080cf5000020031000040eb003b0037005e
:109b980050832000904078000e00e80010407800c4
:109ba80080cf500014003a00608320009040780075
:109bb8000e80e8001040780080cf50000e003a0078
:109bc80070832000904078006300470010407800c0
:109bd80080cf500008003a00908320009040780021
:109be800650047001040780080cf50000200310027
:109bf8000040eb002100370050832000904078009f
:109c08000e00e8001040780080cf50001a003a009b
:109c180060832000904078000e80e80010407800b3
:109c280080cf500014003a007083200090407800e4
:109c3800630047001040780080cf50000e003a00c3
:109c4800908320009040780065004700104078001d
:109c580080cf500008003a00a08320009040780090
:109c6800660047001040780080cf500002003100a5
:109c78000040eb000100370010c0b3000080fa007c
:109c8800000006000000fa003200200080072000d3
:109c9800a1092000337420008049780081497800a8
:109ca80082497800103a8000000178000200a00084
:109cb800600420007105200023742000804978008a
:109cc80081497800824978000080fa000000060087
:109cd8000000fa005200200080072000a10920009f
:109ce80033742000804978008149780082497800df
:109cf800103a8000000178000200a00060042000f3
:109d0800710520002374200080497800814978007b
:109d1800824978000080fa00000006000000fa007e
:109d2800ca22ef00da22ef00e222ef00f222ef006f
:109d3800ea22ef00f0f12f00401688000080eb00c7
:109d480080168800f05e2f00c0168800f0fd2f00f6
:109d5800001788000080eb00801788000080eb0067
:109d6800401788000080fa00000006000000fa0092
:109d78000080eb00401688000080eb008016880009
:109d88000080eb00c01688000080eb0000178800f8
:109d98000080eb00801788000080eb0040178800e7
:109da8000080fa00000006000200fa00000f7800a8
:109db8001e00780000407800614060000080fb00d1
:109dc800610060004500dd00111780000150a1000e
:109dd80001007000101788000080fa0000000600db
:109de8000200fa00000f78001e007800004078009a
:109df800614060000080fb00610060004500dd00fc
:109e0800511680000150a100010070005016880012
:109e18000080fa00000006000200fa00000f780037
:109e28001e00780000407800614060000080fb0060
:109e3800610060004600dd00511680000160a1004d
:109e480001007000501688000080fa00000006002b
:109e58000200fa00000f78001e0078000040780029
:109e6800614060000080fb00610060004700dd0089
:109e7800511680000170a100010070005016880082
:109e88000080fa00000006000200fa00000f7800c7
:109e98001e00780000407800614060000080fb00f0
:109ea800610060004b00dd00d116800001b0a10008
:109eb80001007000d01688000080fa00000006003b
:109ec8000200fa00000f78001e007800e10f500031
:109ed80011003200e10f500005003900e20f500078
:109ee80017003200e30f50001f003200280037002f
:109ef8001017800000407800614060000080fb007f
:109f080000f0a7000000ea000000ea004f00de00b1
:109f1800004078001f003700101780000000d100b3
:109f2800614060000080fb0000f0a7000000ea002c
:109f38000000ea004f00de000040780015003700fe
:109f4800101780004200de00614060000080fb00c6
:109f580000f0a7000000ea000000ea004f00de0061
:109f6800004078000b003700101780004300de0027
:109f7800614060000080fb0000f0a7000000ea00dc
:109f88000000ea004f00de000040780001003700c2
:109f98000040eb000080fa00000006000000fa0014
:109fa8002023a80000000000001980006100600064
:109fb8000000e000fcff32000218800010c0b3006f
:109fc80001322000810f510001003e000040eb00eb
:109fd8000080fa00000006000000fa00f0ff2e00e2
:109fe80060198800000e200000198800c0002000b9
:109ff800401988003023ef0020f021002019880044
:10a008002223ef0021e3a8000080fa0000000600e8
:10a018000000fa00080407000080fa0000000600ab
:020000040000fa
:10a028005e1e000012000000000000003008000062
:10a0380002000000000000002c08000004000000de
:10a0480000000000200800000600000000000000da
:10a05800000800001800000000000000500d00007b
:10a06800140500000000000026080000060000009b
:10a078000000000064120000140500000000000049
:10a0880078170000140500000000000034080000e4
:10a098001c0500000000000018080000080000006f
:10a0a80000000000fe1d00002a0000000200000061
:10a0b80092f39300f397f3009bf39f00f3a3f3004d
:10a0c800a7f3ab00f392f300aff3b300f3b7f300d9
:10a0d800bbf3bf00f3c3f300c7f3cb00f3cff30028
:10a0e800d3f3d700f3dbf300441e00001a0000008e
:10a0f800000000003208000002000000000000001c
:10a108008c1c000030010000020000000300040065
:10a118000004000006008300f9a20000444e6e000f
:10a1280000fc29001500d10057270000dd34f50098
:10a138000062db00c0003c0099950000419043009c
:10a1480000635100fe00bb00deab0000b761c50034
:10a15800003a6e002400d2004d4200004906e0009b
:10a168000009ea002e001c0092d10000eb1dfe0041
:10a178000029b1001c00e8003ea70000f535820068
:10a188000044bb002e009c00e9840000b426700047
:10a1980000417e005f00d6009139000053833900ea
:10a1a800009cf40039008b005f84000028f9bd0092
:10a1b80000f81f003b00de00ff9700000f98050025
:10a1c80000112f00ef000a005a8b00006d1f6d0070
:10a1d80000cf7e0036000900cb270000464fb700ad
:10a1e800009e66003f002d00ea5f0000ba27750058
:10a1f80000e5eb00c7003d007bf10000f7390700e0
:10a20800009252008a00fb006bea00001fb15f0059
:10a2180000085d008d003000035600007bfc4600fe
:10a2280000f0ab006b002000bccf000036f49a00b1
:10a2380000e3a9001d005e0061910000081be60014
:10a24800008599006500a000145f00008d4068003b
:10a258000080d800ff002700734d0000060631007b
:10a2680000ca56001500c900a87300007be2600010
:10a27800006b8c00c000da000fc93f006821a20003
:10a2880033c43400c2278b0062c61b001cdc80006c
:10a298000f022900d1031400000000000000000094
:10a2a80000000000281e00001c0000000200000042
:10a2b800286e69006c29000068076c00094c83004f
:10a2c8006a907400a07ac00000806800880084004a
:10a2d8006c82000081000000bc1d000042000000ec
:10a2e80002000000c01dc2001dc21d0001000300c5
:10a2f80000000000000000000000000000002c002a
:10a30800200000000000000000d01f006a1f0000ad
:10a318000000000000000000000000000000000035
:10a328000000000000000000000000000000000025
:10a33800000000000000000000000000901e000067
:10a348000200000000000000701e00001000000065
:10a3580002000000494e460000696e0066004e008b
:10a36800414e00006e616e0000000000801e00007b
:10a378001000000002000000494e460000696e000f
:10a3880066004e00414e00006e616e000000000045
:10a39800921e000002000000020000000100000000
:04a3a80000000000b1
:020000040000fa
:10a3ac000000fa0021058000f0ff2800008060000a
:10a3bc0000e0a0002005880031058000f0ff280097
:10a3cc000080600000e0a00030058800410580009e
:10a3dc0080ff2f00008060000020a0004005880056
:10a3ec0041058000f0ff28000080600000e0a00024
:10a3fc004005880091058000f08f2f0000806000e0
:10a40c0000a0a0009005880061068000f08f2f004e
:10a41c000080600000a0a00060068800810680001b
:10a42c0080ff2f00008060000020a00080068800c4
:10a43c000021ef000621ef000a21ef003028210057
:10a44c0010088800f0f3210060088800f0f3210068
:10a45c0070088800000028002008880000002800f0
:10a46c008008880000012800900888008460a900fa
:10a47c0084e0a9008500a9009460a8009500a800bc
:10a48c008560a9009560a80011028000f0f12f00f2
:10a49c0000806000100288000080fa0000000600b6
:10a4ac000000fa0011028000000e20000100700074
:10a4bc00100288000080fa00000006000000fa007c
:10a4cc0026c8bf000004e000030032002668ef003d
:10a4dc0010c0b300010037000040eb000080fa0010
:10a4ec00000006000200fa00000f780000000000d7
:10a4fc00f2ff07000004a2000004e000fcff3a0099
:10a50c00425120009e00780000d52000f0e10700a9
:10a51c000080fa00000006000200fa00a182200070
:10a52c0091407800014f78002a68ef001e407800b7
:10a53c000080fa00000006000400fa00000f78000a
:10a54c000e80e800010878001e0078008000eb0007
:10a55c000001be0000242400f10020005fd9070098
:10a56c00000078000000e900700888000e80e80008
:10a57c00100078006101b8001e0078008000eb002c
:10a58c00009ab90004027800028bb90086027800a8
:10a59c00050242000010b80001024200840078005d
:10a5ac00a20f2000030020004cd907000000780007
:10a5bc00404188000080fa00000006000200fa000a
:10a5cc00000f78009e007800f1f288001e007800e1
:10a5dc000008b00000f388001e0078004008b000ae
:10a5ec0010f388001e0078008008b00020f388006b
:10a5fc001e007800c008b00030f38800410920002c
:10a60c001e80400040f388000080fa000000060025
:10a61c000200fa00000f78001e007800e20f5000d4
:10a62c0012003200e20f500005003e000000e00076
:10a63c0008003200e10f500009003200140037000e
:10a64c00e30f50000c003200e40f50000d003200fc
:10a65c000f00370040962900d8ff07000c00370088
:10a66c0020e02e00d5ff07000900370060272b00e3
:10a67c00d2ff070006003700a0ea2c00cfff07002e
:10a68c000300370060792c00ccff070000000000ad
:10a69c000080fa00000006000800fa00e6004700ff
:10a6ac008048780066004700104078000004e00005
:10a6bc0003003d008040eb00660047000148780035
:10a6cc00f1f2800066004700104078000000fb00ab
:10a6dc000080400090407800d0e6210001487800ce
:10a6ec0010f380001000be0080407800c0e621000e
:10a6fc000148780030f380001000be0080407800e4
:10a70c00e0e62100014878000000eb00000f780023
:10a71c008000eb000e80e800010878001a0037007a
:10a72c00f1f280000e80e8001000780000804000fc
:10a73c00104078008080fb0064004700010878001e
:10a74c0064004700100078000000e00009003400ad
:10a75c00e0e62100104078008080fb00c0e621007c
:10a76c00104078000080fb000088b90000007800e1
:10a77c001e0f40000e80e800100078008000e800fa
:10a78c000e80e80001087800660047001040780051
:10a79c000000fb008e80e80091007800810f5000d3
:10a7ac00dfff3e0040f380001e00400050f38800a5
:10a7bc00a0e621000080fa00000006000000fa006c
:10a7cc00a0e621000080fa00000006000200fa005a
:10a7dc000040eb00004f78001000200071fd0700d6
:10a7ec0040062000030207000000eb006dfd07008f
:10a7fc0040062000ff0107000dfc07008e00e8005a
:10a80c00804878000e00e8009040780000c3b30048
:10a81c0080cf500008003a000040eb00004f780059
:10a82c0042512000e1d62b008077210028e107005f
:10a83c00807721002bff07000e00e8009040780085
:10a84c0030c3b30080cf50000d003a0030c0b300cd
:10a85c00004f780042512000219b2d008077210071
:10a86c001be107000000000014ff07000004a20019
:10a87c000004e000fcff3a008077210019ff07007c
:10a88c000e00e8009040780040c3b30080cf500029
:10a89c0008003a0040c0b300004f7800425120003d
:10a8ac0061ec2d008077210009e107008077210001
:10a8bc000cff07000e00e8009040780050c3b30076
:10a8cc0080cf500008003a0050c0b300004f780011
:10a8dc0042512000a13d2e0080772100fce00700b2
:10a8ec0080772100fffe07000e00e8009040780002
:10a8fc0060c3b30080cf500008003a0060c0b300c2
:10a90c00004f780042512000010028008077210080
:10a91c00efe0070080772100f2fe07001e80fb00ad
:10a92c00801f780060512f00801f780073e30700b0
:10a93c00e4875700a8ff37000400fa008e80e80077
:10a94c00804878000040eb00004f7800130037007f
:10a95c000e80e800104078000080fb006100600071
:10a96c00004078000004e000060032001e80fb006e
:10a97c0011522f000080400010407800d5010700d4
:10a98c00050037001e80fb00e1522f0000804000c4
:10a99c0010407800cf0107001e4fe8001e407800e1
:10a9ac00ec4f5000eaff36000e80e80010407800b3
:10a9bc00c80107001000200032fd07000000eb006a
:10a9cc0030fd07000080fa00000006000600fa00c7
:10a9dc00000f78000e80e800010878006400470042
:10a9ec00020878001e00780042512000f10f200070
:10a9fc00bee00700204180000000e80020418800f4
:10aa0c002041800061006000004078000004e000fc
:10aa1c000b00320064004700100078000000e000da
:10aa2c000700320064004700100178000e80e80037
:10aa3c00900078001e007800c8f907000900370064
:10aa4c000000eb00f2fe0700604d2f00801f780025
:10aa5c0052c0b300f1c0b3001e007800bdf5070072
:10aa6c008f87e90040002000e9fe07000e80e80017
:10aa7c001000780066004000104078008080fb00d9
:10aa8c000e80e8001000780065004000104078004f
:10aa9c000080fb00811f7800801f7800204e2f0063
:10aaac00801f780032c2b300a1c0b3001e00780032
:10aabc00a8f50700e687570030002000d4fe0700f9
:10aacc000e80e8001000780067004000104078000d
:10aadc000080fb00801f7800c04e2f00801f780084
:10aaec0002c4b30011c4b3001e00780099f507002e
:10aafc00e487570020002000c5fe07000e80e80008
:10ab0c00100078000000e800104078000081fb0085
:10ab1c000e80e800100078000080e80010407800fb
:10ab2c000080fb0080004000e0e02100008040003d
:10ab3c00100278000e80e8001000780063004000de
:10ab4c00104078008080fb000e80e8001000780038
:10ab5c0064004000104078000080fb008001400041
:10ab6c00e0df21000080410010007800821f780097
:10ab7c00841f7800811f7800801f7800104f2f00f1
:10ab8c00801f780032c5b30051c0b3001e0078009e
:10ab9c0070f50700ea8757000080fa0000000600f5
:10abac000000fa0060502f00004188008000200057
:10abbc0010418800008220000080fa00000006008e
:10abcc000000fa00c02a2f0000408800500120002d
:10abdc0010408800602d2f0020408800d0022000fb
:10abec003040880000332f0040408800d002200005
:10abfc00504088000080fa00000006000600fa00b1
:10ac0c00000f78000e80e80001087800640047000f
:10ac1c0002087800b04080000000e800b0408800d6
:10ac2c00e08e2e0042512000800078001e0078003b
:10ac3c00cef50700b0408000610060000040780055
:10ac4c000004e0000a0032006400470010007800a5
:10ac5c000000e0000600320064004700100178009c
:10ac6c000e80e800900078001e0078003bf9070089
:10ac7c000e80e8001000780065004000104078005d
:10ac8c000080fb007e00b900800078000e80e80098
:10ac9c001000780066004000104078000080fb0037
:10acac000000d100004078000080fb0000804000d4
:10acbc0080027800240320003103200042408000f1
:10accc00534080001e007800c3f707000e80e80098
:10acdc001000780066004000104078000080fb00f7
:10acec006600b90000007800800278002403200080
:10acfc003103200022408000334080001e00780089
:10ad0c00b5f707000e80e8001000780067004000df
:10ad1c00104078000080fb006600b900000078004d
:10ad2c0080027800240320003103200002408000c0
:10ad3c00134080001e007800a7f707000080fa007f
:10ad4c00000006000000fa00a0382f009040880098
:10ad5c0040002000a0408800208120000080fa00e4
:10ad6c00000006000200fa00000f78001e007800b8
:10ad7c000000e00003003200e10f5000060032003a
:10ad8c000b003700c04e25006041880084ff07008f
:10ad9c00704188000600370089ff070040602500dd
:10adac0060418800e7ff0700704188000000000048
:10adbc000080fa00000006000600fa00000f780080
:10adcc000e80e80001087800640047000208780053
:10addc00604180000000e000070032006341800009
:10adec0064004700100178000e80e80090007800a5
:10adfc001e007800030001000080fa00000006002d
:10ae0c000000fa00704180000080fa00000006008b
:10ae1c000400fa008e80e800800878000000eb0047
:10ae2c00000f78001300370070418000900078000c
:10ae3c001e007800000040000080400010007800e8
:10ae4c008e80e80091007800810f500008003a00d5
:10ae5c0070418000900078001e0078000000e8002f
:10ae6c00000040000080400010007800080037000f
:10ae7c001e0fe800704180000080e8001000780090
:10ae8c000000e9009e0f5000e7ff3c000000eb00c3
:10ae9c000080fa00000006000000fa0078fb0700b2
:10aeac009dfb07004bfc070058fc070020292500e0
:10aebc0008f907008000eb006000200021f9070072
:10aecc007d00070036fd07005efa0700800c2000ad
:10aedc004800070010002000cefb0700800c20006b
:10aeec004400070010002000d8fb070060ec2d0088
:10aefc004251200080007800402621001bf50700fd
:10af0c004026210077fd0700c0532f00801f7800da
:10af1c00880007008f87e9000000eb0091f907001b
:10af2c00803e200033000700400120003100070064
:10af3c0019fc07000004a2000004e000030032002a
:10af4c00040007000080fa000000060055fa070014
:10af5c00f5ff37000000fa0050542f00801f7800d6
:10af6c00740007008f87e9004dfd07000000eb001f
:10af7c00def807004c0007007bfb070053fb0700c3
:10af8c0002003700200020001a00070002fc070016
:10af9c000004a2000004e000faff3a0020002000a8
:10afac00140007000080fa00000006000200fa00fe
:10afbc00000f78001e0078004200dd00000f7800c2
:10afcc0001003700000000001e00780000f0a70010
:10afdc000000ea000000ea004f00de0000407800ac
:10afec001e0fe9000004e000f6ff3a000080fa00b2
:10affc00000006000200fa00000f78000200370083
:10b00c00803e2000e9ff07001e00780000f0a7003a
:10b01c000000ea000000ea004f00de00004078006b
:10b02c001e0fe9000004e000f5ff3a000080fa0072
:10b03c00000006000000fa00c1368000f00f2c0062
:10b04c00808060000030200001007000c036880055
:10b05c002135800000fc2f00008060004001b3000f
:10b06c00203588002136800000fc2f000080600015
:10b07c007000b3002036880011368000f00f2c00d1
:10b08c000080600000b0a0001036880041358000c0
:10b09c0000fc2f00008060000010a00040358800ec
:10b0ac000080fa00000006000000fa004022ef00c9
:10b0bc000080fa00000006000000fa00f0132000e7
:10b0cc001012880000002800001288000080fa008e
:10b0dc00000006000200fa00004f78001e80fb0002
:10b0ec004012880000000000001280006100600027
:10b0fc000000e000fcff32004012800000407800ad
:10b10c000080fa00000006000000fa000040eb008e
:10b11c00f0ff07000080fa00000006000000fa00b3
:10b12c000080fa00000006000000fa000080fa001f
:10b13c00000006000200fa001e0078008000780073
:10b14c00e0552f001d00070068005700000f780025
:10b15c001e0078008000780068005700100078000e
:10b16c00160007001e00780080007800d0562f00d3
:10b17c00120007000080fa00000006000000fa0030
:10b18c0041062000803e2000ebfc07000080fa0006
:10b19c00000006000400fa00000f78000e80e800a2
:10b1ac00010878000e80e800900078001e007800fe
:10b1bc00e1fc07000080fa00000006000400fa0021
:10b1cc00000f78000e80e800010878000e80e8007f
:10b1dc00900078001e007800cee307000080fa0093
:04b1ec000000060059
:020000040000fa
:020000040001f9
:10000000ffff0000ffff0000ffff0000ffff0000f8
:10001000ffff0000ffff0000f0ff0000ffff0000f7
:10002000ffff0000ffff0000ffff0000ffff0000d8
:10003000fff00000ffff0000ffff0000ffff0000d7
:10004000ffff0000e7ff0000ffff0000f0ff0000df
:10005000ffff0000ffff0000ffff0000ffe70000c0
:10006000ffff0000fff00000ffff0000ffff0000a7
:10007000ffff0000ffff0000e3ff0000ffff0000a4
:10008000f0ff0000ffff0000ffff0000ffff000087
:10009000ffe10000ffff0000fff00000ffff000095
:1000a000ffff0000ffff0000ffff0000e1ff000076
:1000b000ffff0000f0ff0000ffff0000ffff000057
:1000c000ffff0000ffe00000ffff0000fff0000066
:1000d000ffff0000ffff0000ffff0000ffff000028
:1000e000e07f0000ffff0000f0ff0000ffff0000c6
:1000f000ffff0000ffff0000ffe000007fff0000a7
:10010000fff00000ffff0000ffff0000ffff000006
:10011000ffff0000e07f0000ffff0000f0ff000095
:10012000ffff0000ffff0000ffff0000ffc0000016
:100130003fff0000fff00000ffff0000ffff000096
:10014000ffff0000ffff0000c03f0000ffff0000b6
:10015000f0ff0000ffff0000ffff0000ffff0000b6
:10016000ffc000003fff0000fff00000ffff0000a5
:10017000ffff0000ffff0000ffff0000801f0000e6
:10018000ffff0000f0ff0000ffff0000ffff000086
:10019000ffff0000ff8000000fff0000fff00000e5
:1001a000ffff0000ffff0000ffff0000ffff000057
:1001b000800f0000ffff0000f0ff0000ffff0000c5
:1001c000ffff0000ffff0000ff0000000fff000026
:1001d000fff00000ffff0000ffff0000ffff000036
:1001e000ffff0000000f0000ffff0000f0ff000015
:1001f000ffff0000ffff0000ffff0000fe00000007
:1002000007ff0000fff00000ffff0000ffff0000fd
:10021000ffff0000fffe000000070000ffff0000de
:10022000f0ff0000ffff0000ffff0000ffff0000e5
:10023000fe00000007ff0000fff00000ffff0000cd
:10024000ffff0000ffff0000fffc000000070000b0
:10025000ffff0000f0ff0000ffff0000ffff0000b5
:10026000ffff0000fc00000007ff0000fff000009f
:10027000ffff0000ffff0000ffff0000fff800008d
:1002800000070000ffff0000f0ff0000ffff00007c
:10029000ffff0000ffff0000f000000007ff00006c
:1002a000fff00000ffff0000ffff0000ffff000065
:1002b000fff0000000070000ffff0000f0ff00005b
:1002c000ffff0000ffff0000ffff0000e000000054
:1002d00007ff0000fff00000ffff0000ffff00002d
:1002e000ffff0000ffc00000000f0000ffff000044
:1002f000f0ff0000ffff0000ffff0000ffff000015
:10030000800000000fff0000fff00000ffff000072
:10031000ffff0000ffff0000ff000000001f0000c3
:10032000ffff0000f0ff0000ffff0000ffff0000e4
:10033000ffff0000000000001fff0000fff00000b2
:10034000ffff0000ffff0000ffff0000fe000000b5
:10035000003f0000ffff0000f0ff0000ffff000073
:10036000ffff0000fffe0000000000007fff000014
:10037000fff00000ffff0000ffff0000ffff000094
:10038000fc000000007f0000ffff0000f0ff000005
:10039000ffff0000ffff0000fff80000000000006a
:1003a000ffff0000fff00000ffff0000ffff000064
:1003b000ffff0000f800000001ff0000ffff000049
:1003c000f0ff0000ffff0000ffff0000fff0000053
:1003d00000010000ffff0000fff00000ffff000031
:1003e000ffff0000ffff0000e000000003ff00002f
:1003f000ffff0000f0ff0000ffff0000ffff000014
:10040000ffc0000000070000ffff0000fff0000039
:10041000ffff0000ffff0000ffff00008000000062
:1004200007ff0000ffff0000f0ff0000ffff0000db
:10043000ffff0000ff000000000f0000ffff0000b2
:10044000fff00000ffff0000ffff0000ffff0000c3
:10045000000000003ff70000ffff0000f0ff000079
:10046000ffff0000ffff0000fe000000003f000053
:10047000f3ff0000fff00000ffff0000ffff00009f
:10048000fffc0000000000007fe30000ffff000011
:10049000f0ff0000ffff0000ffff0000f800000079
:1004a00000ff0000e1ff0000fff00000ffff000080
:1004b000ffff0000fff8000000000000ffc1000087
:1004c000ffff0000f0ff0000ffff0000ffff000043
:1004d000f000000001ff000081ff0000fff00000bd
:1004e000ffff0000ffff0000ffe00000000300002e
:1004f000ff000000ffff0000f0ff0000ffff000012
:10050000ffff0000c000000003ff000000ff00002c
:10051000fff00000ffff0000ffff0000ffc0000031
:1005200000070000fe000000ffff0000f0ff0000d9
:10053000ffff0000ffff0000800000000ffc000034
:1005400000ff0000fff00000ffff0000ffff0000c1
:10055000ff800000001f0000f8000000ffff000007
:10056000f0ff0000ffff0000ffff000000000000a0
:100570003ff0000000ff0000fff00000ffff000060
:10058000ffff0000ff000000007f0000f0000000ff
:10059000ffff0000f0ff0000ffff0000fffe000073
:1005a000000000007ff0000000ff0000fff00000ee
:1005b000ffff0000ffff0000fc00000000ff000044
:1005c000e0000000ffff0000f0ff0000ffff000060
:1005d000fffc000000010000ffc0000000ff000061
:1005e000fff00000ffff0000ffff0000f800000028
:1005f00003ff000080000000ffff0000f0ff00008c
:10060000ffff0000fff0000000070000ff000000f7
:1006100000ff0000fff00000ffff0000ffff0000f0
:10062000f00000000ffe000000000000ffff0000cf
:10063000f0ff0000ffff0000ffe00000001f0000cf
:10064000f800000000ff0000fff00000ffff0000c6
:10065000ffff0000e00000003ff00000000100008c
:10066000ffff0000f0ff0000ffff0000ffc00000e0
:10067000003f0000e000000003ff0000fff000006a
:10068000ffff0000ffff0000800000007f800000ef
:1006900000070000ffff0000f0ff0000ffff000068
:1006a000ff80000000ff0000000000001fff0000ae
:1006b000fff00000ffff0000ffff0000000000004f
:1006c000fe000000003f0000ffff0000f0ff000000
:1006d000ffff0000ff00000000fc00000000000021
:1006e0007fff0000fff00000ffff0000ffff0000a1
:1006f00000010000f800000000ff0000ffff000004
:10070000f0ff0000ffff0000ff00000001f000000c
:1007100000010000ffff0000fff00000ffff0000ed
:10072000ffff000000230000e000000007ff0000c2
:10073000ffff0000f0ff0000ffff0000ff000000cf
:1007400003e0000000070000ffff0000fff00000d2
:10075000ffff0000ffff000000070000c0000000d6
:100760000fc70000ffff0000f0ff0000ffff0000c8
:10077000ff00000007c40000001f000003ff00008e
:10078000fff00000ffff0000ffff00000007000077
:10079000800000003f030000ffff0000f0ff0000aa
:1007a000ffff0000ff00000007800000107e000037
:1007b00003ff0000fff00000ffff0000ffff00004c
:1007c0000007000000000000fc030000ffff000025
:1007d000f0ff0000ffff0000ff8000000f0000009e
:1007e00003f8000003ff0000fff00000ffff00001f
:1007f000ffff0000800f000000070000f003000072
:10080000ffff0000f0ff0000ffff0000ff8000007e
:100810000f0000000fe0000003ff0000fff00000e9
:10082000ffff0000ffff0000c00f0000001f0000de
:10083000e0030000ffff0000f0ff0000ffff0000ea
:10084000ffc000000f0000003fc0000003ff0000d9
:10085000fff00000ffff0000ffff0000c00f0000de
:10086000007f0000c0030000ffff0000f0ff000059
:10087000ffff0000ffc200000f1c00007f8000008f
:1008800023ff0000fff00000ffff0000ffff00005b
:10089000e20f00001c7f000000230000ffff0000ab
:1008a000f0ff0000ffff0000ffe000000f1000005d
:1008b000fe00000007ff0000fff00000ffff000047
:1008c000ffff0000f00f000001f80000000f000023
:1008d000ffff0000f0ff0000ffff0000fff000003e
:1008e000ef010000f00000000fff0000fff000002b
:1008f000ffff0000ffff0000f86f000003e00000b2
:10090000001f0000ffff0000f0ff0000ffff0000dd
:10091000fffe00002f070000c00000003fff0000a6
:10092000fff00000ffff0000ffff0000fe2f0000af
:100930000e000000807f0000ffff0000f0ff0000bd
:10094000ffff0000ffff00000f0e0000000100008d
:10095000ffff0000fff00000ffff0000ffff0000ae
:10096000ff0f00001e70000003ff0000ffff0000eb
:10097000f0ff0000ffff0000ffff0000cffe0000bf
:1009800000070000ffff0000fff00000ffff000075
:10099000ffff0000ffff0000fe0000003fff00001f
:1009a000ffff0000f0ff0000ffff0000ffff00005e
:1009b000fffe000001ff0000ffff0000fff000004d
:1009c000ffff0000ffff0000ffff0000ffff00002f
:1009d000ffff0000ffff0000f0ff0000ffff00002e
:1009e000ffff0000ffff0000ffff0000ffff00000f
:1009f000fff00000ffff0000ffff0000ffff00000e
:100a0000ffff0000ffff0000ffff0000f0ff0000fd
:100a1000ffff0000ffff0000ffff0000ffff0000de
:100a2000ffff0000fff00000ffff0000ffff0000dd
:100a3000ffff0000ffff0000ffff0000ffff0000be
:100a4000f0ff0000ffff0000ffff0000ffff0000bd
:100a5000ffff0000ffff0000fff00000ffff0000ad
:100a6000ffff0000ffff0000ffff0000ffff00008e
:100a7000ffff0000f0ff0000ffff0000ffff00008d
:100a8000ffff0000ffff0000ffff0000fff000007d
:100a9000ffff0000ffff0000ffff0000ffff00005e
:100aa000ffff0000ffff0000f0ff0000ffff00005d
:100ab000ffff0000ffff0000ffff0000ffff00003e
:100ac000fff00000ffff0000ffff0000ffff00003d
:100ad000ffff0000ffff0000ffff0000f0ff00002d
:100ae000ffff0000ffff0000ffff0000ffff00000e
:100af000ffff0000fff00000ffff0000ffff00000d
:100b0000ffff0000ffff0000ffff0000ffff0000ed
:100b1000f0ff0000ffff0000ffff0000ffff0000ec
:100b2000ffff0000ffff0000fff00000ffff0000dc
:100b3000ffff0000ffff0000ffff0000ffff0000bd
:100b4000ffff0000f0ff0000ffff0000ffff0000bc
:100b5000ffff0000ffff0000ffff0000fff00000ac
:100b6000ffff0000ffff0000ffff0000fff000009c
:100b7000ffff0000ffff0000f0ff0000ffff00008c
:100b8000ffff0000ffff0000f07f0000ffff0000fc
:100b9000fff00000ffff0000ffff0000ffff00006c
:100ba000ffe000007fff0000ffff0000f0ff0000fb
:100bb000ffff0000ffff0000ffff0000e07f0000dc
:100bc000ffff0000fff00000ffff0000ffff00003c
:100bd000ffff0000ff8000007fff0000ffff00001c
:100be000f0ff0000ffff0000ffff0000ffff00001c
:100bf000007f0000ffff0000fff00000ffff00008b
:100c0000ffff0000ffff0000fe0000007fff00006c
:100c1000ffff0000f0ff0000ffff0000ffff0000eb
:100c2000fffc0000007f0000ffff0000fff000005d
:100c3000ffff0000ffff0000ffff0000fc000000be
:100c40007fff0000ffff0000f0ff0000ffff00003b
:100c5000ffff0000fff80000007f0000ffff000022
:100c6000fff00000ffff0000ffff0000ffff00009b
:100c7000f00000007fff0000ffff0000f0ff000019
:100c8000ffff0000ffff0000ffe00000007f00000a
:100c90001fff0000fff00000ffff0000ffff00004b
:100ca000ffff0000e00000007f0f0000ffff0000da
:100cb000f0ff0000ffff0000ffff0000ffc000008a
:100cc000007e000007ff0000fff00000ffff0000b3
:100cd000ffff0000ffff0000c00000007e070000d3
:100ce000ffff0000f0ff0000ffff0000ffff00001b
:100cf000ff800000007c000007ff0000fff0000004
:100d0000ffff0000ffff0000ffff00008000000069
:100d100078070000ffff0000f0ff0000ffff000069
:100d2000ffff0000ff8000000078000007ff0000c8
:100d3000fff00000ffff0000ffff0000ffff0000ca
:100d40000000000078070000ffff0000f0ff000037
:100d5000ffff0000ffff0000fe0000000078000021
:100d600003ff0000fff00000ffff0000ffff000096
:100d7000fffe00000000000078030000ffff0000fd
:100d8000f0ff0000ffff0000ffff0000fc0000007c
:100d90000078000003ff0000fff00000ffff0000ec
:100da000ffff0000fffc00000000000078030000cf
:100db000ffff0000f0ff0000ffff0000ffff00004a
:100dc000f80000000078000003ff0000fff00000c2
:100dd000ffff0000ffff0000fff800000000000020
:100de00078030000ffff0000f0ff0000ffff00009d
:100df000ffff0000f80000000078000001ff000085
:100e0000fff00000ffff0000ffff0000fff8000000
:100e1000000000007c000000ffff0000f0ff000069
:100e2000ffff0000ffff0000f0000000003e000098
:100e300000ff0000fff00000ffff0000ffff0000c8
:100e4000fff00000000000003e0000007fff0000f7
:100e5000f0ff0000ffff0000ffff0000f0000000b7
:100e6000003f0000007f0000fff00000ffff0000d7
:100e7000ffff0000fff00000000000003f00000046
:100e80007fff0000f0ff0000ffff0000ffff0000f9
:100e9000e0000000003f0000007f0000fff00000c5
:100ea000ffff0000ffff0000ffe000000000000067
:100eb0003f8000003fff0000f0ff0000ffff000048
:100ec000ffff0000e0000000003f0000c03f000006
:100ed000fff00000ffff0000ffff0000ffe0000048
:100ee000000000000fc000003fff0000f0ff000006
:100ef000ffff0000ffff0000e0000000000f000007
:100f0000c03f0000fff00000ffff0000ffff0000f7
:100f1000ffe00000000000000fc000003fff0000e5
:100f2000f0ff0000ffff0000ffff0000e0000000f6
:100f300000070000c03f0000fff00000ffff0000be
:100f4000ffff00003fe000000000000007c00000bd
:100f50003fff0000f0ff0000ffff0000ff1f000048
:100f6000e000000000070000c03f0000fff00000ac
:100f7000ffff0000ffff00000fe000000000000086
:100f800003e000007fff0000f0ff0000ffff000013
:100f9000ff0f0000e000000000010000e07f000003
:100fa000fff00000ffff0000ffff000003e0000073
:100fb0000000000001e10000ffff0000f0ff000062
:100fc000ffff0000ff030000c00000000000000061
:100fd000f3ff0000fff00000ffff0000ffff000034
:100fe00003c000000000000000f70000ffff000049
:100ff000f0ff0000ffff0000ff810000c0000000c4
:1010000000080000ffff0000fff00000ffff0000ed
:10101000ffff0000e3c0000000000000087f0000a8
:10102000ffff0000f0ff0000ffff0000fff30000e3
:10103000c0000000000800007fff0000fff000007b
:10104000ffff0000ffff0000fbc0000000000000e9
:10105000087f0000ffff0000f0ff0000ffff00001e
:10106000ffff000080000000000000007fff000084
:10107000fff00000ffff0000ffff0000ff80000006
:1010800040000000003f0000ffff0000f0ff0000f4
:10109000ffff0000ffff0000801c000000000000b8
:1010a0003fff0000fff00000ffff0000ffff000017
:1010b000ff0000001c000000023f0000ffff0000d6
:1010c000f0ff0000ffff0000ffff0000003c0000f9
:1010d000000200003fff0000fff00000ffff0000e3
:1010e000ffff0000ff0000003e000000021f0000a4
:1010f000ffff0000f0ff0000ffff0000ff80000086
:10110000203e0000000600001fff0000fff000006e
:10111000ffff0000ffff0000802000003e000000f5
:10112000021f0000ffff0000f0ff0000ffff0000b3
:10113000ff800000003e0000000200001fff0000d2
:10114000fff00000ffff0000ffff00008000000034
:101150007e000000021f0000ffff0000f0ff000003
:10116000ffff0000ff000000007e00000002000002
:101170001fff0000fff00000ffff0000ffff000066
:1011800030080000fe000000021f0000ffff00000a
:10119000f0ff0000ffff0000ff30000008fe00002d
:1011a000000400001fff0000fff00000ffff000030
:1011b000fffe000020210000fe000000041f0000d0
:1011c000ffff0000f0ff0000ffff0000fe20000016
:1011d00063fc0000000200007fff0000fff0000041
:1011e000ffff0000fffe000021870000fc00000060
:1011f000027f0000ffff0000f0ff0000ffff000083
:10120000fe02000007f80000001800007fff000049
:10121000fff00000ffff0000fffc00008e1f000039
:10122000f9800000187f0000ffff0000f0ff0000c1
:10123000ffff0000f8c800003ff100008008000038
:10124000ffff0000fff00000ffff0000fff00000c4
:10125000e07f0000f180000000ff0000ffff0000c1
:10126000f0ff0000ffff0000f1e10000ffe10000df
:1012700080030000ffff0000fff00000ffff000000
:10128000ffe4000003ff0000e1010000c7ff0000d1
:10129000ffff0000f0ff0000ffff0000e00700007c
:1012a000ffe40000070f0000ffff0000fff0000058
:1012b000ffff0000fff800001fff0000c407000050
:1012c0001fff0000ffff0000f0ff0000ffff000015
:1012d000ffff0000ffc40000073f0000ffff000009
:1012e000fff00000ffff0000ffff0000ffff000015
:1012f000841e00003fff0000ffff0000f0ff000021
:10130000ffff0000ffff0000ff9e0000c0ff000085
:10131000ffff0000fff00000ffff0000ffff0000e4
:10132000ffff000098010000ffff0000ffff00002a
:10133000f0ff0000ffff0000ffff0000fe000000c4
:1013400003ff0000ffff0000fff00000ffff0000b0
:10135000ffff0000fffe0000000f0000ffff000085
:10136000ffff0000f0ff0000ffff0000ffff000094
:10137000fe0000003fff0000ffff0000fff0000044
:10138000ffff0000ffff0000ffff0000f1ff000073
:10139000ffff0000ffff0000f0ff0000ffff000064
:1013a000ffff0000ffff0000ffff0000ffff000045
:1013b000fff00000ffff0000ffff0000ffff000044
:1013c000ffff0000ffff0000ffff0000f0ff000034
:1013d000ffff0000ffff0000ffff0000ffff000015
:1013e000ffff0000fff00000ffff0000ffff000014
:1013f000ffff0000ffff0000ffff0000ffff0000f5
:10140000f0ff0000ffff0000ffff0000ffff0000f3
:10141000ffff0000ffff0000fff00000ffff0000e3
:10142000ffff0000ffff0000ffff0000ffff0000c4
:10143000ffff0000f0ff0000ffff0000ffff0000c3
:10144000ffff0000ffff0000ffff0000fff00000b3
:10145000ffff0000ffff0000ffff0000ffff000094
:10146000ffff0000ffff0000f0ff0000ffff000093
:10147000ffff0000ffff0000ffff0000ffff000074
:10148000fff00000ffff0000ffff0000ffff000073
:10149000ffff0000ffff0000ffff0000f0ff000063
:1014a000ffff0000ffff0000ffff0000ffff000044
:1014b000ffff0000fff00000ffff0000ffff000043
:1014c000ffff0000ffff0000ffff0000ffff000024
:1014d000f0ff0000ffff0000ffff0000ffff000023
:1014e000ffff0000ffff0000fff00000ffff000013
:1014f000ffff0000ffff0000ffff0000ffff0000f4
:10150000ffff0000f0ff0000ffff0000ffff0000f2
:10151000ffff0000ffff0000ffff0000fff00000e2
:10152000ffff0000ffff0000ffff0000ffff0000c3
:10153000ffff0000ffff0000f0ff0000ffff0000c2
:10154000ffff0000ffff0000ffff0000ffff0000a3
:10155000fff00000ffff0000ffff0000ffff0000a2
:10156000ffff000087ff0000ffff0000f0ff00000a
:10157000ffff0000ffff0000ffff0000fe0700006c
:10158000ffff0000fff00000ffff0000ffff000072
:10159000ffff0000fffc00000fff0000ffff000046
:1015a000f0ff0000ffff0000ffff0000ffff000052
:1015b000f80f0000ffff0000fff00000ffff000039
:1015c000ffff0000ffff0000fff000009fff000092
:1015d000ffff0000f0ff0000ffff0000ffff000022
:1015e000ffff0000c01f0000ffff0000fff0000031
:1015f000ffff0000ffff0000ffff0000ff000000f2
:101600003fff0000ffff0000f0ff0000ffff0000b1
:10161000ffff0000fffe0000007f0000ffff000052
:10162000fff00000ffff0000ffff0000ffff0000d1
:10163000fc000000ffff0000ffff0000f0ff0000c3
:10164000ffff0000ffff0000fffc000000ff0000a4
:10165000ffff0000fff00000ffff0000ffff0000a1
:10166000ffff0000f0010000ffff0000ffff00008f
:10167000f0ff0000ffff0000ffff0000ffe00000a0
:1016800001ff0000ffff0000fff00000ffff00006f
:10169000ffff0000ffff0000e0010000ffff00006f
:1016a000ffff0000f0ff0000ffff0000ffff000051
:1016b000ffc0000003ff00007fff0000fff00000fc
:1016c000ffff0000ffff0000ffff00008007000099
:1016d000fe7f0000ffff0000f0ff0000ffff0000a2
:1016e000ffff0000fe00000007f800007fff000081
:1016f000fff00000ffff0000ffff0000fffe000002
:10170000000f0000f03f0000ffff0000f0ff0000ae
:10171000ffff0000ffff0000fe0000000ff00000d0
:101720003fff0000fff00000ffff0000ffff000090
:10173000fbfc0000001f0000e03f0000ffff000076
:10174000f0ff0000ffff0000fff30000fc000000be
:101750001fe000003fff0000fff00000ffff00005f
:10176000ffff0000e3f80000001f0000e03f000062
:10177000ffff0000f0ff0000ffff0000ffc30000bc
:10178000f00000001fe000003fff0000fff000003d
:10179000ffff0000ffff0000cbe00000001f000083
:1017a000e03f0000ffff0000f0ff0000ffff00002f
:1017b000ff830000e00000001fc000001fff0000ca
:1017c000fff00000ffff0000ffff000003e000004b
:1017d000001f0000c01f0000ffff0000f0ff00001e
:1017e000ffff0000fe030000e00000001fc000003b
:1017f0001fff0000fff00000ffff0000fffe0000e1
:1018000003e00000001f0000c01f0000ffff0000f9
:10181000f0ff0000ffff0000fc030000e0000000fc
:101820001fc000001fff0000fff00000ffff0000ce
:10183000fffc000003e00000001f0000c09f00004c
:10184000ffff0000f0ff0000ffff0000fd030000ad
:10185000e00000001fc000009fff0000fff000003c
:10186000ffff0000fffd000003e00000001f00007c
:10187000c09f0000ffff0000f0ff0000ffff00001e
:10188000fd030000e20000001fc000008fff000009
:10189000fff00000ffff0000fffc000003e200007b
:1018a000001f0000c00f0000ffff0000f0ff00005d
:1018b000ffff0000f8030000e20000001fc000006e
:1018c00007ff0000fff00000ffff0000fff800002e
:1018d00003e20000001f0000c0270000ffff00001f
:1018e000f0ff0000ffff0000f9030000e20000002d
:1018f0001fc0000003ff0000fff00000ffff00001a
:10190000fff900000bf20000000f0000c003000010
:10191000ffff0000f0ff0000ffff0000f9090000da
:10192000f20000000fc0000003ff0000fff0000005
:10193000ffff0000fff9000088f200000007000030
:10194000c0010000ffff0000f0ff0000ffff0000eb
:10195000f90800007200000047c2000001ff00000b
:10196000fff00000ffff0000fff90000007a000018
:1019700000470000c2000000ffff0000f0ff000071
:10198000ffff0000f80000007e00000003c200001e
:1019900002ff0000fff00000ffff0000fffc00005e
:1019a0000278000000330000e20200007fff000028
:1019b000f0ff0000ffff0000fc02000078000000c4
:1019c00033e20000027f0000fff00000ffff000094
:1019d000fffc0000027c000040110000e20000005b
:1019e0007fff0000f0ff0000ffff0000fe0200008c
:1019f0003e40000011e20000007f0000fff0000008
:101a0000ffff0000fffe0000223e0000403100000a
:101a1000e20100007fff0000f0ff0000ffff000078
:101a2000ff2000001f60000030c20000013f0000e6
:101a3000fff00000ffff0000ffff0000000f0000ac
:101a400060300000c20100003fff0000f0ff000016
:101a5000ffff0000ff0800008f00000000c2000030
:101a6000013f0000fff00000ffff0000ffff00004b
:101a70000887000000000000000100003fff000098
:101a8000f0ff0000ffff0000ff88000087800000db
:101a900000000000013f0000fff00000ffff000019
:101aa000ffff000088870000900000000001000098
:101ab0003fff0000f0ff0000ffff0000ff8c000070
:101ac0006780000000000000033f0000fff00000fe
:101ad000ffff0000ffff00008e6300009000000089
:101ae000c00700003fff0000f0ff0000ffff000004
:101af000ffce000063d0000000000000073f0000a0
:101b0000fff00000ffff0000ffff0000ce230000f9
:101b1000c0000000000600003fff0000f0ff0000d2
:101b2000ffff0000ffc1000063c0000000000000d4
:101b3000063f0000fff00000ffff0000ffff000075
:101b4000c1e10000c0000000000600003fff0000ef
:101b5000f0ff0000ffff0000ffc10000e1c0000037
:101b600000000000063f0000fff00000ffff000043
:101b7000ffff0000c1890000c482000001e60000f0
:101b80003fff0000f0ff0000ffff0000ffc100006a
:101b900009c4000010070000963f0000fff000009d
:101ba000ffff0000ffff0000c8010000c0000000b0
:101bb000071e00003fff0000f0ff0000ffff0000d5
:101bc000ff8f000001c0000020010000387f0000ee
:101bd000fff00000ffff0000ffff00008919000078
:101be000c0200000219800007fff0000f0ff0000ef
:101bf000ffff0000ff08000099c10000c0260000a0
:101c000008ff0000fff00000ffff0000ffff0000e2
:101c10001c1b0000c08300001c300000ffff000000
:101c2000f0ff0000ffff0000fe3d00009bd8000019
:101c30000790000031ff0000fff00000ffff0000f0
:101c4000fffe0000249b0000d80400008221000059
:101c5000ffff0000f0ff0000ffff0000fe04000097
:101c6000939800002002000063ff0000fff00000d6
:101c7000ffff0000fffe00000c070000982300009b
:101c80003e670000ffff0000f0ff0000ffff0000c4
:101c9000fe0f0000ee600000000f00008fff00004c
:101ca000fff00000ffff0000fffe00000d9c0000a1
:101cb000610200004e1f0000ffff0000f0ff000067
:101cc000ffff0000fe0e0000184000001ff00000a3
:101cd0003fff0000fff00000ffff0000ffff0000db
:101ce0000638000080780000607f0000ffff0000e1
:101cf000f0ff0000ffff0000ff860000330100003e
:101d000008610000ffff0000fff00000ffff00007f
:101d1000ffff0000e0f300000ffe000003ff0000e3
:101d2000ffff0000f0ff0000ffff0000ffff0000ca
:101d3000f0000000000f0000ffff0000fff00000b7
:101d4000ffff0000ffff0000fff0000000000000a8
:101d50007fff0000ffff0000f0ff0000ffff00001a
:101d6000ffff0000f800000001ff0000ffff00007f
:101d7000fff00000ffff0000ffff0000fffc00007d
:101d8000007f0000ffff0000ffff0000f0ff0000e9
:101d9000ffff0000ffff0000ffff0000ffff00004b
:101da000ffff0000fff00000ffff0000ffff00004a
:101db000ffff0000ffff0000ffff0000ffff00002b
:101dc000f0ff0000ffff0000ffff0000ffff00002a
:101dd000ffff0000ffff0000fff00000ffff00001a
:101de000ffff0000ffff0000ffff0000ffff0000fb
:101df000ffff0000f0ff0000ffff0000ffff0000fa
:101e0000ffff0000ffff0000ffff0000fff00000e9
:101e1000ffff0000ffff0000ffff0000ffff0000ca
:101e2000ffff0000ffff0000f0ff0000ffff0000c9
:101e3000ffff0000ffff0000ffff0000ffff0000aa
:101e4000fff00000ffff0000ffff0000ffff0000a9
:101e5000ffff0000ffff0000ffff0000f0ff000099
:101e6000ffff0000ffff0000ffff0000ffff00007a
:101e7000ffff0000fff00000ffff0000ffff000079
:101e8000ffff0000ffff0000ffff0000ffff00005a
:101e9000f0ff0000ffff0000ffff0000ffff000059
:101ea000ffff0000ffff0000fff00000ffff000049
:101eb000ffff0000ffff0000ffff0000ffff00002a
:101ec000ffff0000f0ff0000ffff0000ffff000029
:101ed000ffff0000ffff0000ffff0000fff0000019
:101ee000ffff0000ffff0000ffff0000ffff0000fa
:101ef000ffff0000ffff0000f0ff0000ffff0000f9
:101f0000ffff0000ffff0000ffff0000ffff0000d9
:101f1000fff00000ffff0000ffff0000ffff0000d8
:101f2000ffff0000ffff0000ffff0000f0ff0000c8
:101f3000ffff0000ffff0000ffff0000ffff0000a9
:101f4000ffff0000fff00000ffff0000ffff0000a8
:101f5000ffff0000ffff0000ffff0000ffff000089
:101f6000f0ff0000ffff0000ffff0000ffff000088
:101f7000ffff0000ffff0000fff00000ffff000078
:101f8000ffff0000ffff0000ffff0000ffff000059
:101f9000ffff0000f0ff0000ffff0000ffff000058
:101fa000ffff0000ffff0000ffff0000fff0000048
:101fb000ffff0000ffff0000ffff0000ffff000029
:101fc000ffff0000ffff0000f0ff0000ffff000028
:101fd000ffff0000ffff0000ffff0000ffff000009
:101fe000fff00000ffff0000ffff0000ffff000008
:101ff000ffff0000ffff0000ffff0000f0ff0000f8
:10200000ffff0000ffff0000ffff0000ffff0000d8
:10201000ffff0000fff00000ffff0000ffff0000d7
:10202000ffff0000ffff0000ffff0000ffff0000b8
:10203000f0ff0000ffff0000ffff0000ffff0000b7
:10204000ffff0000ffff0000fff00000ffff0000a7
:10205000ffff0000ffff0000ffff0000ffff000088
:10206000ffff0000f0ff0000ffff0000ffff000087
:10207000ffff0000ffcf0000ffff0000fff00000a7
:10208000ffff0000ffff0000ffff0000ffff000058
:102090000fff0000ffff0000f0ff0000ffff000047
:1020a000ffff0000ffff0000fe0f0000ffff000029
:1020b000fff00000ffff0000ffff0000ffff000037
:1020c000fffc00000fff0000ffff0000f0ff00001a
:1020d000ffff0000ffff0000ffff0000f81f0000ef
:1020e000ffff0000fff00000ffff0000ffff000007
:1020f000ffff0000ffe000001fff0000ffff0000e7
:10210000f0ff0000ffff0000ffff0000ffff0000e6
:10211000c03f0000ffff0000fff00000ffff0000d5
:10212000ffff0000ffff0000ff8000003fff0000f6
:10213000ffff0000f0ff0000ffff0000ffff0000b6
:10214000ffff0000803f0000ffff0000fff00000e5
:10215000ffff0000ffff0000ffff0000ff00000086
:102160003fff0000ffff0000f0ff0000ffff000046
:10217000ffff0000fffe0000001f0000ffff000047
:10218000fff00000ffff0000ffff0000ffff000066
:10219000fc0000001fff0000ffff0000f0ff000038
:1021a000ffff0000ffff0000fff80000001f00001d
:1021b000ffff0000fff00000ffff0000ffff000036
:1021c000fffb0000f00000000fff0000ffff000019
:1021d000f0ff0000ffff0000ffff0000e3e0000051
:1021e000000f0000ffff0000fff00000ffff0000f5
:1021f000ffff0000ffc30000c000000007ff000059
:10220000ffff0000f0ff0000ffff0000ffff0000e5
:1022100087c0000000030000ffff0000fff0000087
:10222000ffff0000ffff0000ff070000800000002c
:1022300001ff0000ffff0000f0ff0000ffff0000b3
:10224000ffff00000f80000000000000ffff000003
:10225000fff00000ffff0000ffff0000fe0f000086
:1022600000000000007f0000ffff0000f0ff000002
:10227000ffff0000fffc00001f0000000000000046
:102280003fff0000fff00000ffff0000ffff000025
:10229000f83f000000000000003f0000ffff0000ca
:1022a000f0ff0000ffff0000fff00000bf00000093
:1022b000000000001fff0000fff00000ffff000013
:1022c000ffff0000f07f000000000000000f000092
:1022d000ffff0000f0ff0000ffff0000ffe0000034
:1022e0007f000000000000000fff0000fff0000072
:1022f000ffff0000ffff0000e07f00000000000083
:10230000000f0000ffff0000f0ff0000ffff0000d3
:10231000ffc000007f0000000000000007ff000079
:10232000fff00000ffff0000ffff0000c07f000083
:102330000000000000070000ffff0000f0ff0000a9
:10234000ffff0000ffc000007f0000000000000051
:1023500003ff0000fff00000ffff0000ffff000090
:10236000c07f00000000000000030000ffff00002d
:10237000f0ff0000ffff0000ff8000007f00000072
:102380000000000001ff0000fff00000ffff000060
:10239000ffff0000807f000000000000000100003f
:1023a000ffff0000f0ff0000ffff0000ff800000c3
:1023b0007f0000000000000001ff0000fff00000af
:1023c000ffff0000ffff0000807f00000000000012
:1023d00000000000ffff0000f0ff0000ffff000012
:1023e000ff8000003f0000004000000000ff0000f0
:1023f000fff00000ffff0000ffff0000803f000033
:102400000040000000000000ffff0000f0ff00009f
:10241000ffff0000ff8000003f000000c000000040
:1024200000ff0000fff00000ffff0000ffff0000c2
:10243000809f000010cc000080000000ffff000023
:10244000f0ff0000ffff0000ff8000009f10000071
:10245000cc000000007f0000fff00000ffff000044
:10246000ffff0000800f0000100c000000000000c3
:102470007fff0000f0ff0000ffff0000ff80000072
:102480000f1000000c000000007f0000fff00000b3
:10249000ffff0000ffff0000c8070000100e000053
:1024a000000000007fff0000f0ff0000ffff0000c1
:1024b000ffc80000070000004e000000007f000081
:1024c000fff00000ffff0000ffff0000c807000052
:1024d000004e0000000000003fff0000f0ff000081
:1024e000ffff0000ffcc0000071000000e400000be
:1024f000003f0000fff00000ffff0000ffff0000b2
:10250000cc070000101f0000400000003fff00004b
:10251000f0ff0000ffff0000ffcc000027100000cc
:102520001f600000003f0000fff00000ffff000000
:10253000ffff0000c0670000101f000080000000c7
:102540003fff0000f0ff0000ffff0000ffc00000a1
:1025500067100000df800000003f0000fff0000077
:10256000ffff0000ffff0000c867000010df000051
:10257000880100003fff0000f0ff0000ffff0000a7
:10258000ffc80000271000001fc80000013f000026
:10259000fff00000ffff0000ffff0000c867000021
:1025a000101f0000e80000003fff0000f0ff0000e7
:1025b000ffff0000ffc0000067010000dfec00002b
:1025c000003f0000fff00000ffff0000ffff0000e1
:1025d000c0870000031f0000e50400003fff00006b
:1025e000f0ff0000ffff0000ffcd000086020000aa
:1025f0001fc00000047f0000fff00000ffff00008c
:10260000ffff0000c88c0000643f0000e0140000e1
:102610007fff0000f0ff0000ffff0000ff830000cd
:102620008c4400003ff200001c7f0000fff000001f
:10263000ffff0000ffff000080bc0000473f0000dc
:10264000f2100000ffff0000f0ff0000ffff00009d
:10265000ff800000319300003ff2000000ff000007
:10266000fff00000ffff0000ffff0000a26100007c
:10267000003f0000f3e10000ffff0000f0ff00005a
:10268000ffff0000ff260000610000003ff0000097
:10269000f9ff0000fff00000ffff0000fffe000058
:1026a00021c10000187f0000f0e30000ffff0000e0
:1026b000f0ff0000ffff0000fe230000c81800002c
:1026c000fff0000027ff0000fff00000ffff000008
:1026d000fffe0000270f0000e1ff0000f8070000e8
:1026e000ffff0000f0ff0000ffff0000fc270000dc
:1026f00004e30000fff800000fff0000fff00000ff
:10270000ffff0000fffc00000c24000007ff00009a
:10271000f83f0000ffff0000f0ff0000ffff000097
:10272000fffc0000600f0000fffd0000ffff000045
:10273000fff00000ffff0000ffff0000f8e00000d6
:102740003fff0000ffff0000ffff0000f0ff000060
:10275000ffff0000fff80000807f0000ffff000087
:10276000ffff0000fff00000ffff0000ffff000080
:10277000f8810000ffff0000ffff0000ffff0000e6
:10278000f0ff0000ffff0000fff8000003ff000063
:10279000ffff0000ffff0000fff00000ffff000050
:1027a000ffff0000f80f0000ffff0000ffff000028
:1027b000ffff0000f0ff0000ffff0000fff8000037
:1027c0003fff0000ffff0000ffff0000fff00000e0
:1027d000ffff0000ffff0000ffff0000ffff000001
:1027e000ffff0000ffff0000f0ff0000ffff000000
:1027f000ffff0000ffff0000ffff0000ffff0000e1
:10280000fff00000ffff0000ffff0000ffff0000df
:10281000ffff0000ffff0000ffff0000f0ff0000cf
:10282000ffff0000ffff0000ffff0000ffff0000b0
:10283000ffff0000fff00000ffff0000ffff0000af
:10284000ffff0000ffff0000ffff0000ffff000090
:10285000f0ff0000ffff0000ffff0000ffff00008f
:10286000ffff0000ffff0000fff00000ffff00007f
:10287000ffff0000ffff0000ffff0000ffff000060
:10288000ffff0000f0ff0000ffff0000ffff00005f
:10289000ffff0000ffff0000ffff0000fff000004f
:1028a000ffff0000ffff0000ffff0000ffff000030
:1028b000ffff0000ffff0000f0ff0000ffff00002f
:1028c000ffff0000ffff0000ffff0000ffff000010
:1028d000fff00000ffff0000ffff0000ffff00000f
:1028e000ffff0000ffff0000ffff0000f0ff0000ff
:1028f000ffff0000ffff0000ffff0000ffff0000e0
:10290000ffff0000fff00000ffff0000ffff0000de
:10291000ffff0000ffff0000ffff0000ffff0000bf
:10292000f0ff0000ffff0000ffff0000ffff0000be
:10293000ffff0000ffff0000fff00000ffff0000ae
:10294000ffff0000ffff0000ffff0000ffff00008f
:10295000ffff0000f0ff0000ffff0000ffff00008e
:10296000ffff0000ffff0000ffff0000fff000007e
:10297000ffff0000ffff0000ffff0000ffff00005f
:10298000ffff0000ffff0000f0ff0000ffff00005e
:10299000ffff0000ffff0000ffff0000ffff00003f
:1029a000fff00000ffff0000ffff0000ffff00003e
:1029b000ffff0000ffff0000ffff0000f0ff00002e
:1029c000ffff0000ffff0000ffff0000ffff00000f
:1029d000ffff0000fff00000ffff0000ffff00000e
:1029e000ffff0000ffff0000ffff0000ffff0000ef
:1029f000f0ff0000ffff0000ffff0000ffff0000ee
:102a0000ffff0000ffff0000fff00000ffff0000dd
:102a1000ffff0000ffff0000ffff0000ffff0000be
:102a2000ffff0000f0ff0000ffff0000ffff0000bd
:102a3000ffff0000ffff0000ffff0000fff00000ad
:102a4000ffff0000ffff0000ffff0000ffff00008e
:102a5000ffff0000ffff0000f0ff0000ffff00008d
:102a6000ffff0000ffff0000ffff0000ffff00006e
:102a7000fff00000ffff0000ffff0000ffff00006d
:102a8000ffff0000ffff0000ffff0000f0ff00005d
:102a9000ffff0000ffff0000ffff0000ffff00003e
:102aa000ffff0000fff00000ffff0000ffff00003d
:102ab000ffff0000ffff0000ffff0000ffff00001e
:102ac000f0ff0000ffff0000ffff0000ffff00001d
:102ad000ffff0000ffff0000fff00000ffff00000d
:102ae000ffff0000ffff0000ffff0000ffff0000ee
:102af000ffff0000f0ff0000ffff0000ffff0000ed
:102b0000ffff0000ffff0000ffff0000fff00000dc
:102b1000ffff0000ffff0000ffff0000ffff0000bd
:102b2000ffff0000ffff0000f0ff0000ffff0000bc
:102b3000ffff0000ffff0000ffff0000ffff00009d
:102b4000fff00000ffff0000ffff0000ffff00009c
:102b5000ffff0000ffff0000ffff0000f0ff00008c
:102b6000ffff0000ffff0000ffff00003fff00002d
:102b7000ffff0000fff00000ffff0000ffff00006c
:102b8000ffff0000ff1f0000ffff0000ffff00002d
:102b9000f0ff0000ffff0000fffd0000ffff00004e
:102ba00003ff0000ffff0000fff00000ffff000038
:102bb000ffff0000f8ff0000ff010000ffff000022
:102bc000ffff0000f0ff0000ffff0000fff8000023
:102bd0007fff000001ff0000ffff0000fff000008a
:102be000ffff0000ffff0000f87f0000ff00000073
:102bf000ffff0000ffff0000f0ff0000ffff0000ec
:102c0000fff800003fff000000ff0000ffff000092
:102c1000fff00000ffff0000ffff0000f03f00009a
:102c2000ff000000ffff0000ffff0000f0ff0000ba
:102c3000ffff0000fff000001fff0000007f00000a
:102c4000ffff0000fff00000ffff0000ffff00009b
:102c5000f01f0000ff0000007fff0000ffff0000ea
:102c6000f0ff0000ffff0000ffe000000fff00008a
:102c7000003f0000ffff0000fff00000ffff00002a
:102c8000ffff0000e00f0000ff0000001fff00003a
:102c9000ffff0000f0ff0000ffff0000ffe000006a
:102ca0000fff0000000f0000ffff0000fff000001a
:102cb000ffff0000ffff0000e00f0000ff0000002a
:102cc0000fff0000ffff0000f0ff0000ffff00000b
:102cd000ffe000000ffe000000070000ffff000003
:102ce000fff00000ffff0000ffff0000e00f00000a
:102cf000fc00000007ff0000ffff0000f0ff0000e5
:102d0000ffff0000ffc000000ffc000000070000f4
:102d1000ffff0000fff00000ffff0000ffff0000ca
:102d2000800f0000fc00000007ff0000ffff000014
:102d3000f0ff0000ffff0000ff8000000ffc00001c
:102d400000070000ffff0000fff00000ffff000091
:102d5000ffff0000800f0000f000000007ff0000f0
:102d6000ffff0000f0ff0000fffd0000fe0000007c
:102d70001ff0000000070000ffff0000fff0000050
:102d8000ffff0000f9fc0000003f0000e000000031
:102d900007ff0000ffff0000f0ff0000fff1000050
:102da000fc0000003fc0000000070000ffff000023
:102db000fff00000ffff0000c1f80000003f00002e
:102dc0000000000007ff0000ffff0000f0ff000010
:102dd000ff810000c00000007e000000000700002e
:102de000ffff0000fff00000ffff000081800000f7
:102df000007c00000000000007ff00007fff0000d3
:102e0000f0ff0000ff01000080000000fc00000057
:102e100000070000ff3f0000fff00000ffff000080
:102e20000180000000f800000000000007fe000024
:102e30003fff0000f0ff0000fe03000080000000e4
:102e4000f800000000070000fc3f0000fff0000059
:102e5000fffe00000300000001f000000000000081
:102e600007fc00003fff0000f0ff0000fc03000033
:102e700000030000f000000000070000fc1f00003d
:102e8000fff00000fffc00000000000003e0000075
:102e90000000000007fc00001fff0000f0ff000022
:102ea000fc00000000070000c0000000000f000050
:102eb000f80f0000fff00000fffc00000000000021
:102ec0000f800000000000000ff8000007ff000066
:102ed000f0ff0000fc000000000f00008000000078
:102ee000000f0000f0070000fff00000fffc0000f2
:102ef000000000001f000000000000001fe00000b4
:102f000007ff0000f0ff0000fc000000001e0000b2
:102f100020000000001f0000e0070000fff000009c
:102f2000fffc0000000000003e2000000000000048
:102f30003fc0000007ff0000f0ff0000fc000000a1
:102f4000003c000000000000003f00008003000083
:102f5000fff00000fffc0000000000007c0000000b
:102f6000000000003f00000003ff0000f0ff000031
:102f7000fe400000007c000000000000003e000059
:102f800000030000fff00000fffe00004000000012
:102f90007c000000000000000000000003ff0000b3
:102fa000f0ff0000fe000000007c00008000000038
:102fb0000007000000030000fff00000fffe00001b
:102fc000000000007c000000000000000200000083
:102fd00003ff0000f0ff0000fe000000007c000086
:102fe000000000000000000000030000fff00000ef
:102ff000ffff0000000000007c0000000000000057
:103000000000000003ff0000f0ff0000ff000000d0
:10301000007c000000000000000000000003000031
:10302000fff00000ffff0000800000007c000000b7
:10303000000000000000000023ff0000f0ff00007f
:10304000ff800000007c0000000000000000000085
:1030500000070000fff00000ffff0000c2040000b6
:103060007c000000000000000000000007ff0000de
:10307000f0ff0000ffe300000c7c000000000000f7
:1030800000000000000f0000fff00000ffff000044
:10309000f00400003c000000000000000000000000
:1030a0001fff0000f0ff0000fff80000043e0000da
:1030b0002000000000000000003f0000fff00000c2
:1030c000ffff0000fc1000001f30000000000000a7
:1030d000000400003fff0000f0ff0000ffff0000c1
:1030e000191f00003000000000000000047f0000f5
:1030f000fff00000ffff0000ff0300001f30000092
:103100000000000018180000ffff0000f0ff0000a2
:10311000ffff0000801f00000c00000000080000fe
:1031200021ff0000fff00000ffff0000ffe00000b3
:103130002f8a00000000000000e30000ffff0000f5
:10314000f0ff0000ffff0000f8070000c0000000d3
:10315000003000000fff0000fff00000ffff000044
:10316000ffff0000ffcc000040000000011f000036
:10317000ffff0000f0ff0000ffff0000ffff000066
:10318000e0600000038000001fff0000fff000006f
:10319000ffff0000ffff0000ffe00000000500004f
:1031a000703f0000ffff0000f0ff0000ffff000085
:1031b000ffff0000fd80000000200000ffff000076
:1031c000fff00000ffff0000ffff0000fffc000019
:1031d0001cb6000007ff0000ffff0000f0ff00002a
:1031e000ffff0000ffff0000fe000000000f0000d6
:1031f000ffff0000fff00000ffff0000ffff0000e6
:10320000ffff0000800000007fff0000ffff0000c4
:10321000f0ff0000ffff0000ffff0000fffc0000c8
:1032200001ff0000ffff0000fff00000ffff0000b3
:10323000ffff0000ffff0000ffff0000ffff000096
:10324000ffff0000f0ff0000ffff0000ffff000095
:10325000ffff0000ffff0000ffff0000fff0000085
:10326000ffff0000ffff0000ffff0000ffff000066
:10327000ffff0000ffff0000f0ff0000ffff000065
:10328000ffff0000ffff0000ffff0000ffff000046
:10329000fff00000ffff0000ffff0000ffff000045
:1032a000ffff0000ffff0000ffff0000f0ff000035
:1032b000ffff0000ffff0000ffff0000ffff000016
:1032c000ffff0000fff00000000000000000000011
:1032d00000000000000000000000000000000000ee
:1032e00000000000000000000000000000000000de
:1032f00000000000000000000000000000000000ce
:10330000000000000000000004040000070a0000a4
:103310000711000008030000040400000806000074
:103320000405000004060000070500000707000070
:10333000070700000707000007070000040400005b
:1033400006060000060600000b0700000707000045
:103350000706000006070000080400000707000039
:10336000060a000008070000070700000707000022
:1033700005080000070b0000060700000606000015
:103380000706000008060000050700000707000008
:1033900007070000050700000804000004070000fc
:1033a000040b0000080700000707000005060000e6
:1033b00005080000060900000606000005060000da
:1033c00004060000090000000100000000000000e9
:1033d00003000000000000001200000000000000d8
:1033e00016000000000000003cfc0000ffff000091
:1033f00000000000000000000000000000000000cd
:1034000000000000000000000000000000000000bc
:1034100000000000000000000000000000000000ac
:10342000000000000000000000000000000000009c
:10343000000000000000000000000000000000008c
:10344000000000000000000000000000000000007c
:10345000000000000000000000000000000000006c
:10346000000000000000000000000000000000005c
:10347000000000000000000000000000000000004c
:10348000000000000000000000000000000000003c
:1034900000c0000000000000c000000000c00000ec
:1034a00000000000c000000000c00000000000009c
:1034b000c000000000c0000000000000400000004c
:1034c00000400000000000000000000000000000bc
:1034d00000000000000000000000000000000000ec
:1034e000c00000000000000000000000000000001c
:1034f00000000000000000000000000000000000cc
:1035000000000000000000000000000000000000bb
:1035100000000000005800000000000058000000fb
:1035200000500000000000004000000000400000cb
:10353000000000000000000000000000000000008b
:10354000000000000000000000000000000000007b
:10355000000000000000000000000000000000006b
:10356000000000000000000000000000000000005b
:10357000000000000000000000000000000000004b
:10358000000000000000000000000000000000003b
:103590000000000000000000001200000000000019
:1035a00012000000001200000000000016000000e1
:1035b00000360000000000007f0000000024000032
:1035c000000000002400000000fe000000000000d9
:1035d0006c000000004800000000000048000000ef
:1035e000004800000000000058000000000000003b
:1035f00000000000000000000000000000000000cb
:1036000000000000000000000000000000000000ba
:10361000000000000000000000000000001000009a
:103620000000000010000000007800000000000012
:1036300048000000004c0000000000006c0000008a
:1036400000600000000000003000000000180000d2
:103650000000000008000000004c00000000000016
:103660004c000000006c000000000000380000006a
:10367000001000000000000010000000000000002a
:10368000000000000000000000000000000000003a
:10369000000000000000000000000000000000002a
:1036a0000070000060000000d840000000c800006a
:1036b00040000000c8c0000000c8000080000000fa
:1036c000c99c000000c9000036000000d926000097
:1036d0000073000026000000022600000006000023
:1036e0002600000004260000000400003600000050
:1036f0000c1c0000000000000000000000000000a2
:1037000000000000000000000000000000000000b9
:1037100000000000000000000000000000000000a9
:103720000000000000380000000000003c00000025
:10373000002400000000000024000000002c000015
:103740000000000038000000001800000000000029
:1037500038000000007a0000000000004e00000069
:10376000004c00000000000044000000006e00005b
:10377000000000003a00000000000000000000000f
:103780000000000000000000000000000000000039
:103790000000000000000000000000000000000029
:1037a00000000000000000000040000000000000d9
:1037b0004000000000400000000000004000000049
:1037c00000400000000000000000000000000000b9
:1037d00000000000000000000000000000000000e9
:1037e00000000000000000000000000000000000d9
:1037f00000000000000000000000000000000000c9
:1038000000000000000000000000000000000000b8
:1038100000000000000000000000000000000000a8
:103820000000000000000000000000000060000038
:1038300000000000c000000000c000000000000008
:10384000c000000000c0000000000000c000000038
:1038500000c0000000000000c000000000c0000028
:1038600000000000c000000000c0000000000000d8
:10387000c000000000c0000000000000c000000008
:1038800000600000000000000000000000000000d8
:103890000000000000000000000000000000000028
:1038a0000000000000000000000000000000000018
:1038b0000060000000000000600000000020000028
:1038c00000000000200000000020000000000000b8
:1038d0002000000000200000000000002000000088
:1038e0000020000000000000200000000020000078
:1038f0000000000020000000002000000000000088
:103900002000000000600000000000000000000037
:1039100000000000000000000000000000000000a7
:103920000000000000000000000000000000000097
:103930000000000000100000000000005400000023
:10394000003c0000000000003c00000000540000ab
:103950000000000010000000000000000000000057
:103960000000000000000000000000000000000057
:103970000000000000000000000000000000000047
:103980000000000000000000000000000000000037
:103990000000000000000000000000000000000027
:1039a0000000000000000000000000000000000017
:1039b0000000000000000000000000000000000007
:1039c00000000000000000000000000000000000f7
:1039d00000000000000000001000000000100000c7
:1039e000000000007c00000000300000000000002b
:1039f00010000000000000000000000000000000b7
:103a000000000000000000000000000000000000b6
:103a100000000000000000000000000000000000a6
:103a20000000000000000000000000000000000096
:103a30000000000000000000000000000000000086
:103a40000000000000000000000000000000000076
:103a50000000000000000000000000000000000066
:103a60000000000000000000000000000000000056
:103a70000000000000000000000000000000000046
:103a800000000000006000000000000020000000b6
:103a90000000000000000000000000000000000026
:103aa0000000000000000000000000000000000016
:103ab0000000000000000000000000000000000006
:103ac00000000000000000000000000000000000f6
:103ad00000000000000000000000000000000000e6
:103ae0000000000000000000000000007000000066
:103af00000000000000000000000000000000000c6
:103b000000000000000000000000000000000000b5
:103b100000000000000000000000000000000000a5
:103b20000000000000000000000000000000000095
:103b30000000000000000000000000000000000085
:103b40000000000000000000000000000000000075
:103b50000000000000000000000000000000000065
:103b60000000000000000000000000000000000055
:103b70000000000000000000000000000000000045
:103b80000000000000000000000000000000000035
:103b900000000000c0000000000000000000000065
:103ba0000000000000000000000000000000000015
:103bb0000000000000000000000000000000000005
:103bc00000000000000000000008000000000000ed
:103bd00008000000001800000000000018000000ad
:103be00000100000000000001000000000100000a5
:103bf0000000000030000000002000000000000075
:103c00002000000000200000000000006000000014
:103c10000040000000000000400000000000000024
:103c20000000000000000000000000000000000094
:103c30000000000000000000000000000000000084
:103c4000000000000000000000000000003800003c
:103c5000000000006c0000000044000000000000b4
:103c60004400000000440000000000004400000088
:103c70000044000000000000440000000044000078
:103c800000000000440000000044000000000000ac
:103c900044000000006c000000000000380000003c
:103ca0000000000000000000000000000000000014
:103cb0000000000000000000000000000000000004
:103cc00000000000000000000000000000000000f4
:103cd00000300000000000007000000000f0000054
:103ce0000000000030000000003000000000000074
:103cf0003000000000300000000000003000000034
:103d00000030000000000000300000000030000023
:103d10000000000030000000003000000000000043
:103d20003000000000000000000000000000000063
:103d30000000000000000000000000000000000083
:103d40000000000000000000000000000000000073
:103d5000000000000070000000000000780000007b
:103d600000c8000000000000c800000000c80000fb
:103d70000000000018000000001800000000000013
:103d80001000000000300000000000006000000093
:103d900000600000000000004000000000c00000c3
:103da00000000000f800000000000000000000001b
:103db0000000000000000000000000000000000003
:103dc00000000000000000000000000000000000f3
:103dd00000000000000000000038000000000000ab
:103de0006c000000006400000000000044000000bf
:103df00000040000000000000c000000001800009b
:103e0000000000000c0000000004000000000000a2
:103e100004000000004400000000000064000000f6
:103e2000006c0000000000003800000000000000ee
:103e30000000000000000000000000000000000082
:103e40000000000000000000000000000000000072
:103e5000000000000000000000000000000800005a
:103e60000000000018000000001800000000000022
:103e700018000000003800000000000028000000ca
:103e8000002800000000000028000000004800009a
:103e9000000000004c000000007e00000000000058
:103ea0000c000000000800000000000008000000f6
:103eb0000000000000000000000000000000000002
:103ec00000000000000000000000000000000000f2
:103ed00000000000000000000000000000000000e2
:103ee00000f0000000000000c000000000c0000062
:103ef00000000000c000000000f000000000000012
:103f0000d800000000980000000000001800000029
:103f100000180000000000001800000000d8000099
:103f200000000000d800000000d0000000000000e9
:103f30007000000000000000000000000000000011
:103f40000000000000000000000000000000000071
:103f50000000000000000000000000000000000061
:103f60000000000000380000000000006c000000ad
:103f7000006c000000000000440000000040000051
:103f80000000000078000000006c0000000000004d
:103f90004400000000440000000000004400000055
:103fa000004400000000000064000000006c0000fd
:103fb00000000000380000000000000000000000c9
:103fc00000000000000000000000000000000000f1
:103fd00000000000000000000000000000000000e1
:103fe0000000000000000000007c00000000000055
:103ff0000c000000000c0000000000000c0000009d
:104000000008000000000000180000000018000078
:104010000000000018000000001000000000000078
:104020003000000000300000000000003000000000
:104030000030000000000000300000000000000020
:104040000000000000000000000000000000000070
:104050000000000000000000000000000000000060
:104060000000000000000000000000000038000018
:10407000000000006c000000006c00000000000068
:1040800064000000006c0000000000006c000000f4
:1040900000380000000000006c000000006c000010
:1040a0000000000044000000004400000000000088
:1040b00064000000006c00000000000038000000f8
:1040c00000000000000000000000000000000000f0
:1040d00000000000000000000000000000000000e0
:1040e00000000000000000000000000000000000d0
:1040f000003800000000000078000000004c0000c4
:10410000000000004c000000004c00000000000017
:104110004c000000006c0000000000007c0000006b
:10412000000c0000000000000c000000004c00002b
:10413000000000004c0000000068000000000000cb
:104140003800000000000000000000000000000037
:10415000000000000000000000000000000000005f
:10416000000000000000000000000000000000004f
:10417000000000000000000000000000000000003f
:1041800000000000000000000000000000c000006f
:10419000000000000000000000000000000000001f
:1041a000000000000000000000000000000000000f
:1041b00000c0000000000000c0000000000000007f
:1041c00000000000000000000000000000000000ef
:1041d00000000000000000000000000000000000df
:1041e00000000000000000000000000000000000cf
:1041f00000000000000000000000000000000000bf
:1042000000000000000000000000000000000000ae
:104210000000000000000000c000000000c000001e
:10422000000000000000000000000000000000008e
:104230000000000000c0000000000000c0000000fe
:1042400000400000000000004000000000400000ae
:10425000000000000000000000000000000000005e
:10426000000000000000000000000000000000004e
:10427000000000000000000000000000000000003e
:10428000000000000000000000000000000000002e
:104290000000000000000000000000001800000006
:1042a000003000000000000060000000004000003e
:1042b0000000000070000000001800000000000076
:1042c00008000000000000000000000000000000e6
:1042d00000000000000000000000000000000000de
:1042e00000000000000000000000000000000000ce
:1042f00000000000000000000000000000000000be
:1043000000000000000000000000000000000000ad
:10431000000000000000000000000000000000009d
:104320000000000000780000000000000000000015
:104330000078000000000000000000000000000005
:10434000000000000000000000000000000000006d
:10435000000000000000000000000000000000005d
:10436000000000000000000000000000000000004d
:10437000000000000000000000000000000000003d
:10438000000000000000000000000000000000002d
:10439000000000000000000000000000000000001d
:1043a000000000004000000000300000000000009d
:1043b000180000000018000000000000300000009d
:1043c000006000000000000000000000000000008d
:1043d00000000000000000000000000000000000dd
:1043e00000000000000000000000000000000000cd
:1043f00000000000000000000000000000000000bd
:10440000000000000000000000700000000000003c
:10441000f000000000d8000000000000d8000000fc
:1044200000d8000000000000100000000010000094
:1044300000000000300000000060000000000000ec
:10444000400000000000000000000000000000002c
:1044500000400000000000004000000000000000dc
:10446000000000000000000000000000000000004c
:10447000000000000000000000000000000000003c
:10448000000000000000000000000000000f00001d
:10449000000000003980000000200000c000000083
:1044a0006d400000004b0000400000005140000043
:1044b000005100004000000051400000005b00007f
:1044c000400000004fc0000000400000000000005d
:1044d0006000000000300000000000001e0000002e
:1044e00000000000000000000000000000000000cc
:1044f00000000000000000000000000000000000bc
:1045000000000000000000000000000000000000ab
:104510000018000000000000380000000038000013
:10452000000000003800000000280000000000002b
:1045300028000000002c0000000000006c000000bb
:10454000006c00000000000064000000007c00001f
:1045500000000000640000000046000000000000b1
:104560004600000000000000000000000000000005
:10457000000000000000000000000000000000003b
:10458000000000000000000000000000000000002b
:104590000000000000f8000000000000d80000004b
:1045a00000c8000000000000c800000000c80000b3
:1045b00000000000c800000000f80000000000003b
:1045c000d800000000cc000000000000cc0000007b
:1045d00000cc000000000000cc00000000d800006b
:1045e00000000000f80000000000000000000000d3
:1045f00000000000000000000000000000000000bb
:1046000000000000000000000000000000000000aa
:104610000000000000000000003800000000000062
:104620006c00000000640000000000006400000056
:104630000064000000000000600000000060000056
:1046400000000000600000000064000000000000a6
:10465000640000000064000000000000640000002e
:10466000006c0000000000003800000000000000a6
:10467000000000000000000000000000000000003a
:10468000000000000000000000000000000000002a
:1046900000000000000000000000000000f000002a
:1046a00000000000d800000000c80000000000006a
:1046b000c800000000c8000000000000c8000000a2
:1046c00000c8000000000000c800000000c8000092
:1046d00000000000c800000000c80000000000004a
:1046e000c800000000d8000000000000f00000003a
:1046f00000000000000000000000000000000000ba
:1047000000000000000000000000000000000000a9
:104710000000000000000000000000000000000099
:1047200000f0000000000000c000000000c0000019
:1047300000000000c000000000c0000000000000f9
:10474000c000000000f0000000000000c0000000f9
:1047500000c0000000000000c000000000c0000019
:1047600000000000c000000000c0000000000000c9
:10477000f000000000000000000000000000000049
:104780000000000000000000000000000000000029
:104790000000000000000000000000000000000019
:1047a0000000000000f0000000000000c000000059
:1047b00000c0000000000000c000000000c00000b9
:1047c00000000000c000000000f000000000000039
:1047d000c000000000c0000000000000c000000099
:1047e00000c0000000000000c000000000c0000089
:1047f00000000000c00000000000000000000000f9
:1048000000000000000000000000000000000000a8
:104810000000000000000000000000000000000098
:104820000000000000000000003800000000000050
:104830006c00000000640000000000006400000044
:104840000064000000000000600000000060000044
:10485000000000006c000000006400000000000088
:10486000640000000064000000000000640000001c
:10487000006c0000000000003c0000000000000090
:104880000000000000000000000000000000000028
:104890000000000000000000000000000000000018
:1048a00000000000000000000000000000cc00003c
:1048b00000000000cc00000000cc00000000000060
:1048c000cc00000000cc000000000000cc00000084
:1048d00000fc000000000000cc00000000cc000044
:1048e00000000000cc00000000cc00000000000030
:1048f000cc00000000cc000000000000cc00000054
:1049000000000000000000000000000000000000a7
:104910000000000000000000000000000000000097
:104920000000000000000000000000000000000087
:1049300000c0000000000000c000000000c0000037
:1049400000000000c000000000c0000000000000e7
:10495000c000000000c0000000000000c000000017
:1049600000c0000000000000c000000000c0000007
:1049700000000000c000000000c0000000000000b7
:10498000c000000000000000000000000000000067
:104990000000000000000000000000000000000017
:1049a0000000000000000000000000000000000007
:1049b00000000000000c0000000000000c000000df
:1049c000000c0000000000000c000000000c0000c3
:1049d000000000000c000000000c000000000000bf
:1049e0000c000000000c0000000000004c00000063
:1049f000004c0000000000004c00000000780000a7
:104a0000000000003800000000000000000000006e
:104a10000000000000000000000000000000000096
:104a20000000000000000000000000000000000086
:104a3000000000000000000000cc000000000000aa
:104a4000c800000000d8000000000000d8000000ee
:104a500000d0000000000000f000000000e00000b6
:104a600000000000e000000000f000000000000076
:104a7000d000000000d8000000000000d8000000b6
:104a800000c8000000000000cc0000000000000092
:104a90000000000000000000000000000000000016
:104aa0000000000000000000000000000000000006
:104ab00000000000000000000000000000c0000036
:104ac00000000000c000000000c000000000000066
:104ad000c000000000c0000000000000c000000096
:104ae00000c0000000000000c000000000c0000086
:104af00000000000c000000000c000000000000036
:104b0000c000000000c0000000000000f000000035
:104b10000000000000000000000000000000000095
:104b20000000000000000000000000000000000085
:104b30000000000000000000000000000000000075
:104b400000c3000000000000c300000000e30000fc
:104b500000000000e700000000e700000000000087
:104b6000e700000000e7000000000000e500000092
:104b700000f5000000000000dd00000000d900008a
:104b800000000000d900000000d900000000000073
:104b9000d90000000000000000000000000000003c
:104ba0000000000000000000000000000000000005
:104bb00000000000000000000000000000000000f5
:104bc0000000000000cc000000000000cc0000004d
:104bd00000cc000000000000ec00000000ec000031
:104be00000000000ec00000000fc000000000000dd
:104bf000dc00000000dc000000000000dc00000021
:104c000000dc000000000000cc00000000cc000030
:104c100000000000cc0000000000000000000000c8
:104c20000000000000000000000000000000000084
:104c30000000000000000000000000000000000074
:104c4000000000000000000000380000000000002c
:104c50006c00000000640000000000006400000020
:104c60000064000000000000640000000064000018
:104c7000000000006400000000640000000000006c
:104c800064000000006400000000000064000000f8
:104c9000006c000000000000380000000000000070
:104ca0000000000000000000000000000000000004
:104cb00000000000000000000000000000000000f4
:104cc00000000000000000000000000000f00000f4
:104cd00000000000d800000000c800000000000034
:104ce000c800000000c8000000000000c80000006c
:104cf00000d8000000000000f800000000c0000024
:104d000000000000c000000000c000000000000023
:104d1000c000000000c0000000000000c000000053
:104d20000000000000000000000000000000000083
:104d30000000000000000000000000000000000073
:104d40000000000000000000000000000000000063
:104d500000380000000000006c000000006400004b
:104d6000000000006400000000640000000000007b
:104d70006400000000640000000000006400000007
:104d800000640000000000006400000000640000f7
:104d90000000000064000000006c00000000000043
:104da00038000000000800000000000004000000bf
:104db00000000000000000000000000000000000f3
:104dc00000000000000000000000000000000000e3
:104dd0000000000000f8000000000000d800000003
:104de00000c8000000000000c800000000c800006b
:104df00000000000c800000000f8000000000000f3
:104e0000d800000000c8000000000000c80000003a
:104e100000c8000000000000c800000000c800003a
:104e200000000000cc0000000000000000000000b6
:104e30000000000000000000000000000000000072
:104e40000000000000000000000000000000000062
:104e5000000000000000000000380000000000001a
:104e60006c000000004c0000000000004c0000003e
:104e70000064000000000000300000000038000066
:104e80000000000018000000000c000000000000fe
:104e90004400000000440000000000006400000026
:104ea000006c00000000000038000000000000005e
:104eb00000000000000000000000000000000000f2
:104ec00000000000000000000000000000000000e2
:104ed00000000000000000000000000000f80000da
:104ee0000000000070000000002000000000000032
:104ef0002000000000200000000000002000000052
:104f00000020000000000000200000000020000041
:104f10000000000020000000002000000000000051
:104f20002000000000200000000000002000000021
:104f30000000000000000000000000000000000071
:104f40000000000000000000000000000000000061
:104f50000000000000000000000000000000000051
:104f600000c8000000000000c800000000c80000e9
:104f700000000000c800000000c8000000000000a1
:104f8000c800000000c8000000000000c8000000c9
:104f900000c8000000000000c800000000c80000b9
:104fa00000000000c800000000d800000000000061
:104fb0007000000000000000000000000000000081
:104fc00000000000000000000000000000000000e1
:104fd00000000000000000000000000000000000d1
:104fe0000000000000460000000000004600000035
:104ff00000440000000000006400000000640000a5
:10500000000000006c000000002c00000000000008
:105010002c00000000280000000000003800000004
:1050200000380000000000003800000000180000f8
:105030000000000018000000000000000000000058
:105040000000000000000000000000000000000060
:105050000000000000000000000000000000000050
:1050600000000000000000000044000040000000bc
:1050700044400000004c0000c00000004ec0000092
:10508000004e0000c00000006a800000006a0000be
:10509000800000006a800000003a000080000000ec
:1050a0003b800000003300008000000031800000e1
:1050b000003100008000000031800000000000008e
:1050c00000000000000000000000000000000000e0
:1050d00000000000000000000000000000000000d0
:1050e000000000000000000000000000004c000074
:1050f0000000000048000000006800000000000000
:10510000280000000038000000000000300000000f
:1051100000300000000000003000000000300000ff
:1051200000000000380000000068000000000000df
:1051300068000000004c0000000000004c0000006f
:10514000000000000000000000000000000000005f
:10515000000000000000000000000000000000004f
:10516000000000000000000000000000000000003f
:1051700000c40000000000004c000000004c0000d3
:10518000000000006800000000680000000000004f
:10519000380000000038000000000000300000006f
:1051a00000100000000000001000000000100000cf
:1051b00000000000100000000010000000000000cf
:1051c00010000000000000000000000000000000cf
:1051d00000000000000000000000000000000000cf
:1051e00000000000000000000000000000000000bf
:1051f000000000000078000000000000180000001f
:105200000018000000000000180000000018000056
:10521000000000001000000000300000000000004e
:1052200030000000003000000000000020000000fe
:10523000006000000000000060000000006000004e
:1052400000000000780000000000000000000000e6
:10525000000000000000000000000000000000004e
:10526000000000000000000000000000000000003e
:1052700000000000000000000070000000000000be
:10528000600000000040000000000000400000003e
:10529000004000000000000040000000004000004e
:1052a000000000004000000000400000000000007e
:1052b000400000000040000000000000400000002e
:1052c000006000000000000070000000000000000e
:1052d00000000000000000000000000000000000ce
:1052e00000000000000000000000000000000000be
:1052f000000000000000000000000000004000006e
:1053000000000000600000000060000000000000dd
:10531000200000000020000000000000300000001d
:10532000003000000000000010000000001000002d
:10533000000000001800000000180000000000003d
:105340000800000000080000000000000800000045
:10535000000000000000000000000000000000004d
:10536000000000000000000000000000000000003d
:10537000000000000000000000000000000000002d
:1053800000f00000000000003000000000300000cd
:1053900000000000300000000030000000000000ad
:1053a000300000000030000000000000300000006d
:1053b000003000000000000030000000003000005d
:1053c000000000003000000000300000000000007d
:1053d000f0000000000000000000000000000000dd
:1053e00000000000000000000000000000000000bd
:1053f00000000000000000000000000000000000ad
:10540000000000000000000000000000000000009c
:1054100000300000000000003000000000780000b4
:1054200000000000780000000048000000000000bc
:105430004800000000cc0000000000000000000058
:10544000000000000000000000000000000000005c
:10545000000000000000000000000000000000004c
:10546000000000000000000000000000000000003c
:10547000000000000000000000000000000000002c
:10548000000000000000000000000000000000001c
:10549000000000000000000000000000000000000c
:1054a00000000000000000000000000000000000fc
:1054b00000000000000000000000000000000000ec
:1054c00000000000000000000000000000000000dc
:1054d00000000000000000000000000000000000cc
:1054e00000000000f80000000000000000000000c4
:1054f00000000000000000000000000000000000ac
:10550000000000000000000000000000000000009b
:10551000000000000000000000000000000000008b
:10552000000000000000000000000000000000007b
:10553000000000000000000000000000000000006b
:1055400000000000600000000030000000000000cb
:10555000000000000000000000000000000000004b
:10556000000000000000000000000000000000003b
:10557000000000000000000000000000000000002b
:10558000000000000000000000000000000000001b
:1055900000000000000000000000000000380000d3
:1055a000000000006c00000000640000000000002b
:1055b00064000000000c0000000000003c0000003f
:1055c00000640000000000006400000000640000af
:1055d0000000000064000000006c000000000000fb
:1055e0003c0000000000000000000000000000007f
:1055f00000000000000000000000000000000000ab
:10560000000000000000000000000000000000009a
:105610000000000000c0000000000000c00000000a
:1056200000f0000000000000d800000000c80000ea
:1056300000000000c800000000c8000000000000da
:10564000c800000000c8000000000000c800000002
:1056500000c8000000000000c800000000d80000e2
:1056600000000000f000000000000000000000004a
:10567000000000000000000000000000000000002a
:10568000000000000000000000000000000000001a
:10569000000000000000000000000000000000000a
:1056a0000000000000380000000000006c00000056
:1056b000006c0000000000006c00000000600000b2
:1056c000000000006000000000600000000000001a
:1056d00064000000006c0000000000006c0000008e
:1056e000006c000000000000380000000000000016
:1056f00000000000000000000000000000000000aa
:105700000000000000000000000000000000000099
:105710000000000000000000000000000004000085
:105720000000000004000000003c00000000000039
:105730006c000000006c000000000000640000002d
:10574000006400000000000064000000006400002d
:105750000000000064000000006400000000000081
:1057600064000000006c0000000000003c0000002d
:105770000000000000000000000000000000000029
:105780000000000000000000000000000000000019
:105790000000000000000000000000000000000009
:1057a00000000000000000000000000000380000c1
:1057b000000000006c000000006c00000000000011
:1057c0006c000000006c0000000000007c00000085
:1057d000006000000000000060000000006c00009d
:1057e000000000006c000000006c000000000000e1
:1057f0003800000000000000000000000000000071
:105800000000000000000000000000000000000098
:105810000000000000000000000000000000000088
:105820000000000000300000000000003000000018
:105830000020000000000000780000000060000070
:105840000000000020000000002000000000000018
:1058500020000000002000000000000020000000e8
:1058600000200000000000002000000000200000d8
:105870000000000020000000000000000000000008
:105880000000000000000000000000000000000018
:105890000000000000000000000000000000000008
:1058a00000000000000000000000000000000000f8
:1058b00000000000003c0000000000006c00000040
:1058c000006c0000000000006400000000640000a4
:1058d0000000000064000000006400000000000000
:1058e0006400000000640000000000006c00000084
:1058f000003c00000000000004000000004c00001c
:10590000000000007800000000000000000000001f
:105910000000000000000000000000000000000087
:1059200000000000000000000000000000c00000b7
:1059300000000000c000000000f8000000000000af
:10594000f800000000c8000000000000cc000000cb
:1059500000cc000000000000cc00000000cc0000e3
:1059600000000000cc00000000cc0000000000009f
:10597000cc00000000cc000000000000cc000000c3
:105980000000000000000000000000000000000017
:105990000000000000000000000000000000000007
:1059a00000000000000000000000000000000000f7
:1059b00000c00000000000000000000000c0000067
:1059c00000000000c000000000c000000000000057
:1059d000c000000000c0000000000000c000000087
:1059e00000c0000000000000c000000000c0000077
:1059f00000000000c000000000c000000000000027
:105a0000c0000000000000000000000000000000d6
:105a10000000000000000000000000000000000086
:105a20000000000000000000000000000000000076
:105a30000000000000600000000000000000000006
:105a40000060000000000000600000000060000036
:105a50000000000060000000006000000000000086
:105a60006000000000600000000000006000000016
:105a70000060000000000000600000000060000006
:105a80000000000060000000006000000000000056
:105a900060000000000000000000000000000000a6
:105aa00000000000000000000000000000000000f6
:105ab000000000000000000000c000000000000026
:105ac000c000000000c8000000000000d800000076
:105ad00000d8000000000000d000000000f000002e
:105ae00000000000e000000000e0000000000000f6
:105af000f000000000d0000000000000d80000000e
:105b000000c8000000000000cc0000000000000001
:105b10000000000000000000000000000000000085
:105b20000000000000000000000000000000000075
:105b300000000000000000000000000000c00000a5
:105b400000000000c000000000c0000000000000d5
:105b5000c000000000c0000000000000c000000005
:105b600000c0000000000000c000000000c00000f5
:105b700000000000c000000000c0000000000000a5
:105b8000c000000000c0000000000000c0000000d5
:105b90000000000000000000000000000000000005
:105ba00000000000000000000000000000000000f5
:105bb00000000000000000000000000000000000e5
:105bc00000000000000000000000000000fb0000da
:105bd00000000000dd80000000c90000800000001f
:105be000c880000000c8000080000000c8800000dd
:105bf00000c8000080000000c880000000c800004d
:105c000080000000c880000000c800008000000084
:105c1000c88000000000000000000000000000003c
:105c20000000000000000000000000000000000074
:105c30000000000000000000000000000000000064
:105c40000000000000000000000000000000000054
:105c500000f8000000000000d800000000c80000ac
:105c600000000000cc00000000cc0000000000009c
:105c7000cc00000000cc000000000000cc000000c0
:105c800000cc000000000000cc00000000cc0000b0
:105c900000000000cc000000000000000000000038
:105ca00000000000000000000000000000000000f4
:105cb00000000000000000000000000000000000e4
:105cc00000000000000000000000000000000000d4
:105cd0000000000000380000000000006c00000020
:105ce000006c000000000000640000000064000080
:105cf00000000000640000000064000000000000dc
:105d00006400000000640000000000006c0000005f
:105d1000006c0000000000003800000000000000df
:105d20000000000000000000000000000000000073
:105d30000000000000000000000000000000000063
:105d40000000000000000000000000000000000053
:105d5000000000000000000000f80000000000004b
:105d6000d800000000c8000000000000c8000000cb
:105d700000c8000000000000c800000000c80000cb
:105d800000000000c800000000c800000000000083
:105d9000c800000000d8000000000000f000000073
:105da00000c0000000000000c00000000000000073
:105db00000000000000000000000000000000000e3
:105dc00000000000000000000000000000000000d3
:105dd000000000000000000000000000003c000087
:105de000000000006c000000006c000000000000db
:105df0006400000000640000000000006400000077
:105e00000064000000000000640000000064000066
:105e1000000000006c000000006c000000000000aa
:105e20003c0000000004000000000000040000002e
:105e30000000000000000000000000000000000062
:105e40000000000000000000000000000000000052
:105e50000000000000000000000000000000000042
:105e600000f0000000000000e000000000c00000a2
:105e700000000000c000000000c0000000000000a2
:105e8000c000000000c0000000000000c0000000d2
:105e900000c0000000000000c000000000c00000c2
:105ea00000000000c0000000000000000000000032
:105eb00000000000000000000000000000000000e2
:105ec00000000000000000000000000000000000d2
:105ed00000000000000000000000000000000000c2
:105ee0000000000000380000000000007800000002
:105ef000004c0000000000004c00000000600000aa
:105f00000000000030000000001800000000000049
:105f100008000000004c0000000000004c000000e1
:105f2000006c0000000000003800000000000000cd
:105f30000000000000000000000000000000000061
:105f40000000000000000000000000000000000051
:105f500000000000000000000000000000600000e1
:105f6000000000006000000000f0000000000000e1
:105f70006000000000600000000000006000000001
:105f800000600000000000006000000000600000f1
:105f90000000000060000000006000000000000041
:105fa0006000000000600000000000003000000001
:105fb00000000000000000000000000000000000e1
:105fc00000000000000000000000000000000000d1
:105fd00000000000000000000000000000000000c1
:105fe00000000000000000000000000000c80000e9
:105ff00000000000c800000000c800000000000011
:10600000c800000000c8000000000000c800000038
:1060100000c8000000000000c800000000c8000028
:1060200000000000c800000000d8000000000000d0
:1060300078000000000000000000000000000000e8
:106040000000000000000000000000000000000050
:106050000000000000000000000000000000000040
:106060000000000000000000000000000000000030
:1060700000c80000000000004800000000480000c8
:106080000000000048000000004800000000000080
:106090007800000000780000000000007800000098
:1060a0000030000000000000300000000030000060
:1060b00000000000300000000000000000000000b0
:1060c00000000000000000000000000000000000d0
:1060d00000000000000000000000000000000000c0
:1060e00000000000000000000000000000000000b0
:1060f0000000000000c9000080000000490000000e
:10610000005d0000000000005d0000000055000080
:1061100000000000550000000055000000000000d5
:10612000770000000077000000000000770000000a
:10613000002200000000000022000000000000001b
:10614000000000000000000000000000000000004f
:10615000000000000000000000000000000000003f
:10616000000000000000000000000000000000002f
:10617000000000000000000000c800000000000057
:1061800048000000007800000000000070000000df
:10619000003000000000000030000000003000006f
:1061a000000000003000000000700000000000004f
:1061b000580000000048000000000000c800000077
:1061c00000000000000000000000000000000000cf
:1061d00000000000000000000000000000000000bf
:1061e00000000000000000000000000000000000af
:1061f00000000000000000000000000000cc0000d3
:10620000000000004c000000004c000000000000f6
:106210004800000000680000000000006800000066
:106220000068000000000000380000000038000096
:1062300000000000300000000030000000000000fe
:10624000300000000030000000000000700000007e
:10625000000000000000000000000000000000003e
:10626000000000000000000000000000000000002e
:10627000000000000000000000000000000000001e
:10628000007800000000000018000000001000006e
:1062900000000000100000000030000000000000be
:1062a000300000000020000000000000600000003e
:1062b00000600000000000006000000000600000be
:1062c0000000000078000000000000000000000056
:1062d00000000000000000000000000000000000be
:1062e00000000000000000000000000000000000ae
:1062f000000000000000000000300000000000006e
:10630000300000000060000000000000600000009d
:10631000006000000000000060000000006000005d
:1063200000000000c000000000600000000000004d
:10633000600000000060000000000000600000003d
:10634000006000000000000060000000003000005d
:10635000000000000000000000000000000000003d
:10636000000000000000000000000000000000002d
